:100000000C94E1010C94FE010C942F1A0C94FE0147
:100010000C94FE010C94FE010C94CF190C94E7197A
:100020000C94281B0C94FE010C94621A0C94FE0193
:100030000C94FE010C94FE010C94FE010C94FE0144
:100040000C94FE010C94FE010C94AA1A0C94FE016F
:100050000C94FE010C94FE010C94FE010C94FE0124
:100060000C94FE010C94FE010C94FE010C94FE0114
:100070000C94FE010C94FE010C94EB1A0C94FE01FE
:100080000C94C0190C94FE010C94FE0100000000B9
:100090000000000000000000000000000000000060
:1000A0000100010001000100010001000100010048
:1000B0000100010001000100010001000100020037
:1000C0000200020002000200020002000200020020
:1000D0000300030003000300030003000400040006
:1000E00004000400040005000500050005000600EA
:1000F00006000600070007000700080008000800C7
:10010000090009000A000A000B000B000C000C009B
:100110000D000D000E000F000F0010001100110067
:100120001200130014001500160017001800190023
:100130001A001B001C001D001F00200021002300CE
:1001400024002600270029002B002C002E00300060
:1001500032003400360038003A003C003E004000D7
:100160004300450047004A004C004F005100540036
:10017000570059005C005F006200640067006A007D
:100180006D0070007300760079007C007F008200B3
:10019000850088008B008E009100940097009A00E3
:1001A0009C009F00A200A500A700AA00AD00AF0020
:1001B000B200B400B700B900BB00BE00C000C2006E
:1001C000C400C600C800CA00CC00CE00D000D200D7
:1001D000D300D500D700D800DA00DB00DD00DE0058
:1001E000DF00E100E200E300E400E500E600E700F4
:1001F000E800E900EA00EB00EC00ED00ED00EE00A5
:10020000EF00EF00F000F100F100F200F200F30067
:10021000F300F400F400F500F500F600F600F60037
:10022000F700F700F700F800F800F800F900F9000F
:10023000F900F900FA00FA00FA00FA00FA00FB00EF
:10024000FB00FB00FB00FB00FB00FC00FC00FC00D3
:10025000FC00FC00FC00FC00FC00FC00FD00FD00BC
:10026000FD00FD00FD00FD00FD00FD00FD00FD00A6
:10027000FD00FD00FD00FD00FD00FE00FE00FE0093
:10028000FE00FE00FE00FE00FF00FF00494E464952
:100290004E4954594E414ECDCCCC3D0AD7233C1744
:1002A000B7D13877CC2B329595E6241FB14F0A0091
:1002B0000020410000C84200401C4620BCBE4CCA81
:1002C0001B0E5AAEC59D7400407A10F35A00A072FE
:1002D0004E18090010A5D4E80000E8764817000081
:1002E000E40B54020000CA9A3B000000E1F505004F
:1002F0000080969800000040420F000000A0860198
:10030000000000102700000000E803000000006467
:1003100000000000000A00000000000100000000D2
:10032000002C76D888DC674F0823DFC1DFAE59E1A7
:10033000B1B796E5E3E453C63AE651997696E8E616
:10034000C28426EB898C9B62ED407C6FFCEFBC9CE9
:100350009F40F2BAA56FA5F490055A2AF75C936BFB
:100360006CF9676DC11BFCE0E40D47FEF520E6B5B6
:1003700000D0ED902E0300943577050080841E0890
:100380000000204E0A000000C80C333333330F98AE
:100390006E12831141EF8D2114893BE65516CFFE75
:1003A000E6DB18D1844B381BF77C1D901DA4BBE401
:1003B00024203284725E228100C9F124ECA1E53D43
:1003C000270011241FBECFEFD0E1DEBFCDBF16E066
:1003D000A0E0B1E0E8E7F8E502C005900D92AA3F81
:1003E000B107D9F719E0AAEFB6E001C01D92AC3B06
:1003F000B107E1F70E945B1B0C943A2C0C94FF1997
:10040000A8E1B0E0E6E0F2E00C94572269837A8339
:100410008B839C832D833E834F835887B9E0EB2EDB
:10042000F12CEC0EFD1ECE010196B7010E9479045D
:100430008E010F5E1F4FCE010596B8010E94790410
:100440002985223008F47EC03989323010F4B80191
:100450007CC08A859A8989278A87243011F02230C6
:1004600031F4231709F06EC06AED75E06EC03430C8
:1004700039F41D861E861F86188A1C861B8604C0BA
:10048000323021F484E08987B7015FC02B853C8539
:100490008B899C89281B390B3C872B87ED84FE8434
:1004A0000F851889AD88BE88CF88D88CEA14FB04E4
:1004B0000C051D0540F4EE0CFF1C001F111F215000
:1004C00030403C872B8720E030E040E050E080E087
:1004D00090E0A0E0B0E460E070E0EA14FB040C05FA
:1004E0001D0540F0282B392B4A2B5B2BEA18FB0803
:1004F0000C091D09B695A79597958795EE0CFF1CDD
:10050000001F111F6F5F7F4F6F31710531F7DA01E7
:10051000C9018F779070A070B07080349105A105EB
:10052000B10561F427FD0AC0E114F10401051105CC
:1005300029F0205C3F4F4F4F5F4F20782D873E873B
:100540004F87588BBE01675F7F4FCB010E94A4038A
:100550006896EAE00C947322A8E1B0E0E2EBF2E0E6
:100560000C945B2269837A838B839C832D833E83E7
:100570004F83588789E0E82EF12CEC0EFD1ECE014A
:100580000196B7010E9479048E010F5E1F4FCE01C4
:100590000596B8010E9479048985823040F08989E6
:1005A000823028F0C701B8010E94F10401C08FEF2A
:1005B0006896E6E00C947722A8E0B0E0E2EEF2E084
:1005C0000C9457227B018C01611571058105910501
:1005D00019F482E0898360C083E089838EE1C82EAC
:1005E000D12CDC82CB82ED82FE820F831887C8017A
:1005F000B7010E945503FC013197F7FF3BC022274A
:1006000033272E1B3F0B57016801022E04C0D694DE
:10061000C794B794A7940A94D2F740E050E060E002
:1006200070E081E090E0A0E0B0E004C0880F991F86
:10063000AA1FBB1F2A95D2F70197A109B1098E21E4
:100640009F21A023B1230097A105B10521F041E02E
:1006500050E060E070E04A295B296C297D294D83D8
:100660005E836F8378878EE190E08E1B9F0B9C8367
:100670008B8312C0309781F00E2E04C0EE0CFF1C4D
:10068000001F111F0A94D2F7ED82FE820F83188794
:10069000CE1ADF0ADC82CB821A82CE0101960E943A
:1006A000A4032896EAE00C947322EF92FF920F9332
:1006B0001F937B018C0180E0E81680E0F80681E062
:1006C000080780E0180788F48FEFE816F1040105A9
:1006D000110531F028F088E090E0A0E0B0E017C00C
:1006E00080E090E0A0E0B0E012C080E0E81680E09A
:1006F000F80680E0080781E0180728F088E190E01C
:10070000A0E0B0E004C080E190E0A0E0B0E020E232
:1007100030E040E050E0281B390B4A0B5B0B04C073
:1007200016950795F794E7948A95D2F7F701EE515D
:10073000FA4F8081281B310941095109C9011F91D4
:100740000F91FF90EF900895DF92EF92FF920F9339
:100750001F93FC01E480F58006811781D1808081A0
:10076000823048F480E090E0A0E1B0E0E82AF92A85
:100770000A2B1B2BA5C0843009F49FC0823021F4C2
:10078000EE24FF24870105C0E114F10401051105E1
:1007900019F4E0E0F0E096C0628173819FEF623867
:1007A00079070CF05BC022E83FEF261B370B2A319C
:1007B00031052CF020E030E040E050E02AC0B801E4
:1007C000A701022E04C076956795579547950A9420
:1007D000D2F781E090E0A0E0B0E004C0880F991F5C
:1007E000AA1FBB1F2A95D2F70197A109B1098E2133
:1007F0009F21A023B1230097A105B10521F081E03D
:1008000090E0A0E0B0E09A01AB01282B392B4A2BF5
:100810005B2BDA01C9018F779070A070B0708034C3
:100820009105A105B10539F427FF09C0205C3F4FB0
:100830004F4F5F4F04C0215C3F4F4F4F5F4FE0E091
:10084000F0E02030A0E03A07A0E04A07A0E45A0711
:1008500010F0E1E0F0E079018A0127C0603871050D
:1008600064F5FB01E158FF4FD801C7018F77907005
:10087000A070B07080349105A105B10539F4E7FE90
:100880000DC080E490E0A0E0B0E004C08FE390E011
:10089000A0E0B0E0E80EF91E0A1F1B1F17FF05C0FD
:1008A00016950795F794E794319687E01695079586
:1008B000F794E7948A95D1F705C0EE24FF248701C9
:1008C000EFEFF0E06E2F679566276795902F9F7783
:1008D000D794DD24D7948E2F8695492F462B582FF9
:1008E0005D29B701CA011F910F91FF90EF90DF9032
:1008F0000895FC01DB01408151812281622F6F77D5
:1009000070E0221F2227221F9381892F880F822BBC
:10091000282F30E0991F9927991F11969C931197C2
:1009200021153105A9F5411551056105710511F430
:1009300082E037C082E89FEF13969C938E931297C4
:100940009A01AB0167E0220F331F441F551F6A95C0
:10095000D1F783E08C930DC0220F331F441F551F26
:1009600012968D919C911397019713969C938E9359
:100970001297203080E0380780E0480780E458076D
:1009800058F314962D933D934D935C9317970895C8
:100990002F3F310579F4411551056105710519F4B1
:1009A00084E08C93089564FF03C081E08C9312C0AF
:1009B0001C9210C02F57304013963C932E931297E1
:1009C00083E08C9387E0440F551F661F771F8A953D
:1009D000D1F7706414964D935D936D937C93179744
:1009E00008951F93DC01FB019C91923008F447C0ED
:1009F0008081823008F443C0943051F411961C91E8
:100A0000843099F58181682F70E0611B71093FC0C6
:100A1000843021F0923031F48230B9F18181882321
:100A200089F12DC011961C9111978230F1F08181CE
:100A30001817D9F412962D913C91139782819381C6
:100A40008217930794F028173907BCF014968D91FC
:100A50009D910D90BC91A02D2481358146815781B7
:100A6000281739074A075B0718F4112341F00AC019
:100A700082179307A407B50740F4112319F061E02A
:100A800070E005C06FEF7FEF02C060E070E0CB0167
:100A90001F91089582E080937000E1E7F0E080818B
:100AA00083608083E4E7F0E0808184608083089540
:100AB000E4E7F0E080818B7F8083089584EA80936F
:100AC00074008091740087FFFCCF089584E98093BF
:100AD00074008091740084FDFCCF089580937300AE
:100AE00084E8809374008091740087FFFCCF80912C
:100AF0007100887F883159F080917100887F883239
:100B000031F08091710090E0887F803409F491E0A9
:100B1000892F0895FC01662321F080917400806480
:100B200003C0809174008F7B809374008091740067
:100B30008068809374008091740087FFFCCF80915F
:100B40007100887F883539F080917100887F803509
:100B500011F080E0089580917300808381E0089512
:100B60008430E1F0853038F4823091F0833098F4AD
:100B7000813059F407C08630B9F0863090F0873064
:100B800021F415C020E031E014C020E030E011C0B5
:100B900024E031E00EC028E031E00BC02CE031E071
:100BA00008C020E131E005C024E131E002C028E1C5
:100BB00031E0C9010895863091F1873070F48330B7
:100BC00029F1843028F48130C1F08230C9F41BC08F
:100BD0008430F9F08530A1F41FC0893049F18A30A2
:100BE00028F48730F9F0883059F41FC08B3031F188
:100BF0008B3008F18C3021F424C02CE131E023C08B
:100C000020E030E020C020E231E01DC024E231E0ED
:100C10001AC028E231E017C02CE231E014C020E312
:100C200031E011C025E331E00EC02AE331E00BC012
:100C30002EE331E008C023E431E005C027E431E0D1
:100C400002C02BE431E0C9010895DF92EF92FF92D8
:100C50000F931F93DF93CF930F92CDB7DEB78C0125
:100C600080E07E010894E11CF11CB7010E94760926
:100C7000882309F44FC0F80113868DE4828780E24F
:100C800080878981282F2F70205D278390E08077CF
:100C9000907064E0959587956A95E1F7805D86830D
:100CA0005AE3D52ED58281E0B7010E9476098823C8
:100CB00089F18981282F2F70205DF801248390E02D
:100CC0008077907044E0959587954A95E1F7805D2F
:100CD0008383D28282E0B7010E9476098823D1F013
:100CE0002981822F8F70805DF801818330E0C901F6
:100CF0008071907034E0959587953A95E1F7805D25
:100D0000808325FF02C080E502C081E4F80181876D
:100D100081E001C080E00F90CF91DF911F910F9192
:100D2000FF90EF90DF900895DF93CF930F92CDB7B0
:100D3000DEB782E0BE016F5F7F4F0E947609898136
:100D4000829582700F90CF91DF910895DF93CF93BA
:100D50000F92CDB7DEB786E0BE016F5F7F4F0E9476
:100D6000760989810F90CF91DF910895DF93CF931A
:100D70000F92CDB7DEB785E0BE016F5F7F4F0E9457
:100D800076098981282F30E020713070F4E03595A4
:100D90002795FA95E1F7A901E3E0440F551FEA957D
:100DA000E1F7220F331F420F531F8F70840F0F90F4
:100DB000CF91DF910895DF93CF930F92CDB7DEB738
:100DC00084E0BE016F5F7F4F0E9476098981282FE2
:100DD00030E02073307094E0359527959A95E1F7CF
:100DE000A901B3E0440F551FBA95E1F7220F331F55
:100DF000420F531F8F70840F0F90CF91DF91089592
:100E0000DF93CF930F92CDB7DEB782E0BE016F5F65
:100E10007F4F0E9476098981282F30E02072307040
:100E2000E4E035952795EA95E1F7A90173E0440FD1
:100E3000551F7A95E1F7220F331F420F531F8F7012
:100E4000840F0F90CF91DF910895DF93CF930F928E
:100E5000CDB7DEB781E0BE016F5F7F4F0E9476099C
:100E60008981282F30E020773070B4E035952795C0
:100E7000BA95E1F7A901A3E0440F551FAA95E1F740
:100E8000220F331F420F531F8F70840F0F90CF918B
:100E9000DF910895DF93CF930F92CDB7DEB780E057
:100EA000BE016F5F7F4F0E9476098981282F30E055
:100EB0002077307074E0359527957A95E1F7A90190
:100EC00063E0440F551F6A95E1F7220F331F420F6D
:100ED000531F8F70840F0F90CF91DF9108951F9350
:100EE000DF93CF930F92CDB7DEB7182F82E0BE010C
:100EF0006F5F7F4F0E9476098981112311F0806214
:100F000001C08F7D898382E069810E945909811126
:100F100081E00F90CF91DF911F910895282F6AE013
:100F20000E941C22482F50E0E4E0440F551FEA9530
:100F3000E1F7822F0E941C22942B86E0692F0E94E9
:100F40005909811181E00895382F6AE00E941C221E
:100F5000282F22952071832F0E941C22292B85E0A7
:100F6000622F0E945909811181E00895382F6AE0AB
:100F70000E941C22282F22952073832F0E941C225E
:100F8000292B84E0622F0E945909811181E0089584
:100F9000382F6AE00E941C22282F22952072832F6E
:100FA0000E941C22292B82E0622F0E945909811184
:100FB00081E00895382F6AE00E941C22282F229594
:100FC0002077832F0E941C22292B81E0622F0E9410
:100FD0005909811181E00895382F6AE00E941C228E
:100FE000282F22952077832F0E941C22292B80E016
:100FF000622F0E945909811181E008950F931F9378
:10100000DF93CF930F92CDB7DEB70E944A0500D091
:101010008FE491E0EDB7FEB7928381830E941019AF
:101020000F900F9080E08E010F5F1F4FB8010E945C
:101030007609882361F100D08BE591E0EDB7FEB72A
:10104000928381830E94101969816F7769830F9061
:101050000F9080E00E9459098823C9F000D082E6F1
:1010600091E0EDB7FEB7928381830E9410190F9033
:101070000F9082E0B8010E947609882341F06981CF
:1010800082E00E945909882319F081E001C080E0C4
:101090000F90CF91DF911F910F910895CF92DF9222
:1010A000EF92FF920F931F93DF93CF9300D000D066
:1010B0000F92CDB7DEB77C016B01FE01319685E062
:1010C000DF011D928A95E9F7129A1A9A88EE93E049
:1010D00020E931E0F9013197F1F70197D9F71A9832
:1010E00080ED97E00197F1F71A9A129885ED8A95AD
:1010F000F1F70A9998C020E431E0C9010197F1F7AE
:101100000A9B91C0C9010197F1F7FE01319650EA9F
:10111000A1E0B0E0BE016A5F7F4F2AC00196893C22
:10112000910519F480C080E090E00A9BF7CF852FED
:101130008A95F1F70A9B08C0CD01022E02C0880FE4
:10114000991F0A94E2F7482B80E090E005C00196D1
:10115000893C910509F467C00A99F9CF21503040C4
:101160008FEF2F3F3807F9F64193E617F70721F085
:1011700040E027E030E0D7CF129A1A9A88EE93E049
:1011800020E931E0F9013197F1F70197D9F7198199
:101190000A812B816C81802F810F820F860F9D81A8
:1011A000891709F040C0922F80E070E0682B792BFE
:1011B00077FF12C07F7780E090E00E94DC0220E0A1
:1011C00030E040E251EC0E940002D7016D937D9324
:1011D0008D939C9313970FC080E090E00E94DC02F7
:1011E00020E030E040E251E40E940002F701608319
:1011F000718382839383712F60E0202F30E0622B14
:10120000732B80E090E00E94DC0220E030E040E2BE
:1012100051E40E940002D6016D937D938D939C93BF
:10122000139780E001C08FEF0F900F900F900F90F9
:101230000F90CF91DF911F910F91FF90EF90DF9072
:10124000CF9008950E944E080895DF93CF9300D069
:1012500000D0CDB7DEB7BC0180E090E0A0E0B0E008
:1012600089839A83AB83BC83CE0101960E944E088A
:101270000F900F900F900F90CF91DF910895DF9313
:10128000CF9300D000D0CDB7DEB720E030E040E013
:1012900050E029833A834B835C83BE016F5F7F4FAD
:1012A0000E944E080F900F900F900F90CF91DF91FA
:1012B00008950F931F93182F062F0E945E0580ED4F
:1012C0000E946E05882371F0812F0E946E0588238D
:1012D00049F0802F0E946E05882321F00E94660548
:1012E00081E001C080E01F910F9108951F93CF937B
:1012F000DF93182FEB010E945E0580ED0E946E05C2
:101300008823B1F0812F0E946E05882389F00E9406
:101310005E0581ED0E946E05882351F0CE0160E0EC
:101320000E948A05882321F00E94660581E001C0A1
:1013300080E0DF91CF911F910895D79A149A87B3D7
:10134000806F87BB81B3806681BBE1E6F0E080817E
:1013500083618083089585B5846085BD85E591E0CE
:101360009093810080938000EBE8F0E080818362BD
:101370008083EAE8F0E080818C6080838FB5896AA1
:101380008FBD8EB58A608EBD83B7856083BF12BE68
:101390000895FC0120E090E03AE007C0939F802D83
:1013A000112491919053980F2F5F2617B8F3892F2E
:1013B0000895DC01FC0105C08C93803209F0119680
:1013C000319680818823C1F71C92089587B1806689
:1013D00087B986B1836086B9379A089597B1907FAF
:1013E000982B97B9369A3699FECF369A3699FECF12
:1013F00085B190E00895DF93CF9300D0CDB7DEB7ED
:101400008091B6099091B709009711F09C0102C034
:101410002CEB39E000D000D088E691E0EDB7FEB7C4
:1014200092838183CE010196821B930B94838383E5
:101430000E9410190F900F900F900F900F900F9027
:10144000CF91DF9108950F931F938C010E944A075B
:10145000F80182830E942507F80181830E9400071A
:10146000F80180830E94DB06F80183830E94B606A0
:10147000F80184830E94A60690E04496F8019683C2
:1014800085831F910F9108950F931F93DF93CF933F
:10149000CDB7DEB7E2970FB6F894DEBF0FBECDBF73
:1014A0008E010F5F1F4FC80160E771E00E94432467
:1014B000C8010E940B1980E991E06AE570E00E9482
:1014C0004519882359F000D083E991E0EDB7FEB7C4
:1014D000928381830E94101981E00AC000D08EE9B6
:1014E00091E0EDB7FEB7928381830E94101980E0EE
:1014F0000F900F90E2960FB6F894DEBF0FBECDBFEF
:10150000CF91DF911F910F910895A3E1B7E0EDE82E
:10151000F9E080E201900D928150E1F7809114078B
:10152000813009F051C08091160780937707809130
:10153000170790911807A0911907B0911A07809387
:10154000780790937907A0937A07B0937B078091EF
:101550001B0790911C07A0911D07B0911E07809357
:101560007D0790937E07A0937F07B0938007A2E842
:10157000B7E0EFE1F7E086E001900D928150E1F7EE
:1015800080918607809387078EE28093860710926A
:101590008807A9E8B7E0E5E2F7E085E001900D9261
:1015A0008150E1F780912A0790912B07A0912C0799
:1015B000B0912D0780938F0790939007A093910788
:1015C000B093920781E00895823011F080E0089591
:1015D000A4E9B7E0EEE2F7E085E001900D928150DA
:1015E000E1F781E008950F931F9300D08CEA91E01A
:1015F000ADB7BEB712969C938E9311970E941019A7
:1016000000D0EDB7FEB731968EEA91E0ADB7BEB728
:1016100012969C938E931197809115078283138263
:101620000E94101987EB91E0EDB7FEB7928381839A
:101630000AE917E0148303830E94101980EC91E0FB
:10164000ADB7BEB712969C938E9311970B5F1F4F49
:1016500014961C930E9313970E94101988EC91E036
:10166000EDB7FEB79283818308E717E01483038305
:101670000E94101982ED91E0ADB7BEB712969C930F
:101680008E9311970B5F1F4F14961C930E93139715
:101690000E9410198BED91E0EDB7FEB79283818324
:1016A0000B5F1F4F148303830E94101985EE91E096
:1016B000ADB7BEB712969C938E931197095F1F4FDB
:1016C00014961C930E931397015110400E94101909
:1016D0000F900F900F900F90C80147960E94112411
:1016E00000D000D02EEE31E0EDB7FEB7328321837B
:1016F000948383830E9410190F900F900F900F9086
:10170000C8014C960E94112400D000D028EF31E08F
:10171000ADB7BEB712963C932E93119714969C9337
:101720008E9313970E94101986E092E0EDB7FEB7F2
:10173000928381838091A4079091A50794838383EA
:101740000E9410190F900F900F900F901F910F9102
:101750000895AF92BF92CF92DF92EF92FF920F93D4
:101760001F93DF93CF93CDB7DEB76D970FB6F89485
:10177000DEBF0FBECDBF182F00D08FE092E0ADB717
:10178000BEB712969C938E9311970E9410190F90DA
:101790000F90112369F086E192E00E940B1980E519
:1017A00093EC20E931E0F9013197F1F70197D9F78E
:1017B0000E94AE1882E292E00E940B193AE5E32EF5
:1017C000F12C012D112D20E9A22E21E0B22E9DE257
:1017D000C92E92E0D92E25C088EE93E0F50131970D
:1017E000F1F70197D9F700D000D000D0EDB7FEB7E0
:1017F000D282C182ADB7BEB71396ED92FD920D9322
:101800001C9316970E9410190894E108F108010929
:101810001109EDB7FEB736960FB6F894FEBF0FBEAE
:10182000EDBF8BEC97E060E372E00E9459240097D3
:1018300029F4E114F1040105110571F600D000D07E
:1018400084E392E0ADB7BEB712969C938E93119746
:101850008BECC82E87E0D82E1496DC92CE9213978C
:101860000E9410190F900F900F900F90E114F10447
:101870000105110511F410E0CBC0C60169E372E067
:101880000E945924DE011996FC01369684E10190EC
:101890000D928150E1F7EDB7FEB73E970FB6F89481
:1018A000FEBF0FBEEDBF31968FE392E0ADB7BEB77E
:1018B00012969C938E931197809170078283138266
:1018C00080917107848315828091720786831782C5
:1018D00080917407808711868091730782871386B1
:1018E0008091750790917607958784870E941019DB
:1018F00089859A859A838983EDB7FEB73E960FB6A0
:10190000F894FEBF0FBEEDBF8E010F5F1F4FC801E1
:101910000E941124809370070E94C8078C859D85C2
:101920009A838983C8010E941124809371070E94C1
:10193000DA078F8598899A838983C8010E941124C8
:10194000809372070E94EC078A899B899A83898316
:10195000C8010E941124809374070E94A4078D89F6
:101960009E899A838983C8010E94112480937307FA
:101970000E94B607888D998DAA8DBB8D8C839D831F
:10198000AE83BF83CE0104960E9411248093750715
:10199000909376070E948E070E940007182F0E94DE
:1019A0002507082F0E944A07F82E0E94DB06E82E22
:1019B0000E94B606D82E0E94A6062DB73EB72E501E
:1019C00030400FB6F8943EBF0FBE2DBFEDB7FEB747
:1019D00031962CE532E0ADB7BEB712963C932E930C
:1019E00011971283138204831582F6821782E08690
:1019F0001186D2861386848715860E94101911E0FD
:101A0000EDB7FEB73E960FB6F894FEBF0FBEEDBF22
:101A10000E94AE18812F6D960FB6F894DEBF0FBEF0
:101A2000CDBFCF91DF911F910F91FF90EF90DF908D
:101A3000CF90BF90AF900895CF92DF92EF92FF9238
:101A40000F931F93DF93CF93CDB7DEB7CF5AD0401C
:101A50000FB6F894DEBF0FBECDBF882329F08EE20B
:101A600080937A0780937F0788E797E00E94D909DF
:101A70008DE797E00E94D90982E897E00E94D90992
:101A800089E897E00E94D9098FE897E00E94D90978
:101A900084E997E00E94D9094AE1C42ED12CCC0EEA
:101AA000DD1EC6016CE772E00E944324C60160E9B6
:101AB00072E00E943824C60160EA72E00E94382475
:101AC000C6010E940B1980E991E064E170E00E9478
:101AD0004519882309F4C5C000D085EA92E0EDB726
:101AE000FEB7928381830E9410190F900F90C60158
:101AF0006FEA72E00E944324C60160ED72E00E942A
:101B00003824C6016AE977E00E943824C60169EDED
:101B100072E00E943824C6016FE977E00E94382401
:101B2000C60162EE72E00E943824C60168E777E0E1
:101B30000E943824C6016BEE72E00E943824C60170
:101B40006DE777E00E943824C60164EF72E00E94DE
:101B50003824C60162E877E00E943824C6016DEFA0
:101B600072E00E943824C60169E877E00E943824B8
:101B7000C60166E073E00E943824C6016FE877E092
:101B80000E943824C6016FE073E00E943824C60129
:101B900064E977E00E943824C60168E173E00E949E
:101BA0003824F60101900020E9F73197CF018C1914
:101BB0009D097E010894E11CF11CB7014AE050E048
:101BC0000E9473248E010A5F1F4FC8016BE173E00E
:101BD0000E944324C801B7010E943824C8010E9412
:101BE0000B1987E293E064E170E00E9445198823B5
:101BF000B1F0C6010E940B1989E293E062E370E044
:101C00000E944519882321F480E393E00E940B1978
:101C1000809162008F7E8093620081E04DC0809150
:101C20006200806180936200809162008D7F80936A
:101C3000620088EE93E020E931E0F9013197F1F795
:101C40000197D9F78091620082608093620080E3FF
:101C500095E720E931E0F9013197F1F70197D9F7DC
:101C600021C0809162008061809362008091620057
:101C70008D7F8093620088EE93E020E931E0F901E6
:101C80003197F1F70197D9F78091620082608093D4
:101C9000620080E395E720E931E0F9013197F1F73F
:101CA0000197D9F78091A6079091A7070196909385
:101CB000A7078093A60780E0C155DF4F0FB6F894C1
:101CC000DEBF0FBECDBFCF91DF911F910F91FF906F
:101CD000EF90DF90CF9008950E944B1480E40E9413
:101CE000231484E00E942D148CE00E942D1484E0C3
:101CF0000E942D148CE00E942D1484E00E942D146B
:101D00008EE00E942D148EE00E942D1484E00E942B
:101D10002D148BE10E942D1483E10E942D148BE180
:101D20000E942D1483E10E942D148BE10E942D143A
:101D300081E10E942D1481E10E942D148BE10E940B
:101D40002D1484E00E942D148EE00E942D148EE04C
:101D50000E942D148FE10E942D148FE10E942D14FA
:101D60008FE10E942D148EE00E942D1484E00E94C9
:101D70002D148BE10E942D1481E10E942D1481E12C
:101D80000E942D1480E00E942D1480E00E942D14EA
:101D900080E00E942D1481E10E942D148BE10E94AD
:101DA0002D1486E00E942D1489E00E942D1489E0F4
:101DB0000E942D1486E00E942D1480E00E942D14B4
:101DC00080E00E942D1480E00E942D1480E00E948B
:101DD0002D1484E00E942D1485E10E942D148EE0C4
:101DE0000E942D148FE10E942D148EE00E942D146C
:101DF00085E10E942D1484E00E942D1480E00E9451
:101E00002D148EE00E942D1484E00E942D1484E095
:101E10000E942D1485E10E942D148FE10E942D1443
:101E20008FE10E942D1481E10E942D148FE10E9408
:101E30002D1480E10E942D148CE10E942D1484E168
:101E40000E942D1480E00E942D148AE10E942D141E
:101E500085E10E942D148FE10E942D1485E10E94DE
:101E60002D1480E80E9423140895EF92FF921F938F
:101E7000CF93DF938FE08093F7060E94781587B7A2
:101E8000806487BF10E05CE3E52E53E0F52EC0E9E7
:101E9000D1E010930F0710931007109311071093C0
:101EA000120700D000D0EDB7FEB73196ADB7BEB780
:101EB0001296FC92EE921197128313820E941019CF
:101EC00088E893E10F900F900F900F90FE013197EB
:101ED000F1F70197D9F71F5F1A30D8F210E0D9CF88
:101EE000CF92DF92EF92FF920F931F93CF93DF93E6
:101EF000AB98AC98AD98809162008F7B8093620024
:101F000080E197E220E931E0F9013197F1F701979B
:101F1000D9F7C0E0D0E000EE1BEAC035D10518F4D7
:101F2000CE01BE0103C0CE0160E570E040E050E0AC
:101F30000E94E014C8010197F1F72196CA3FD1052C
:101F400061F780E197E220E931E0F9013197F1F79B
:101F50000197D9F7AE9A88EB9BE020E931E0F901CF
:101F60003197F1F70197D9F7AB9A88EB9BE020E91D
:101F700031E0F9013197F1F70197D9F7AC9A88EB85
:101F80009BE020E931E0F9013197F1F70197D9F7AA
:101F9000AF9A88EB9BE020E931E0F9013197F1F746
:101FA0000197D9F7AD9A88EB9BE020E931E0F90180
:101FB0003197F1F70197D9F780916200806480939F
:101FC000620088EB9BE020E931E0F9013197F1F7FD
:101FD0000197D9F787B7806487BF80E197E220E94E
:101FE00031E0F9013197F1F70197D9F773E3D72E73
:101FF00060E4C62EC0E0DDE7AE9885B3805885BBAF
:1020000085B38C2585BB0E94FD2369E070E00E94AA
:10201000282280930F070E94FD2369E070E00E9450
:102020002822809310070E94FD2369E070E00E943F
:102030002822809311070E94FD2369E070E00E942E
:102040002822809312070E94FD238C010E94FD2309
:102050007C010E94FD23FC01C8016FEF70E00E942B
:1020600028228C01C7016FEF70E00E9428229C019A
:10207000CF016FEF70E00E942822AC01C801B901C6
:102080000E94E0142D2D04C0CE010197F1F72150DC
:102090002223D1F783E0D81619F08EEFD80EACCFFB
:1020A00087B78F7B87BFAB98AC98AD988091620063
:1020B0008F7B80936200AF98AE9880E090E060E004
:1020C00070E040E050E00E94E01480E197E220E9F7
:1020D00031E0F9013197F1F70197D9F7DF91CF910D
:1020E0001F910F91FF90EF90DF90CF9008958F9206
:1020F0009F92AF92BF92CF92DF92EF92FF920F9397
:102100001F93DF93CF93CDB7DEB7E2970FB6F89466
:10211000DEBF0FBECDBF4C01D62EC72E8A017C017B
:10212000E40EF51ED7010D900020E9F71197AE19C6
:10213000BF095E010894A11CB11CC501B701AD0126
:102140000E944A24ED2DFC2DDF010D900020E9F7BF
:102150001197AE1BBF0BC7016D2D7C2DAD010E94E9
:102160004A24AD2DBC2DFD0101900020E9F73197E7
:10217000EA1BFB0B0E0F1F1FC401800F911FB5013F
:102180000E94382480E090E0E2960FB6F894DEBF1B
:102190000FBECDBFCF91DF911F910F91FF90EF90B8
:1021A000DF90CF90BF90AF909F908F900895EF9267
:1021B000FF920F931F93DF93CF93CDB7DEB7F984D0
:1021C000EA84EF2DFE2DDF010D900020E9F7CD010F
:1021D0008E1B9F0B0E94A722182F092F9E01255F9F
:1021E0003F4F6F2D7E2DA9010E949C24812F902F9F
:1021F0000E947314812F902F0E945423CF91DF915E
:102200001F910F91FF90EF900895CF92DF92EF9280
:10221000FF920F931F93CF93DF93BC01F4E3CF2E74
:10222000F7E0DF2EF601B89683E1DF011D928A9573
:10223000E9F7E6016496DE0184E10D900192815098
:10224000E1F783E1FE0111928A95E9F7E8E4F7E00E
:10225000DF01549784E10D9001928150E1F783E111
:10226000D6011D928A95E9F7DB010D900020E9F770
:102270001197A61BB70BC601AD010E942F2483E066
:1022800061E00E94371480E493E00E94731483E0BD
:1022900061E00E94371400D000D0E5E5EE2EE3E0C7
:1022A000FE2EEDB7FEB7F282E1820CE517E0148353
:1022B00003830E94D7100F900F900F900F9083E030
:1022C00062E00E94371480E493E00E94731483E07C
:1022D00062E00E94371400D000D0ADB7BEB71296AE
:1022E000FC92EE9211970451104014961C930E9399
:1022F00013970E94D7100F900F900F900F9083E0CC
:1023000063E00E94371480E493E00E94731483E03A
:1023100063E00E94371400D000D0EDB7FEB7F28220
:10232000E182D482C3820E94D71028E833E10F9063
:102330000F900F900F9040E951E0CA010197F1F71B
:1023400021503040D1F7DF91CF911F910F91FF9035
:10235000EF90DF90CF900895CF92DF92EF92FF92AF
:102360000F931F936C017B0180E061E00E943714A2
:1023700000D000E413E0EDB7FEB7128301830E94A2
:10238000D7100F900F9080E062E00E94371400D0C9
:10239000EDB7FEB7128301830E94D7100F900F9004
:1023A00080E063E00E94371400D0EDB7FEB71283DF
:1023B00001830E94D7100F900F9080E061E00E948F
:1023C000371400D088E593E0EDB7FEB792838183A0
:1023D0000E94D71000D082E693E0EDB7FEB792835B
:1023E00081838DE190E0E80EF91EF482E3820E9481
:1023F000D7100F900F9086E693E0EDB7FEB792836B
:1024000081830E94D7100F900F9080E062E00E94BD
:10241000371400D089E693E0EDB7FEB7928381834D
:102420000E94D71000D003E713E0EDB7FEB7128388
:102430000183F60184859585EDB7FEB79483838388
:102440000E94D7100F900F900F900F9080E063E0E4
:102450000E94371400D087E793E0EDB7FEB7928370
:1024600081830E94D71000D0EDB7FEB7128301839D
:10247000F60186859785EDB7FEB7948383830E9426
:10248000D7100F900F900F900F901F910F91FF900A
:10249000EF90DF90CF900895CF92DF92EF92FF926E
:1024A0000F931F93CF93DF937C01EB0180E061E0FA
:1024B0000E94371400D000E413E0EDB7FEB712839A
:1024C00001830E94D7100F900F9080E062E00E947D
:1024D000371400D0EDB7FEB7128301830E94D710E6
:1024E0000F900F9080E063E00E94371400D0EDB7AA
:1024F000FEB7128301830E94D7100F900F9080E0E7
:1025000061E00E94371480E00E942D1400D000D0BA
:10251000A2E6CA2EA3E0DA2EEDB7FEB7D282C182C0
:10252000F482E3820E94D7100F900F900F900F90CB
:1025300084E00E942D1483E40E94531480E062E042
:102540000E94371481E00E942D1400D000D0EDB716
:10255000FEB7D282C1822196D483C3830E94D71052
:102560000F900F900F900F9084E00E942D1483E441
:102570000E9453148AE061E00E94371482E00E94B6
:102580002D1400D000D000E813E0EDB7FEB71283A1
:10259000018385E090E0E80EF91EF482E3820E9458
:1025A000D7100F900F900F900F908AE062E00E947A
:1025B000371483E00E942D1400D000D0EDB7FEB791
:1025C000128301832596D483C3830E94D7100F9072
:1025D0000F900F900F9080E063E00E94371486E028
:1025E0000E942D1400D000D0EDB7FEB7D282C18278
:1025F0002596D483C3832B970E94D7100F900F90FA
:102600000F900F9088E063E00E94371487E00E94EB
:102610002D148AE063E00E94371485E00E942D1497
:102620008A899E012E5E3F4F8F3359F400D000D02F
:1026300086E893E0EDB7FEB79283818334832383EA
:102640000DC0C9010E94112400D000D02DE833E054
:10265000EDB7FEB732832183948383830E94D71022
:102660000F900F900F900F90CE0148960E9411246A
:102670008458934044F480E160E00E94371400D015
:1026800084E993E007C080E160E00E94371400D045
:1026900089E993E0EDB7FEB7928381830E94D7105A
:1026A0000F900F90DF91CF911F910F91FF90EF90BE
:1026B000DF90CF9008950F931F93DF93CF93CDB703
:1026C000DEB7E2970FB6F894DEBF0FBECDBFF89429
:1026D0001092FE0600D00DEA17E0EDB7FEB71283A8
:1026E00001830E9410190F900F908091AD078332E3
:1026F00019F0803479F52AC0D8011196FD010190B6
:102700000020E9F7EF5AF7408E010F5F1F4FC80115
:10271000BD01AF010E944A2400D000D08DE993E0B2
:10272000EDB7FEB792838183148303830E9410194F
:102730000F900F900F900F90C8010E94F41880E93D
:1027400091E06EE170E00E9445190FC000D081EA6F
:1027500093E003C000D088EA93E0EDB7FEB7928320
:1027600081830E9410190F900F900E94B419DF9876
:102770007894E2960FB6F894DEBF0FBECDBFCF912E
:10278000DF911F910F910895662311F0DE9A01C029
:10279000DE98DD98D39AD09AD29AD19AD998DA98BD
:1027A000D898DB9887FDD99A86FDDA9A85FDD89A64
:1027B00084FDDB9ADC9A00C0DC98D998DA98D89826
:1027C000DB9883FDD99A82FDDA9A81FDD89A80FD43
:1027D000DB9ADC9A00C0DC98DB9AD89ADA9AD99A0C
:1027E0000895882311F0DE9A01C0DE98DD9AD3980F
:1027F000D098D298D198DC9A00C0CB9B02C080E1DF
:1028000001C080E0C8998062CA998064C9998068D3
:10281000DC9800C0DC9A00C0CB998160C8998260C6
:10282000CA998460C9998860DC98089580E00E9404
:10283000F11387FDFBCF88E090E00197F1F780E08E
:102840000E94F11308951F93182F0E941614812FD0
:1028500060E00E94C4131F9108951F93182F0E94D7
:102860001614812F61E00E94C4131F9108956623FE
:1028700011F4805809C0613011F4805405C06230F1
:1028800011F48C5601C08C520E94231408950E94AA
:10289000161490E0089581E00E942314089582E0C8
:1028A0000E94231408951F93182F0E941614982F26
:1028B0001A3099F4843110F480E40BC080548431D0
:1028C00010F484E106C094519C3210F080E001C005
:1028D00084E580580E94231404C0812F61E00E9487
:1028E000C4131F910895CF93DF93EC0102C00E949F
:1028F000531489918823D9F7DF91CF910895CF930D
:10290000DF93EC0102C00E94531489918823D9F708
:10291000DF91CF910895CF93DF93EC0102C00E9425
:102920005314FE01219684918823C9F7DF91CF913A
:1029300008951F93182FD69AD59AD49AD39AD09ADD
:10294000D29AD19A80E09AEF0197F1F7D89ADB9A60
:10295000DC9A00C0DC9880E09EE40197F1F7DC9AF5
:1029600000C0DC9880E091E0FC013197F1F7DC9A3F
:1029700000C0DC98FC013197F1F7DB98DC9A00C0CD
:10298000DC980197F1F788E20E94231488E00E9406
:1029900023140E944B1486E00E942314812F0E946E
:1029A00023141F91089584B3886F84BBE1E6F0E09F
:1029B00080818064808384B3876084BB8F9A08950C
:1029C00090937900809378007BBD6ABD59BD48BD66
:1029D00008958230D9F0833028F4882341F0813083
:1029E000B9F50CC08330E9F0843091F52CC08091AA
:1029F000F70683FF23C0AB9AAC9806C08091F70618
:102A000082FF1CC0AB98AC9AAD9807C08091F706C6
:102A100081FF14C0AB98AC98AD9A809162008F7B17
:102A20000AC08091F70680FF09C0AB98AC98AD98BA
:102A3000809162008064809362000DC0AB98AC9876
:102A4000AD98AD9808C0AB98AC98AD98AD98089586
:102A5000843009F44CC0643061F1653050F4613069
:102A6000C9F06130A0F06230D1F0633009F03FC0AE
:102A70001BC0673059F1683028F46530E9F06630E2
:102A8000B1F51FC0683041F1693089F52BC085B3BD
:102A9000887F0DC085B38C7F85BBAA9A21C085B382
:102AA000897F85BBA89A1CC0A99885B3856085BB22
:102AB00017C085B3887F0DC085B38C7F85BBAA9A6C
:102AC00009C085B3897F85BBA89A04C0A99885B33E
:102AD000856085BB979A089585B38A7F85BBA99A3F
:102AE00097980895A89885B3866085BB97980895B0
:102AF000AB9AAC9AAD9AE2E6F0E080818064808384
:102B000087B7806487BFAF9AAE9A0895AB98AC98A8
:102B1000AD98E2E6F0E080818F7B808387B78F7B82
:102B200087BFAF98AE980895FC0180818053809351
:102B30000F07818180538093100782818053809397
:102B400011078381805380931207662311F0AF9A97
:102B500001C0AF98442311F0AE9A0895AE9808953D
:102B6000813059F0813028F0823051F0833071F497
:102B70000AC082B3806682BB0895959A969808959C
:102B80009598969A089582B38F7982BB0895AE98EE
:102B9000AF9880917800909179008AB59BB588B5FF
:102BA00099B50895EF92FF920F931F93CF93DF9300
:102BB000AE98AF988091780090917900E82E8AB510
:102BC0009BB5F82E88B599B5082F8FE08093F7064E
:102BD0001FEFC0E8DEE3E110EA94F110FA9401116E
:102BE00001508E2D90E02F2D30E0402F50E090933B
:102BF0007900809378003BBD2ABD59BD48BDCE0108
:102C00000197F1F7812F69E10E941C22992301F5B8
:102C10000E94FD2369E070E00E94282280930F0744
:102C20000E94FD2369E070E00E9428228093100733
:102C30000E94FD2369E070E00E9428228093110722
:102C40000E94FD2369E070E00E9428228093120711
:102C5000115009F0C0CF10927900109278001BBC7F
:102C60001ABC19BC18BC1092F706AE98AF9880E455
:102C70009CE90197F1F7DF91CF911F910F91FF90A0
:102C8000EF9008950F931F93CF93DF93EC01162FCE
:102C9000042F0E940D2420E030E040E251E40E9425
:102CA000AC02181634F48B818A831B831C828FE05C
:102CB0000AC08881803211F480E388838B818A8303
:102CC0001B831C8287E08093F70640E0011141E0FE
:102CD000CE0161E00E949415DF91CF911F910F9179
:102CE0000895C0988FEF0E946218C09A0895CF93FC
:102CF000DF93EC010E947116982F907486FF05C037
:102D0000209719F0869587708883892FDF91CF915E
:102D10000895C09881EE0E946218C09A0895C098E4
:102D200082EE0E946218C09A0895FF920F931F933B
:102D3000CF93DF93162F072FF42EC0988F718062E8
:102D40000E946218212F302FC901EC0110E004C04D
:102D500089910E9462181F5F1F15D0F3C09ADF91FE
:102D6000CF911F910F91FF9008951F93162FC09838
:102D70008F7180620E946218812F0E946218C09A2F
:102D80001F9108950F931F93CF93DF938C01C098E9
:102D900081E60E946218C0E0D0E08FEF0E946218C6
:102DA000F801EC0FFD1F80832196C032D105A9F7F1
:102DB000C09A87E060E40E94B5160E94711685FFF4
:102DC00004C087E060E20E94B516DF91CF911F91A9
:102DD0000F910895FF920F931F93CF93DF93162FB8
:102DE000072FF42EC0988F710E946218212F302F68
:102DF000C901EC0110E005C08FEF0E9462188993B1
:102E00001F5F1F15C8F3C09ADF91CF911F910F91DB
:102E1000FF900895C0988F710E9462188FEF0E94F2
:102E20006218C09A089580E00E940A17682F6C60AB
:102E300080E00E94B516089586E00E940A17682F68
:102E4000677D606286E00E94B516089586E00E9464
:102E50000A17682F666086E00E94B5160895949858
:102E600080E00E940A17682F6E7F80E00E94B516EE
:102E700080E00E940A17682F626080E00E94B51609
:102E800087E060E70E94B5160E94891688E592E007
:102E90000197F1F70895DC01149620E030E0FB0182
:102EA000E20FF31F8C9180832F5F3F4F11972530E6
:102EB0003105A9F708950F931F93DF93CF9300D0A7
:102EC00000D00F92CDB7DEB7AC01A2EFB6E0FC01A7
:102ED00085E001900D928150E1F7CA018E010F5FEC
:102EE0001F4FB8010E944B178AE0B80145E00E94CD
:102EF000951680E1B80145E00E9495160F900F905D
:102F00000F900F900F90CF91DF911F910F91089527
:102F10000F931F93DF93CF9300D000D00F92CDB7C4
:102F2000DEB78823A1F4ADEEB6E0FB0185E00190A9
:102F30000D928150E1F7CB018E010F5F1F4FB80159
:102F40000E944B178AE0B80145E00E9495160F9049
:102F50000F900F900F900F90CF91DF911F910F91D5
:102F6000089580E06DEE76E00E94881780E00E9470
:102F70000A17682F616080E00E94B51680E00E9409
:102F80000A17682F626080E00E94B51687E060E74C
:102F90000E94B5160E948F160E948916949A88E5A1
:102FA00092E00197F1F708950F931F93CF93DF936A
:102FB0008C010E942F17C09880EA0E946218C0E01E
:102FC000D0E0F801EC0FFD1F80810E94621821966D
:102FD000C032D105B1F7C09A949A80E58A95F1F78D
:102FE000949815E3812F8A95F1F70E9471168073EA
:102FF000C9F30E947116082F85E06CE40E94B51693
:1030000080E00E940A17682F6D7F80E00E94B5164D
:103010000E94B11710E085E0169507958A95E1F7B3
:10302000802F8170DF91CF911F910F910895B89AF1
:103030008C9A0E9457189498C09A80E29EE4019757
:10304000F1F70E9426170E941C170E94131784E0B4
:1030500067E40E94B5168CE160E00E94B51685E039
:103060006CE40E94B51681E160E20E94B51682E030
:1030700060E00E94B51682E00E940A17682F616026
:1030800082E00E94B51681E00E940A17682F6160F5
:1030900081E00E94B51680E06DEE76E00E94881710
:1030A00082EF96E00E945B170E94B117089587B3E4
:1030B000807F87BB87B3876087BB82E58DB981E05E
:1030C0008EB908958FB9779BFECF8FB108959093F5
:1030D000900089B988E98AB986E0809395000895BF
:1030E000909398008093990080E980939A0086E0FD
:1030F00080939D0008955F9BFECF8CB108958091D1
:103100009B0087FFFCCF80919C0008955D9BFECFC4
:103110008CB90895982F80919B0085FFFCCF9093E8
:103120009C000895AC0120E030E070E00CC0FA0192
:10313000E20FF31FE08180919B0085FFFCCFE093BD
:103140009C002F5F3F4F261737078CF380919B0021
:1031500085FFFCCF80E280939C00089580E090E0A2
:10316000FC01E553F84F1082019621E0823C920762
:10317000B9F71092FD061092FC0608955D9BFECFF4
:103180008DE08CB95D9BFECF8AE08CB908955D9B84
:10319000FECF81E48CB95D9BFECF84E58CB90E94A3
:1031A000BE180895AC01DC010D900020E9F71197DD
:1031B000A81BB90B20E030E00CC0FA01E20FF31FAE
:1031C000E08180919B0085FFFCCFE0939C002F5F06
:1031D0003F4F2A173B078CF380919B0085FFFCCF64
:1031E00080E280939C000895DC010D900020E9F7B7
:1031F0001197A81BB90B20E030E009C0FC01E20FD9
:10320000F31FE0815D9BFECFECB92F5F3F4F2A1784
:103210003B07A4F308950E94F4180E94BE18089575
:10322000EF92FF920F931F93DF93CF93CDB7DEB74B
:1032300019850A85E12FF02FDF010D900020E9F7B5
:10324000CD018E1B9F0B0E94A722F82EE92E9E0116
:10325000255F3F4F612F702FA9010E949C24809110
:103260009B0085FFFCCF8DE080939C008F2D9E2DD1
:103270000E94D2188F2D9E2D0E945423CF91DF9152
:103280001F910F91FF90EF900895AF92BF92CF9250
:10329000DF92EF92FF920F931F93DF93CF930F92E2
:1032A000CDB7DEB77C018B01198290E9A92E91E0A0
:1032B000B92E8DEAC82E83E0D82E17C088EE93E091
:1032C000F5013197F1F70197D9F700D000D0EDB7AC
:1032D000FEB7D282C182148303830E941019015069
:1032E00010400F900F900F900F908BEC97E0B7016C
:1032F0000E945924009719F401151105F9F600D020
:1033000000D080EB93E0EDB7FEB7928381838BEC26
:1033100097E0948383830E94101980E090E00F90DF
:103320000F900F900F90FC01E553F84F108201961B
:10333000F1E0823C9F07B9F71092FD061092FC065F
:10334000101611061CF481E0898301C0198289815D
:103350000F90CF91DF911F910F91FF90EF90DF9031
:10336000CF90BF90AF9008958EE1EDEAF7E0DF01D6
:103370001D928A95E9F71092FB061092FA060895BD
:103380001F920F920FB60F9211248F9381E08093BA
:1033900000078F910F900FBE0F901F9018951F92EE
:1033A0000F920FB60F9211248F9389B78F7D89BF2B
:1033B000F89481E08093090780930C071092050729
:1033C00078948F910F900FBE0F901F9018951F92B9
:1033D0000F920FB60F9211248F9389B78F7B89BFFD
:1033E000F89481E080930A0780930C0710920507F8
:1033F00078948F910F900FBE0F901F9018951F9289
:103400000F920FB60F9211242F933F934F935F9318
:103410006F937F938F939F93AF93BF93EF93FF939C
:1034200000D085EB93E0EDB7FEB7928381830E94D5
:1034300010198BB380588BBB0F900F90FF91EF91B9
:10344000BF91AF919F918F917F916F915F914F91BC
:103450003F912F910F900FBE0F901F9018951F92C4
:103460000F920FB60F9211242F933F934F935F93B8
:103470006F937F938F939F93AF93BF93EF93FF933C
:10348000F89481E080930B0700D08BEB93E0EDB7CD
:10349000FEB7928381830E941019C49A78940F908A
:1034A0000F90FF91EF91BF91AF919F918F917F917D
:1034B0006F915F914F913F912F910F900FBE0F90A1
:1034C0001F9018951F920F920FB60F9211242F93F1
:1034D0003F934F935F936F937F938F939F93AF939C
:1034E000BF93EF93FF93F8948BB380588BBB80917D
:1034F000070790910807039750F480910707909170
:1035000008070196909308078093070704C010925C
:103510000807109207078091070790910807E0912C
:103520000707F0910807E15FF84F60810E94E914F6
:103530007894FF91EF91BF91AF919F918F917F917F
:103540006F915F914F913F912F910F900FBE0F9010
:103550001F9018951F920F920FB60F9211242F9360
:103560003F934F935F936F937F938F939F93AF930B
:10357000BF93EF93FF93F8940E947B18882341F048
:103580008A3021F481E08093FF0602C08D3009F477
:103590008FE5E091FC06F091FD06E553F84F80833E
:1035A0008091FC069091FD0601969093FD06809314
:1035B000FC067894FF91EF91BF91AF919F918F910D
:1035C0007F916F915F914F913F912F910F900FBE1F
:1035D0000F901F9018951F920F920FB60F92112403
:1035E0002F933F934F935F936F937F938F939F930B
:1035F000AF93BF93EF93FF93F894DF9A0E947F18E5
:10360000982F8A3019F481E08093FE06E091FA0643
:10361000F091FB06E355F84F90838091FA06909164
:10362000FB0601969093FB068093FA067894FF912F
:10363000EF91BF91AF919F918F917F916F915F912A
:103640004F913F912F910F900FBE0F901F901895A3
:103650001F920F920FB60F9211242F933F934F9307
:103660005F936F937F938F939F93AF93BF93EF93EA
:10367000FF93F89481E080930D071092330783E362
:1036800097E00E947716882321F08DE899E00E9448
:10369000C2167894FF91EF91BF91AF919F918F9156
:1036A0007F916F915F914F913F912F910F900FBE3E
:1036B0000F901F9018952F923F924F925F926F92AA
:1036C0007F928F929F92AF92BF92CF92DF92EF92B2
:1036D000FF920F931F93DF93CF93CDB7DEB7A897D9
:1036E0000FB6F894DEBF0FBECDBF1092A7071092A1
:1036F000A6071092A9071092A8070E949D09809121
:1037000062008D7F8093620088EE93E020E931E0D3
:10371000F9013197F1F70197D9F780916200826042
:103720008093620088EE93E020E931E0F90131975F
:10373000F1F70197D9F7DF9A89E190E00E946718C5
:1037400000D084EC93E0ADB7BEB712969C938E93F5
:1037500011970E9410190F900F908CE00E949914FD
:103760000E946C0E0E944B140E944F1483E060E094
:103770000E94371400D087ED93E0EDB7FEB7928337
:1037800081830E94D710C49A85EE93E0ADB7BEB78F
:1037900012969C938E9311970E9410190F900F9080
:1037A0008DEE93E00E940511789400D086EF93E0AF
:1037B000EDB7FEB7928381830E9410190F900F908E
:1037C00080E094E00E9405118CE094E00E940511D5
:1037D0008091620080618093620088EB9BE020E929
:1037E00031E0F9013197F1F70197D9F78091620043
:1037F00081608093620088EB9BE020E931E0F90171
:103800003197F1F70197D9F7809162008F7E80930D
:103810006200809162008E7F809362000E94FE07AA
:10382000882309F44AC000D085E194E0ADB7BEB763
:1038300012969C938E9311970E9410190F900F90DF
:1038400085E294E00E9405110E940007182F0E9453
:103850002507082F0E944A07F82E0E94DB06E82E53
:103860000E94B606D82E0E94A606EDB7FEB73E9778
:103870000FB6F894FEBF0FBEEDBF319624E334E0DF
:10388000ADB7BEB712963C932E9311971283138255
:1038900004831582F6821782E0861186D28613860B
:1038A000848715860E941019EDB7FEB73E960FB6B5
:1038B000F894FEBF0FBEEDBF11C000D085E594E0C7
:1038C000ADB7BEB712969C938E9311970E941019B4
:1038D0000F900F9081E694E00E94051100D08CE6D5
:1038E00094E0EDB7FEB7928381830E9410190F9088
:1038F0000F9082E062E00E94371487E794E00E9414
:1039000005110E94440A882329F087E894E00E9468
:10391000051112C08DE894E00E9405118091A60760
:103920009091A70701969093A7078093A60780918F
:1039300062008061809362000E94AB0986E994E096
:103940000E9405118FEF90E0909385008093840092
:103950000E94D3148FEF90E060E070E040E050E010
:103960000E94E01480ED97E020E931E0F901319701
:10397000F1F70197D9F780E090E06FEF70E040E059
:1039800050E00E94E01480ED97E020E931E0F90179
:103990003197F1F70197D9F780E090E060E070E0AF
:1039A0004FEF50E00E94E01480ED97E020E931E015
:1039B000F9013197F1F70197D9F780E090E060E0E5
:1039C00070E040E050E00E94E0140E9417180E944E
:1039D000571880E2EDE8F9E0DF011D928A95E9F7DA
:1039E00000D08FE994E0EDB7FEB7928381830E9407
:1039F00010190F900F908EEA94E00E94051189B77C
:103A0000806E89BF8AB78C6B8ABF80E090E060E0EF
:103A100070E040E050E00E94E01480E00E94B015A9
:103A200000D08BEB94E0ADB7BEB712969C938E930B
:103A300011970E9410190F900F9084ED94E00E944E
:103A400005110E94E60900D08EED94E0EDB7FEB7B7
:103A5000928381830E9410190F900F908DEE94E055
:103A60000E940511CE010A96BE01625F7F4F0E943F
:103A7000220900D081EF94E0ADB7BEB712969C93B7
:103A80008E9311970E9410190F900F9080E095E08F
:103A90000E9405110D9B77C00E944B1400D000D0EE
:103AA0000BE015E0EDB7FEB7128301838EE095E0E1
:103AB000948383830E94D7100F900F908DE195E03F
:103AC000ADB7BEB712969C938E9311970E941019B2
:103AD00081E080930E070F900F9080E061E00E94DC
:103AE000371400D000D0EDB7FEB7128301838BE20C
:103AF00095E0948383830E94D7100F900F900F90CE
:103B00000F9081E00E94A90B8823B9F000D08BE3CD
:103B100095E0ADB7BEB712969C938E9311970E9415
:103B2000101900D0EDB7FEB7128301838AE495E047
:103B3000948383830E94D7101BC000D08DE495E04E
:103B4000ADB7BEB712969C938E9311970E94101931
:103B500000D0EDB7FEB7128301838FE595E0948323
:103B600083830E94D71080916200806180936200FD
:103B70000F900F900F900F908091FE068823E1F335
:103B80000E945B13F9CF80E29FE3A0E2BFE3809342
:103B9000780790937907A0937A07B0937B07809377
:103BA0007D0790937E07A0937F07B0938007A2E8DC
:103BB000B7E0E5E6F5E086E001900D928150E1F78F
:103BC000A9E8B7E0ECE6F5E085E001900D928150C0
:103BD000E1F7A4E9B7E0ECE6F5E085E001900D92AD
:103BE0008150E1F781E390E3A0E3B0E380938F0796
:103BF00090939007A0939107B093920780916200F1
:103C000081608093620082E795E00E940511AA24FA
:103C100033241EA2F1E0FDA31CA21BA222242394A4
:103C200033E3632E712C812C912CFAA3CC24DD2458
:103C3000760119A218A2BB24B3949E01225E3F4FC5
:103C400038A72FA38BB380588BBB8091FF068823A6
:103C5000D1F000D000D0E1E8F5E0ADB7BEB71296E4
:103C6000FC93EE9311972BEC37E014963C932E9334
:103C700013970E9410191092FF060F900F900F904B
:103C80000F900E94AE1880910107813031F0813091
:103C900008F4D0C38230B1F6ACC3109103071230E0
:103CA00009F41EC2133030F4112309F43DC1113060
:103CB00049F634C2143009F4E1C0143018F015305C
:103CC00009F629C13DE13A1508F4AA2488EE93E0EB
:103CD000E0E9F1E03197F1F70197D1F7A3948091F2
:103CE0000C07882331F010920C0782E080930107C3
:103CF000A9CF8AA1882309F598A1992379F0809109
:103D0000840090918500883C910510F018A21BC09A
:103D10008091840090918500059611C08091840067
:103D200090918500069718F4A1E0A8A30CC080919B
:103D3000840090918500059702C08FEF90E09093EA
:103D4000850080938400B2E0AB1611F484E04EC38A
:103D5000E5E0AE1619F41092030774CFFAE0AF163F
:103D600061F482E080930307222009F06BCF08946E
:103D7000611C711C811C911C65CF2FE0A21659F4A7
:103D800039A13F5F39A3383209F05CCF85E08093D9
:103D9000030719A257CF84E1A81609F053CF029B5D
:103DA00013C000D0E6E8F5E0ADB7BEB71296FC93BD
:103DB000EE9311970E941019C49A22242394F1E0E3
:103DC000FAA30F900F903BC02AA1222341F43CA1FB
:103DD000332389F42224CC24DD24760130C08CA145
:103DE000882349F495E1C916D104E104F10430F0C7
:103DF000C4981AA203C0CC24DD2476010894C11C07
:103E0000D11CE11CF11C00D000D000D0EFE8F5E09F
:103E1000ADB7BEB71296FC93EE9311971396CD9261
:103E2000DD92ED92FC9216970E9410192224EDB7B4
:103E3000FEB736960FB6F894FEBF0FBEEDBFF3E3A4
:103E40006F1671048104910410F0222019F42CA142
:103E5000222351F00E9478151092F9061092F8066C
:103E600066247724430104C03DA1332309F4EACE3C
:103E700081E0809303078DA31CA2E4CE80E060E084
:103E80000E94371400D0EBE9F5E0ADB7BEB712964B
:103E9000FC93EE9311970E94D7100F900F9083E040
:103EA00060E00E94371480E797E00E94230A109197
:103EB0007307809174070E94DB052DB73EB72A5027
:103EC00030400FB6F8943EBF0FBE2DBFEDB7FEB722
:103ED000319620EB35E0ADB7BEB712963C932E93EA
:103EE0001197128313829583848380917007868350
:103EF000178280917107808711860E94D71083E016
:103F0000809303078DB79EB70A960FB6F8949EBFAD
:103F10000FBE8DBF97CE832D0E941C0D882309F004
:103F200064C2109303078ECE80910D07882399F009
:103F300010920D070E94850A80E2ADE8B9E01D925B
:103F40008A95E9F7809162008E7F80936200332426
:103F500033941EA254C0332009F451C0BEA1BB301B
:103F600008F44AC080E29FE3A0E2BFE380937807B1
:103F700090937907A0937A07B0937B0780937D078E
:103F800090937E07A0937F07B0938007A2E8B7E0E5
:103F9000E5E6F5E086E001900D928150E1F7A9E8B1
:103FA000B7E0ECE6F5E085E001900D928150E1F795
:103FB000A4E9B7E0ECE6F5E085E001900D928150D0
:103FC000E1F781E390E3A0E3B0E380938F07909360
:103FD0009007A0939107B09392078091620081604F
:103FE000809362008091A8079091A9070196909311
:103FF000A9078093A8073324EEA1EF5FEEA3CE01BB
:104000000A96BE01625F7F4F0E9422096A857B8506
:104010008C859D8543E021E00AE917E00E94862215
:104020006E857F858889998943E021E00FE917E053
:104030000E94862287E00E94EE099093A507809354
:10404000A4078630910530F480E00E94B01526E088
:10405000B22E0FC08035910510F481E006C086397C
:10406000910510F482E001C083E00E94B015BB24EA
:10407000B39400D000D0EDB7FEB7319622EC35E016
:10408000ADB7BEB712963C932E931197B2821382AE
:104090000E9410190F900F900F900F9084E997E0F5
:1040A0000E9411243DE0883493070CF09EC10297D2
:1040B0000CF49BC184EB90E060E070E040E050E0E5
:1040C0000E94E01400D0E0EDF5E0ADB7BEB7129667
:1040D000FC93EE9311970E9410190F900F9085C1D9
:1040E000332029F08EE280937A0780937F07FBA12B
:1040F000FF2339F48AE997E067E777E00E944C12E2
:1041000006C08AE997E067E777E00E94AC110E9459
:10411000F30A83E0809303071BA294CD87B78064E2
:1041200087BF8091F8069091F9068230910509F4D5
:10413000D6C08330910530F4009781F0019709F0E3
:1041400054C1B5C08430910509F409C1843091058A
:1041500008F4E6C0059709F048C11DC10E94D215B8
:104160008FEF90E06B2D70E00E94282280E090E0BD
:1041700040E050E00E94E01480E797E00E94230AAC
:104180008091700790E0BE016F5F7F4F4AE050E082
:104190000E947324809170078A3020F489818A8379
:1041A00080E389838091710790E0BE016C5F7F4F4F
:1041B0004AE050E00E947324809171078A3020F415
:1041C0008C818D8380E38C838091720790E0BE01A7
:1041D000695F7F4F4AE050E00E947324809172072C
:1041E0008A3020F48F81888780E38F8399812A81A8
:1041F0003C814D815F81688588E78A8B8B8B8C8BB6
:104200009D8B2E8B8F8B388F498F8A8F5B8F6C8F16
:104210008D8F8E8F8F8F8E010E5E1F4F9EE0492EE9
:1042200086E0582E4092F706D8018C91883719F015
:104230008093B10902C05092F706F8018181883756
:1042400019F08093B20905C08091F7068B7F8093A7
:10425000F706D80112968C91883719F08093B3092C
:1042600005C08091F7068D7F8093F7061092B40900
:104270001092B50981EB99E060E040E00E9494154E
:1042800088EB9BE0E0E9F1E03197F1F70197D1F796
:104290000F5F1F4FEFA1F8A50E171F0709F0C2CF40
:1042A00081E090E09093F9068093F806CBCC0E94D1
:1042B000D2158FEF90E06B2D70E00E942822AB01A9
:1042C00080E090E060E070E00E94E0148AE997E00E
:1042D00067E340E00E94421682E090E01CC00E942A
:1042E000D2158FEF90E06B2D70E00E942822AB0179
:1042F00080E090E060E070E00E94E0148FE997E0D9
:1043000066E340E00E944216332019F083E090E01B
:1043100002C085E090E09093F9068093F80665C0AE
:104320000E94D2158FEF90E06B2D70E00E94282242
:104330009B0188EC90E06B2D70E00E942822AB017D
:1043400080E090E0B9010E94E01488E797E067E31D
:10435000409177070E94421684E090E0DCCF0E94F3
:10436000D2158FEF90E06B2D70E00E9428229B0108
:1043700088EC90E06B2D70E00E942822AB0180E079
:1043800090E0B9010E94E0148DE797E066E340E019
:104390000E944216BECF0E94D21584E997E00E9487
:1043A0001124FDE088349F0754F4029744F084EB15
:1043B00090E06B2D70E00E942822CB0105C026E022
:1043C000B21629F480E090E060E070E004C081E47F
:1043D00090E06CE070E040E050E00E94E0140E9449
:1043E00086151DA266247724430183E0809303078A
:1043F00029CC80910507882309F024CC80910907F6
:10440000882351F01092090788B7806288BF89B766
:10441000806289BF31E03BA380910A07882351F075
:1044200010920A0788B7806488BF89B7806489BF03
:1044300081E08CA381E05ACC991B79E004C0991FDC
:10444000961708F0961B881F7A95C9F780950895EE
:1044500097FB092E07260AD077FD04D00CD006D092
:1044600000201AF4709561957F4F0895F6F79095A6
:1044700081959F4F0895AA1BBB1B51E107C0AA1F3E
:10448000BB1FA617B70710F0A61BB70B881F991FF5
:104490005A95A9F780959095BC01CD0108952F926A
:1044A0003F924F925F926F927F928F929F92AF92C4
:1044B000BF92CF92DF92EF92FF920F931F93CF9311
:1044C000DF93CDB7DEB7CA1BDB0B0FB6F894DEBFA8
:1044D0000FBECDBF09942A88398848885F846E84CE
:1044E0007D848C849B84AA84B984C884DF80EE8018
:1044F000FD800C811B81AA81B981CE0FD11D0FB621
:10450000F894DEBF0FBECDBFED010895EF92FF928C
:104510000F931F93F22FF02E47FD02C0E4E001C07D
:10452000E4E1242F332727FD309537FF03C0309572
:1045300021953F4F4F2D512F0F2FEE2E0E94952684
:104540008F2D912F1F910F91FF90EF900895CF9392
:10455000DF93BC018230910510F462E070E0A0911D
:10456000B809B091B909ED01E0E0F0E040E050E0B9
:1045700021C0888199818617970769F48A819B8178
:10458000309719F09383828304C09093B909809384
:10459000B809FE0134C06817790738F44115510590
:1045A00019F08417950708F4AC01FE018A819B81FC
:1045B0009C01E9012097E9F641155105A9F1CA01CD
:1045C000861B970B049708F4BA01E0E0F0E02AC0DC
:1045D0008D919C91119784179507F9F464177507CD
:1045E00081F412968D919C911397309719F09383D3
:1045F000828304C09093B9098093B809FD01329673
:104600004FC0CA01861B970BFD01E80FF91F61938C
:10461000719302978D939C9343C0FD018281938196
:104620009C01D9011097A1F68091B6099091B70924
:10463000892B41F48091E4069091E5069093B709A7
:104640008093B6094091E6065091E7064115510561
:1046500041F44DB75EB78091E2069091E306481BA6
:10466000590B2091B6093091B70924173507B0F4DA
:10467000CA01821B930B8617970780F0AB014E5F30
:104680005F4F8417950750F0420F531F5093B7099F
:104690004093B609F9016193719302C0E0E0F0E044
:1046A000CF01DF91CF910895CF93DF93009709F465
:1046B00050C0EC0122971B821A82A091B809B091D8
:1046C000B909109709F140E050E0AC17BD0708F1B7
:1046D000BB83AA83FE0121913191E20FF31FAE1734
:1046E000BF0779F48D919C911197280F391F2E5F88
:1046F0003F4F3983288312968D919C9113979B830A
:104700008A834115510571F4D093B909C093B80952
:1047100020C012968D919C911397AD01009711F0D6
:10472000DC01D3CFFA01D383C28321913191E20F0F
:10473000F31FCE17DF0769F488819981280F391F8D
:104740002E5F3F4FFA01318320838A819B819383BF
:104750008283DF91CF910895A0E0B0E0E2EBF3E235
:104760000C945722EC01A880B980CA80DB80A11488
:10477000B104C104D10441F484E2A82E89EDB82E1D
:104780008BE5C82E87E0D82EC601B5012DE133EFA9
:1047900041E050E00E94FD2B27EA31E440E050E088
:1047A0000E94DE2B7B018C01C601B5012DE133EFA8
:1047B00041E050E00E94FD2BCA01B9012CEE34EF1C
:1047C0004FEF5FEF0E94DE2B6E0D7F1D801F911F4C
:1047D00097FF04C06150704080409048688379839F
:1047E0008A839B839B013F77C901CDB7DEB7EAE09F
:1047F0000C9473220E94AC23089588EE96E00E94E8
:10480000AC230895A0E0B0E08093E8069093E90619
:10481000A093EA06B093EB060895662777270C94D9
:10482000F727FC0188279927E89421912032E9F3A2
:10483000293010F02E30C8F32B3241F02D3239F4EC
:10484000689404C00E949424820F911D21912053EA
:104850002A30C0F31EF4909581959F4F0895FB0177
:10486000DC0102C001900D9241505040D8F70895EC
:10487000FB01DC010D900020E9F7119701900D92EA
:104880000020E1F70895FB01DC0101900D9200206A
:10489000E1F70895FB01DC014150504048F00190E0
:1048A0000D920020C9F701C01D9241505040E0F721
:1048B0000895FB0151915523A9F0BF01DC014D91F1
:1048C00045174111E1F759F4CD010190002049F05D
:1048D0004D9140154111C9F3FB014111EFCF81E02A
:1048E00090E001970895FB019F01E8944230C4F0E5
:1048F0004532B4F44A3029F497FB1EF49095819523
:104900009F4F642F77270E943B22805D8A330CF0F3
:10491000895D8193CB010097A1F716F45DE2519375
:104920001082C9010C94652A7AE0979F902D879F89
:10493000802D910D11240895AEE0B0E0E2EAF4E29A
:104940000C945D228C0186E08C831A8309838FEF9F
:104950009FE79E838D83CE0101960E94B824EF814C
:10496000F885E00FF11F10822E96E4E00C94792276
:10497000ABE0B0E0EEEBF4E20C944F223C012B01F3
:104980005A01FC0117821682838181FD03C06FEFFB
:104990007FEFC6C19AE0892E1E010894211C311CAC
:1049A000F3012381F20123FD859123FF81912F01E2
:1049B000882309F4B2C1853239F423FD859123FFA0
:1049C00081912F01853229F490E0B3010E94752A6C
:1049D000E7CF982FFF24EE249924FFE1FF15D0F0B4
:1049E0009B3269F09C3228F4903259F0933291F462
:1049F0000EC09D3249F0903369F441E024C052E08A
:104A0000F52A84E0F82A28C098E0F92A25C0E0E1D8
:104A1000FE2A22C0F7FC29C0892F80538A3070F407
:104A2000F6FE05C0989C902C1124980E15C0E89CA9
:104A3000E02C1124E80EF0E2FF2A0EC09E3229F489
:104A4000F6FC6BC140E4F42A07C09C3619F450E828
:104A5000F52A02C0983649F4F20123FD959123FF0F
:104A600091912F01992309F0B8CF892F8554833074
:104A700018F08052833038F444E050E0A40EB51EA4
:104A80005FE359830FC0933631F0933779F0933554
:104A900009F056C020C0F5018081898342E050E0D2
:104AA000A40EB51E610101E010E012C0F501C08046
:104AB000D180F6FC03C06FEF7FEF02C0692D70E07C
:104AC00042E050E0A40EB51EC6010E945A2A8C0195
:104AD0005FE7F52214C0F501C080D180F6FC03C069
:104AE0006FEF7FEF02C0692D70E042E050E0A40E4E
:104AF000B51EC6010E944F2A8C0150E8F52AF3FE2C
:104B000007C01AC080E290E0B3010E94752AEA94BF
:104B10008E2D90E008171907A8F30EC0F601F7FCD8
:104B20008591F7FE81916F0190E0B3010E94752A93
:104B3000E110EA94015010400115110579F7EAC01F
:104B4000943611F0993669F5F7FE08C0F501208119
:104B500031814281538184E090E00AC0F501808177
:104B600091819C01442737FD4095542F82E090E0CD
:104B7000A80EB91E9FE6F92257FF09C0509540952F
:104B8000309521953F4F4F4F5F4FE0E8FE2ACA0115
:104B9000B901A1012AE030E00E94A12AD82ED21842
:104BA00040C0953729F41F2D1F7E2AE030E01DC03C
:104BB0001F2D197F9F3661F0903720F4983509F04A
:104BC000ACC00FC0903739F0983709F0A6C004C0C8
:104BD00028E030E00AC0106114FD146020E130E0EC
:104BE00004C014FD166020E132E017FF08C0F50193
:104BF000608171818281938144E050E008C0F501B9
:104C000080819181BC0180E090E042E050E0A40E00
:104C1000B51EA1010E94A12AD82ED2188FE7F82E26
:104C2000F122F6FE0BC05EEFF522D91438F4F4FE43
:104C300007C0F2FC05C08FEEF82202C01D2D01C096
:104C4000192DF4FE0DC0FE01ED0DF11D80818033A4
:104C500019F499EEF92208C01F5FF2FE05C003C0E7
:104C60008F2D867809F01F5F0F2DF3FC14C0F0FE26
:104C70000FC01E1510F09D2C0BC09D2C9E0C911A80
:104C80001E2D06C080E290E0B3010E94752A1F5FCE
:104C90001E15C0F304C01E1510F4E11A01C0EE2465
:104CA00004FF0FC080E390E0B3010E94752A02FF69
:104CB0001DC001FD03C088E790E00EC088E590E0CC
:104CC0000BC0802F867891F001FF02C08BE201C0FB
:104CD00080E2F7FC8DE290E0B3010E94752A06C0E5
:104CE00080E390E0B3010E94752A9A94D914C0F32E
:104CF000DA94F101ED0DF11D808190E0B3010E9485
:104D0000752ADD20A9F706C080E290E0B3010E9479
:104D1000752AEA94EE20C1F743CEF30166817781CC
:104D2000CB012B96E2E10C946B22A9E0B0E0EBE919
:104D3000F6E20C9453226A01122FA02EBE2C2BE314
:104D4000201718F42CE3922E02C0902E9394AE01FB
:104D50004F5F5F4F27E0092D0E945729BC018981D1
:104D6000E82EFF24C70189709070019711F4ADE21D
:104D700009C0B1FE02C0ABE205C0B0FC02C0A0E0B9
:104D800001C0A0E2E3FE3BC0AA2311F423E001C06E
:104D900024E0211710F020E002C0121B212FEB2C81
:104DA000B4FE02C0322F0AC0F601322F80E202C0E8
:104DB000819331503323E1F7C20ED11CAA2319F09D
:104DC000F601A1936F01F6013196E2FE05C09EE463
:104DD000D6019C9381E404C09EE6D6019C9381E6B3
:104DE00011968C9391833296DF01832F90E202C05B
:104DF0009D9381508823E1F7E30FF11D40C0E2FE4F
:104E000042C0AA2311F423E001C024E0211710F0CE
:104E100020E002C0121B212FEB2CB4FE02C0922F07
:104E20000AC0F601922F80E202C08193915099232B
:104E3000E1F7C20ED11CAA2319F0F601A1936F016C
:104E4000F6013196E2FE08C089E4D6018C938EE427
:104E500011968C9386E407C089E6D6018C938EE682
:104E600011968C9386E681833296DF01892F20E2AA
:104E700002C02D9381508823E1F7E90FF11D1082C4
:104E80002EEF3FEFAFC0161617061CF041E050E0C2
:104E900003C0AB014F5F5F4FAA2019F480E090E0A0
:104EA00003C08A2D90E0019620E030E0AA2311F0A3
:104EB00021E030E0240F351F280F391F812F90E0AB
:104EC0002817390714F020E002C0121B212F4B2DA8
:104ED00050E0CA0180719070B4FC0DC0B3FC0BC0EF
:104EE000F601322F40E202C0419331503323E1F703
:104EF000C20ED11C01C0322FAA2319F0F601A193D2
:104F00006F01892B11F0132F0AC0F601132F80E3D4
:104F100002C0819311501123E1F7C30ED11C092D5A
:104F2000060FBA8090E1892E912C8E209F20E4FEFE
:104F300004C0F1E3BF1609F40150101614F001E0AB
:104F400003C0093008F008E09B0177FF02C020E0B1
:104F500030E0CB010196821B930BFE013196E80FE6
:104F6000F91F8EE2F82E3B01601A71088A2D90E03D
:104F700044275527481B590B8FEF2F3F380719F44B
:104F8000D601FD926D01621773072CF0621673064D
:104F900014F4808101C080E3215030403196241701
:104FA000350724F0D6018D936D01E6CF261737071C
:104FB00049F4B5E3BB1528F0BB1621F48114910424
:104FC00009F481E3F6018193D601812F90E202C0BA
:104FD0009C93815011968823D9F7E10FF11D10821F
:104FE00020E030E0C9012996EEE00C946F22A0E0A9
:104FF000B0E0EDEFF7E20C945522EC015B01611596
:10500000710519F0FB0191838083F9908F2D90E059
:105010000E942F2A892BC9F7FDE2FF1621F4F9908F
:10502000EE24E39405C02BE2F21609F4F990EE2485
:105030008E0101501040C8016CE872E043E050E07E
:105040000E94372A892B01F58E010E5F1F4FC80180
:105050006FE872E045E050E00E94372A892B19F48E
:105060008E01095F1F4FA114B10419F0F5011183DE
:105070000083E0FC04C070E090E080E814C070E0C1
:1050800090E080E86FEF08C1C80164E972E043E096
:1050900050E00E94372A892B69F4A114B10429F445
:1050A00070E090E080EC6FE7F7C02296F501D183C5
:1050B000C083F6CF8824992440E050E060E070E09F
:1050C000EF2DE053EA30A0F5F2E0EF2A8E2D90E0CC
:1050D0009C0128703070E2FE06C0232B79F50894FD
:1050E000811C911C2BC0232B19F008948108910876
:1050F000DB01CA0112E0880F991FAA1FBB1F1A9576
:10510000D1F7480F591F6A1F7B1F440F551F661F99
:10511000771F4E0F511D611D711D483929E9520736
:1051200029E9620729E1720748F084E0E82A06C00D
:10513000EE3F31F4E3FC39C098E0E92AF990C0CFA2
:10514000E53311F0E53189F529912D3219F4E0E1CB
:10515000EE2A05C02B3219F081E090E003C02991BE
:1051600082E090E0E22FE053EA3018F0C81BD90B40
:105170001CC020E030E0FCE020383F075CF4C901AF
:10518000880F991F880F991F280F391F220F331F6F
:105190002E0F311DE991E053EA3068F3E4FE03C0BD
:1051A000309521953F4F820E931ECE2CDD24E1FEDB
:1051B00007C0A114B10421F02197F501D183C08368
:1051C000CB01BA010E94DC027B018C01F3E0CF220B
:1051D000DD2423E0C216D10421F417FB109517F942
:1051E000109557016801C801B70120E030E040E0A8
:1051F00050E00E94FF2A882309F44AC097FE0DC0A0
:105200002BEAE22E22E0F22E90948194910893945E
:10521000C0E2D0E000E010E012C093ECE92E92E092
:10522000F92EF6CFF7012591359145915491C6019C
:10523000B5010E94272B5B016C018C1A9D0A8C160C
:105240009D0684F7D595C7950F5F1F4F0630110552
:1052500029F08CEF9FEFE80EF91EF1CFC501D601C2
:105260007C018D018C2D880F8D2D881F8F3F51F073
:10527000C601B50120E030E040E050E00E94FF2A86
:10528000882331F482E290E09093BB098093BA09BD
:105290007E2D9F2D802F612F272F392F482F562F9E
:1052A000B901CA01CDB7DEB7ECE00C947122283009
:1052B00008F027E03327DA01990F311D87FD91604F
:1052C00000966105710539F432602E5F3D9330E33D
:1052D0002A95E1F708959F3F30F080387105610508
:1052E00009F03C5F3C5F3D93913008F08068911D70
:1052F000DF93CF931F930F93FF92EF92192F987F15
:105300009695E92F96959695E90FFF27EF5DFC4F4F
:1053100099273327EE24FF24A701E701059008947D
:10532000079428F4360FE71EF81E491F511D660F1B
:10533000771F881F991F0694A1F70590079428F4FA
:10534000E70EF81E491F561FC11D770F881F991FB2
:10535000661F0694A1F70590079428F4F80E491FDC
:10536000561FC71FD11D880F991F661F771F0694F0
:10537000A1F70590079420F4490F561FC71FD81FA7
:10538000990F661F771F881F0694A9F784911095BF
:10539000177041F0D695C79557954795F794E794C0
:1053A0001A95C1F7E7ECF2E06894159015913591E4
:1053B0006591959105907FE27395E118F10A430B91
:1053C000560BC90BD009C0F7E10CF11E431F561F45
:1053D000C91FD01D7EF4703311F48A95E6CFE8948E
:1053E000015030F0080F0AF40027021708F4202FAC
:1053F0002395022F7A3328F079E37D932A95E9F7F4
:1054000010C07D932A9589F60694979567953795F0
:1054100017951794E118F10A430B560BC90BD009E5
:1054200098F023957E9173957A3308F070E37C931E
:105430002013B8F77E9170617D9330F0839571E30E
:105440007D9370E32A95E1F71124EF90FF900F917F
:105450001F91CF91DF91992787FD90950895911124
:1054600059C1803219F089508550D0F70895FB0159
:10547000DC014150504088F08D9181341CF08B3517
:105480000CF4805E659161341CF06B350CF4605E49
:10549000861B611171F3990B0895881BFCCFFC01E9
:1054A0000590615070400110D8F7809590958E0F4F
:1054B0009F1F0895FC016150704001900110D8F7C2
:1054C000809590958E0F9F1F0895DC01FC01672F3A
:1054D00071917723E1F7329704C07C916D937083CB
:1054E0006291AE17BF07C8F308950F931F93CF9330
:1054F000DF938C01EB018B8181FF1BC082FF0DC00C
:105500002E813F818C819D812817390764F4E881C1
:10551000F9810193F983E88306C0E885F985802F36
:105520000995892B31F48E819F8101969F838E830B
:1055300002C00FEF1FEFC801DF91CF911F910F91B4
:105540000895FA01AA27283051F1203181F1E89419
:105550006F936E7F6E5F7F4F8F4F9F4FAF4FB1E066
:105560003ED0B4E03CD0670F781F891F9A1FA11D61
:10557000680F791F8A1F911DA11D6A0F711D811D62
:10558000911DA11D20D009F468943F912AE0269F27
:1055900011243019305D3193DEF6CF010895462F86
:1055A0004770405D4193B3E00FD0C9F7F6CF462F67
:1055B0004F70405D4A3318F0495D31FD40524193D0
:1055C00002D0A9F7EACFB4E0A6959795879577958D
:1055D0006795BA95C9F700976105710508959B0114
:1055E000AC010A2E06945795479537952795BA959D
:1055F000C9F7620F731F841F951FA01D089503D064
:1056000008F481E00895990F0008550FAA0BE0E80F
:10561000FEEF16161706E807F907C0F01216130674
:10562000E407F50798F0621B730B840B950B39F4B4
:105630000A2661F0232B242B252B21F408950A261A
:1056400009F4A140A6958FEF811D811D08950BD00F
:105650007BC06CD028F071D018F0952309F05DC0A4
:1056600062C01124A5C081D0A0F3959FD1F3950FFE
:1056700050E0551F629FF001729FBB27F00DB11DD6
:10568000639FAA27F00DB11DAA1F649F6627B00D66
:10569000A11D661F829F2227B00DA11D621F739F4F
:1056A000B00DA11D621F839FA00D611D221F749F5D
:1056B0003327A00D611D231F849F600D211D822FA4
:1056C000762F6A2F11249F5750408AF0E1F08823EB
:1056D0004AF0EE0FFF1FBB1F661F771F881F9150F8
:1056E0005040A9F79E3F510570F017C061C05F3F61
:1056F000ECF3983EDCF3869577956795B795F7952B
:10570000E7959F5FC1F7FE2B880F911D96958795B2
:1057100097F9089599278827089597F99F6780E852
:1057200070E060E008959FEF80EC089500240A94F3
:105730001616170618060906089500240A9412166C
:105740001306140605060895092E0394000C11F49F
:10575000882352F0BB0F40F4BF2B11F460FF04C04C
:105760006F5F7F4F8F4F9F4F089557FD9058440FA5
:10577000551F59F05F3F71F04795880F97FB991FB0
:1057800061F09F3F79F0879508951216130614066D
:10579000551FF2CF4695F1DF08C0161617061806FA
:1057A000991FF1CF86957105610508940895E894D5
:1057B000BB2766277727CB0197F90895629FD00111
:1057C000739FF001829FE00DF11D649FE00DF11DBC
:1057D000929FF00D839FF00D749FF00D659FF00D6B
:1057E0009927729FB00DE11DF91F639FB00DE11D58
:1057F000F91FBD01CF011124089597FB092E05263D
:105800000ED057FD04D014D00AD0001C38F45095A7
:105810004095309521953F4F4F4F5F4F0895F6F7D4
:1058200090958095709561957F4F8F4F9F4F08950C
:10583000A1E21A2EAA1BBB1BFD010DC0AA1FBB1F94
:10584000EE1FFF1FA217B307E407F50720F0A21B06
:10585000B30BE40BF50B661F771F881F991F1A9473
:1058600069F760957095809590959B01AC01BD019D
:08587000CF010895F894FFCF69
:105878004D6F6E0054756500576564005468750077
:10588800467269005361740053756E004A616E0078
:10589800466562004D617200417072004D61790089
:1058A8004A756E65004A756C7900417567005365E5
:1058B8007074004F6374004E6F7600446563000A8D
:1058C80049324320646F6E652C2000726561642C38
:1058D80020007772697465000A52414D20256400E2
:1058E80041542B43574A41503D2250616C486F6DDB
:1058F800655F31222C2267657262696369632200E1
:105908004F4B000A526F75746572204F4B000A5254
:105918006F75746572204572726F72000A000A739F
:1059280065713A202564000A74656D703A25730024
:105938000A68756D3A2573000A6574656D703A25B5
:1059480073000A6568756D3A2573000A657072659B
:10595800733A2573000A656C75783A2573000A65F1
:105968007261696E3A2564000A4578745F626174F1
:10597800743A202564000A4C44523A202564000AEF
:105988004974696D650041542B4349504E54503D4C
:10599800320041542B4349504E54503F0025640077
:1059A800474D54000A2025730054696D653A000A72
:1059B80054696D6520676F74212025642025642053
:1059C8002564202564202564202564000A5420616C
:1059D800667465722073796E632025643A25643A8B
:1059E80025642025642025642025640041542B4328
:1059F800495053544152543D22544350222C2200C2
:105A08003138342E3130362E3135332E3134390099
:105A1800222C3830000A57454220434F4E4E00474B
:105A28004554202F7570646174653F6B65793D50EE
:105A380050445946534A4730444357584A5637000A
:105A4800266669656C64313D00266669656C64325A
:105A58003D00266669656C64333D00266669656CA1
:105A680064343D00266669656C64353D00266669C8
:105A7800656C64363D00266669656C64373D0026B2
:105A88006669656C64383D000D0A0041542B434932
:105A98005053454E443D003E00434C4F534544004F
:105AA80041542B434950434C4F5345000A25640049
:105AB80020202020202020202020202020202020DE
:105AC80020202020002573004578742042617474DA
