:100000000C94E1010C94FE010C943F1A0C94FE0137
:100010000C94FE010C94FE010C94DF190C94F7195A
:100020000C943A1B0C94FE010C94741A0C94FE016F
:100030000C94FE010C94FE010C94FE010C94FE0144
:100040000C94FE010C94FE010C94BC1A0C94FE015D
:100050000C94FE010C94FE010C94FE010C94FE0124
:100060000C94FE010C94FE010C94FE010C94FE0114
:100070000C94FE010C94FE010C94FD1A0C94FE01EC
:100080000C94D0190C94FE010C94FE0100000000A9
:100090000000000000000000000000000000000060
:1000A0000100010001000100010001000100010048
:1000B0000100010001000100010001000100020037
:1000C0000200020002000200020002000200020020
:1000D0000300030003000300030003000400040006
:1000E00004000400040005000500050005000600EA
:1000F00006000600070007000700080008000800C7
:10010000090009000A000A000B000B000C000C009B
:100110000D000D000E000F000F0010001100110067
:100120001200130014001500160017001800190023
:100130001A001B001C001D001F00200021002300CE
:1001400024002600270029002B002C002E00300060
:1001500032003400360038003A003C003E004000D7
:100160004300450047004A004C004F005100540036
:10017000570059005C005F006200640067006A007D
:100180006D0070007300760079007C007F008200B3
:10019000850088008B008E009100940097009A00E3
:1001A0009C009F00A200A500A700AA00AD00AF0020
:1001B000B200B400B700B900BB00BE00C000C2006E
:1001C000C400C600C800CA00CC00CE00D000D200D7
:1001D000D300D500D700D800DA00DB00DD00DE0058
:1001E000DF00E100E200E300E400E500E600E700F4
:1001F000E800E900EA00EB00EC00ED00ED00EE00A5
:10020000EF00EF00F000F100F100F200F200F30067
:10021000F300F400F400F500F500F600F600F60037
:10022000F700F700F700F800F800F800F900F9000F
:10023000F900F900FA00FA00FA00FA00FA00FB00EF
:10024000FB00FB00FB00FB00FB00FC00FC00FC00D3
:10025000FC00FC00FC00FC00FC00FC00FD00FD00BC
:10026000FD00FD00FD00FD00FD00FD00FD00FD00A6
:10027000FD00FD00FD00FD00FD00FE00FE00FE0093
:10028000FE00FE00FE00FE00FF00FF00494E464952
:100290004E4954594E414ECDCCCC3D0AD7233C1744
:1002A000B7D13877CC2B329595E6241FB14F0A0091
:1002B0000020410000C84200401C4620BCBE4CCA81
:1002C0001B0E5AAEC59D7400407A10F35A00A072FE
:1002D0004E18090010A5D4E80000E8764817000081
:1002E000E40B54020000CA9A3B000000E1F505004F
:1002F0000080969800000040420F000000A0860198
:10030000000000102700000000E803000000006467
:1003100000000000000A00000000000100000000D2
:10032000002C76D888DC674F0823DFC1DFAE59E1A7
:10033000B1B796E5E3E453C63AE651997696E8E616
:10034000C28426EB898C9B62ED407C6FFCEFBC9CE9
:100350009F40F2BAA56FA5F490055A2AF75C936BFB
:100360006CF9676DC11BFCE0E40D47FEF520E6B5B6
:1003700000D0ED902E0300943577050080841E0890
:100380000000204E0A000000C80C333333330F98AE
:100390006E12831141EF8D2114893BE65516CFFE75
:1003A000E6DB18D1844B381BF77C1D901DA4BBE401
:1003B00024203284725E228100C9F124ECA1E53D43
:1003C000270011241FBECFEFD0E1DEBFCDBF17E065
:1003D000A0E0B1E0E0EBF8E502C005900D92AA3193
:1003E000B107D9F719E0AAE1B7E001C01D92AF3D0E
:1003F000B107E1F70E946D1B0C94562C0C940F1A58
:10040000A8E1B0E0E6E0F2E00C94732269837A831D
:100410008B839C832D833E834F835887B9E0EB2EDB
:10042000F12CEC0EFD1ECE010196B7010E9479045D
:100430008E010F5E1F4FCE010596B8010E94790410
:100440002985223008F47EC03989323010F4B80191
:100450007CC08A859A8989278A87243011F02230C6
:1004600031F4231709F06EC068EF75E06EC03430C8
:1004700039F41D861E861F86188A1C861B8604C0BA
:10048000323021F484E08987B7015FC02B853C8539
:100490008B899C89281B390B3C872B87ED84FE8434
:1004A0000F851889AD88BE88CF88D88CEA14FB04E4
:1004B0000C051D0540F4EE0CFF1C001F111F215000
:1004C00030403C872B8720E030E040E050E080E087
:1004D00090E0A0E0B0E460E070E0EA14FB040C05FA
:1004E0001D0540F0282B392B4A2B5B2BEA18FB0803
:1004F0000C091D09B695A79597958795EE0CFF1CDD
:10050000001F111F6F5F7F4F6F31710531F7DA01E7
:10051000C9018F779070A070B07080349105A105EB
:10052000B10561F427FD0AC0E114F10401051105CC
:1005300029F0205C3F4F4F4F5F4F20782D873E873B
:100540004F87588BBE01675F7F4FCB010E94A4038A
:100550006896EAE00C948F22A8E1B0E0E2EBF2E0CA
:100560000C94772269837A838B839C832D833E83CB
:100570004F83588789E0E82EF12CEC0EFD1ECE014A
:100580000196B7010E9479048E010F5E1F4FCE01C4
:100590000596B8010E9479048985823040F08989E6
:1005A000823028F0C701B8010E94F10401C08FEF2A
:1005B0006896E6E00C949322A8E0B0E0E2EEF2E068
:1005C0000C9473227B018C016115710581059105E5
:1005D00019F482E0898360C083E089838EE1C82EAC
:1005E000D12CDC82CB82ED82FE820F831887C8017A
:1005F000B7010E945503FC013197F7FF3BC022274A
:1006000033272E1B3F0B57016801022E04C0D694DE
:10061000C794B794A7940A94D2F740E050E060E002
:1006200070E081E090E0A0E0B0E004C0880F991F86
:10063000AA1FBB1F2A95D2F70197A109B1098E21E4
:100640009F21A023B1230097A105B10521F041E02E
:1006500050E060E070E04A295B296C297D294D83D8
:100660005E836F8378878EE190E08E1B9F0B9C8367
:100670008B8312C0309781F00E2E04C0EE0CFF1C4D
:10068000001F111F0A94D2F7ED82FE820F83188794
:10069000CE1ADF0ADC82CB821A82CE0101960E943A
:1006A000A4032896EAE00C948F22EF92FF920F9316
:1006B0001F937B018C0180E0E81680E0F80681E062
:1006C000080780E0180788F48FEFE816F1040105A9
:1006D000110531F028F088E090E0A0E0B0E017C00C
:1006E00080E090E0A0E0B0E012C080E0E81680E09A
:1006F000F80680E0080781E0180728F088E190E01C
:10070000A0E0B0E004C080E190E0A0E0B0E020E232
:1007100030E040E050E0281B390B4A0B5B0B04C073
:1007200016950795F794E7948A95D2F7F701E0506C
:10073000FA4F8081281B310941095109C9011F91D4
:100740000F91FF90EF900895DF92EF92FF920F9339
:100750001F93FC01E480F58006811781D1808081A0
:10076000823048F480E090E0A0E1B0E0E82AF92A85
:100770000A2B1B2BA5C0843009F49FC0823021F4C2
:10078000EE24FF24870105C0E114F10401051105E1
:1007900019F4E0E0F0E096C0628173819FEF623867
:1007A00079070CF05BC022E83FEF261B370B2A319C
:1007B00031052CF020E030E040E050E02AC0B801E4
:1007C000A701022E04C076956795579547950A9420
:1007D000D2F781E090E0A0E0B0E004C0880F991F5C
:1007E000AA1FBB1F2A95D2F70197A109B1098E2133
:1007F0009F21A023B1230097A105B10521F081E03D
:1008000090E0A0E0B0E09A01AB01282B392B4A2BF5
:100810005B2BDA01C9018F779070A070B0708034C3
:100820009105A105B10539F427FF09C0205C3F4FB0
:100830004F4F5F4F04C0215C3F4F4F4F5F4FE0E091
:10084000F0E02030A0E03A07A0E04A07A0E45A0711
:1008500010F0E1E0F0E079018A0127C0603871050D
:1008600064F5FB01E158FF4FD801C7018F77907005
:10087000A070B07080349105A105B10539F4E7FE90
:100880000DC080E490E0A0E0B0E004C08FE390E011
:10089000A0E0B0E0E80EF91E0A1F1B1F17FF05C0FD
:1008A00016950795F794E794319687E01695079586
:1008B000F794E7948A95D1F705C0EE24FF248701C9
:1008C000EFEFF0E06E2F679566276795902F9F7783
:1008D000D794DD24D7948E2F8695492F462B582FF9
:1008E0005D29B701CA011F910F91FF90EF90DF9032
:1008F0000895FC01DB01408151812281622F6F77D5
:1009000070E0221F2227221F9381892F880F822BBC
:10091000282F30E0991F9927991F11969C931197C2
:1009200021153105A9F5411551056105710511F430
:1009300082E037C082E89FEF13969C938E931297C4
:100940009A01AB0167E0220F331F441F551F6A95C0
:10095000D1F783E08C930DC0220F331F441F551F26
:1009600012968D919C911397019713969C938E9359
:100970001297203080E0380780E0480780E458076D
:1009800058F314962D933D934D935C9317970895C8
:100990002F3F310579F4411551056105710519F4B1
:1009A00084E08C93089564FF03C081E08C9312C0AF
:1009B0001C9210C02F57304013963C932E931297E1
:1009C00083E08C9387E0440F551F661F771F8A953D
:1009D000D1F7706414964D935D936D937C93179744
:1009E00008951F93DC01FB019C91923008F447C0ED
:1009F0008081823008F443C0943051F411961C91E8
:100A0000843099F58181682F70E0611B71093FC0C6
:100A1000843021F0923031F48230B9F18181882321
:100A200089F12DC011961C9111978230F1F08181CE
:100A30001817D9F412962D913C91139782819381C6
:100A40008217930794F028173907BCF014968D91FC
:100A50009D910D90BC91A02D2481358146815781B7
:100A6000281739074A075B0718F4112341F00AC019
:100A700082179307A407B50740F4112319F061E02A
:100A800070E005C06FEF7FEF02C060E070E0CB0167
:100A90001F91089582E080937000E1E7F0E080818B
:100AA00083608083E4E7F0E0808184608083089540
:100AB000E4E7F0E080818B7F8083089584EA80936F
:100AC00074008091740087FFFCCF089584E98093BF
:100AD00074008091740084FDFCCF089580937300AE
:100AE00084E8809374008091740087FFFCCF80912C
:100AF0007100887F883159F080917100887F883239
:100B000031F08091710090E0887F803409F491E0A9
:100B1000892F0895FC01662321F080917400806480
:100B200003C0809174008F7B809374008091740067
:100B30008068809374008091740087FFFCCF80915F
:100B40007100887F883539F080917100887F803509
:100B500011F080E0089580917300808381E0089512
:100B60008430E1F0853038F4823091F0833098F4AD
:100B7000813059F407C08630B9F0863090F0873064
:100B800021F415C020E031E014C020E030E011C0B5
:100B900024E031E00EC028E031E00BC02CE031E071
:100BA00008C020E131E005C024E131E002C028E1C5
:100BB00031E0C9010895863091F1873070F48330B7
:100BC00029F1843028F48130C1F08230C9F41BC08F
:100BD0008430F9F08530A1F41FC0893049F18A30A2
:100BE00028F48730F9F0883059F41FC08B3031F188
:100BF0008B3008F18C3021F424C02CE131E023C08B
:100C000020E030E020C020E231E01DC024E231E0ED
:100C10001AC028E231E017C02CE231E014C020E312
:100C200031E011C025E331E00EC02AE331E00BC012
:100C30002EE331E008C023E431E005C027E431E0D1
:100C400002C02BE431E0C9010895DF92EF92FF92D8
:100C50000F931F93DF93CF930F92CDB7DEB78C0125
:100C600080E07E010894E11CF11CB7010E94660936
:100C7000882309F44FC0F80113868DE4828780E24F
:100C800080878981282F2F70205D278390E08077CF
:100C9000907064E0959587956A95E1F7805D86830D
:100CA0005AE3D52ED58281E0B7010E9466098823D8
:100CB00089F18981282F2F70205DF801248390E02D
:100CC0008077907044E0959587954A95E1F7805D2F
:100CD0008383D28282E0B7010E9466098823D1F023
:100CE0002981822F8F70805DF801818330E0C901F6
:100CF0008071907034E0959587953A95E1F7805D25
:100D0000808325FF02C080E502C081E4F80181876D
:100D100081E001C080E00F90CF91DF911F910F9192
:100D2000FF90EF90DF900895DF93CF930F92CDB7B0
:100D3000DEB782E0BE016F5F7F4F0E946609898146
:100D4000829582700F90CF91DF910895DF93CF93BA
:100D50000F92CDB7DEB786E0BE016F5F7F4F0E9476
:100D6000660989810F90CF91DF910895DF93CF932A
:100D70000F92CDB7DEB785E0BE016F5F7F4F0E9457
:100D800066098981282F30E020713070F4E03595B4
:100D90002795FA95E1F7A901E3E0440F551FEA957D
:100DA000E1F7220F331F420F531F8F70840F0F90F4
:100DB000CF91DF910895DF93CF930F92CDB7DEB738
:100DC00084E0BE016F5F7F4F0E9466098981282FF2
:100DD00030E02073307094E0359527959A95E1F7CF
:100DE000A901B3E0440F551FBA95E1F7220F331F55
:100DF000420F531F8F70840F0F90CF91DF91089592
:100E0000DF93CF930F92CDB7DEB782E0BE016F5F65
:100E10007F4F0E9466098981282F30E0207330704F
:100E2000E4E035952795EA95E1F7A90173E0440FD1
:100E3000551F7A95E1F7220F331F420F531F8F7012
:100E4000840F0F90CF91DF910895DF93CF930F928E
:100E5000CDB7DEB781E0BE016F5F7F4F0E946609AC
:100E60008981282F30E020773070B4E035952795C0
:100E7000BA95E1F7A901A3E0440F551FAA95E1F740
:100E8000220F331F420F531F8F70840F0F90CF918B
:100E9000DF910895DF93CF930F92CDB7DEB780E057
:100EA000BE016F5F7F4F0E9466098981282F30E065
:100EB0002077307074E0359527957A95E1F7A90190
:100EC00063E0440F551F6A95E1F7220F331F420F6D
:100ED000531F8F70840F0F90CF91DF9108951F9350
:100EE000DF93CF930F92CDB7DEB7182F82E0BE010C
:100EF0006F5F7F4F0E9466098981112311F0806224
:100F000001C08F7D898382E069810E944909811136
:100F100081E00F90CF91DF911F910895282F6AE013
:100F20000E943822482F50E0E4E0440F551FEA9514
:100F3000E1F7822F0E943822942B86E0692F0E94CD
:100F40004909811181E00895382F6AE00E94382212
:100F5000282F22952071832F0E943822292B85E08B
:100F6000622F0E944909811181E00895382F6AE0BB
:100F70000E943822282F22952073832F0E94382226
:100F8000292B84E0622F0E944909811181E0089594
:100F9000382F6AE00E943822282F22952073832F51
:100FA0000E943822292B82E0622F0E944909811178
:100FB00081E00895382F6AE00E943822282F229578
:100FC0002077832F0E943822292B81E0622F0E94F4
:100FD0004909811181E00895382F6AE00E94382282
:100FE000282F22952077832F0E943822292B80E0FA
:100FF000622F0E944909811181E008950F931F9388
:10100000DF93CF930F92CDB7DEB70E944A0500D091
:101010008FE491E0EDB7FEB7928381830E9420199F
:101020000F900F9080E08E010F5F1F4FB8010E945C
:1010300066098823E1F000D08BE591E0EDB7FEB7BB
:10104000928381830E94201989818F7789830F90F1
:101050000F9082E0B8010E946609882341F06981FF
:1010600082E00E944909882319F081E001C080E0F4
:101070000F90CF91DF911F910F910895CF92DF9242
:10108000EF92FF920F931F93DF93CF9300D000D086
:101090000F92CDB7DEB77C016B01FE01319685E082
:1010A000DF011D928A95E9F7129A1A9A88EE93E069
:1010B00020E931E0F9013197F1F70197D9F71A9852
:1010C00080ED97E00197F1F71A9A129885ED8A95CD
:1010D000F1F70A9998C020E431E0C9010197F1F7CE
:1010E0000A9B91C0C9010197F1F7FE01319650EAC0
:1010F000A1E0B0E0BE016A5F7F4F2AC00196893C43
:10110000910519F480C080E090E00A9BF7CF852F0D
:101110008A95F1F70A9B08C0CD01022E02C0880F04
:10112000991F0A94E2F7482B80E090E005C00196F1
:10113000893C910509F467C00A99F9CF21503040E4
:101140008FEF2F3F3807F9F64193E617F70721F0A5
:1011500040E027E030E0D7CF129A1A9A88EE93E069
:1011600020E931E0F9013197F1F70197D9F71981B9
:101170000A812B816C81802F810F820F860F9D81C8
:10118000891709F040C0922F80E070E0682B792B1E
:1011900077FF12C07F7780E090E00E94DC0220E0C1
:1011A00030E040E251EC0E940002D7016D937D9344
:1011B0008D939C9313970FC080E090E00E94DC0217
:1011C00020E030E040E251E40E940002F701608339
:1011D000718382839383712F60E0202F30E0622B34
:1011E000732B80E090E00E94DC0220E030E040E2DF
:1011F00051E40E940002D6016D937D938D939C93E0
:10120000139780E001C08FEF0F900F900F900F9019
:101210000F90CF91DF911F910F91FF90EF90DF9092
:10122000CF9008950E943E080895DF93CF9300D099
:1012300000D0CDB7DEB7BC0180E090E0A0E0B0E028
:1012400089839A83AB83BC83CE0101960E943E08BA
:101250000F900F900F900F90CF91DF910895DF9333
:10126000CF9300D000D0CDB7DEB720E030E040E033
:1012700050E029833A834B835C83BE016F5F7F4FCD
:101280000E943E080F900F900F900F90CF91DF912A
:1012900008950F931F93182F062F0E945E0580ED6F
:1012A0000E946E05882371F0812F0E946E058823AD
:1012B00049F0802F0E946E05882321F00E94660568
:1012C00081E001C080E01F910F9108951F93CF939B
:1012D000DF93182FEB010E945E0580ED0E946E05E2
:1012E0008823B1F0812F0E946E05882389F00E9427
:1012F0005E0581ED0E946E05882351F0CE0160E00D
:101300000E948A05882321F00E94660581E001C0C1
:1013100080E0DF91CF911F910895D79A149A87B3F7
:10132000806F87BB81B3806681BBE1E6F0E080819E
:1013300083618083089585B5846085BD85E591E0EE
:101340009093810080938000EBE8F0E080818362DD
:101350008083EAE8F0E080818C60808308958FB517
:10136000896A8FBD8EB58A608EBD089583B7896600
:1013700083BF0895FC0120E090E03AE007C0939F0E
:10138000802D112491919053980F2F5F2617B8F359
:10139000892F0895DC01FC0105C08C93803209F08F
:1013A0001196319680818823C1F71C92089587B1E8
:1013B000806687B986B1836086B9379A089597B1F8
:1013C000907F982B97B9369A3699FECF369A3699F0
:1013D000FECF85B190E00895DF93CF9300D0CDB7D5
:1013E000DEB78091D9099091DA09009711F09C013C
:1013F00002C02FED39E000D000D082E691E0EDB7D9
:10140000FEB792838183CE010196821B930B948356
:1014100083830E9420190F900F900F900F900F90D0
:101420000F90CF91DF9108950F931F938C010E942D
:101430004A07F80182830E942507F80181830E94F0
:101440000007F80180830E94DB06F80183830E9475
:10145000B606F80184830E94A60690E04496F8013F
:10146000968385831F910F9108950F931F93DF93A8
:10147000CF93CDB7DEB7E2970FB6F894DEBF0FBEBD
:10148000CDBF8E010F5F1F4FC8016AE671E00E9459
:101490005F24C8010E941B198AE891E06AE570E0A8
:1014A0000E945519882359F000D08DE891E0EDB7DE
:1014B000FEB7928381830E94201981E00AC000D088
:1014C00088E991E0EDB7FEB7928381830E942019ED
:1014D00080E00F900F90E2960FB6F894DEBF0FBE3B
:1014E000CDBFCF91DF911F910F910895A3E3B7E096
:1014F000E0EBF9E080E201900D928150E1F78091FC
:101500003407813009F05CC08091360780939A07D8
:101510008091370790913807A0913907B0913A0729
:1015200080939B0790939C07A0939D07B0939E0781
:1015300080913B0790913C07A0913D07B0913E07F9
:101540008093A0079093A107A093A207B093A3074D
:10155000A5EAB7E0EFE3F7E086E001900D92815055
:10156000E1F78091A9078093AA078EE28093A907EB
:101570001092AB07ACEAB7E0E5E4F7E085E0019054
:101580000D928150E1F780914A0790914B07A0910D
:101590004C07B0914D078093B2079093B307A09387
:1015A000B407B093B50700D086EA91E0EDB7FEB777
:1015B000928381830E94201981E00F900F900895FB
:1015C000823011F080E00895AFE4B7E0E0EBF9E09D
:1015D00080E201900D928150E1F7A7EBB7E0E2E5E0
:1015E000F7E085E001900D928150E1F700D082EBA9
:1015F00091E0EDB7FEB7928381830E94201981E0CC
:101600000F900F9008950F931F9300D08EEB91E0F1
:10161000ADB7BEB712969C938E9311970E94201976
:1016200000D0EDB7FEB7319680EC91E0ADB7BEB714
:1016300012969C938E931197809135078283138223
:101640000E94201989EC91E0EDB7FEB79283818367
:101650000DEB17E0148303830E94201982ED91E0C3
:10166000ADB7BEB712969C938E9311970B5F1F4F29
:1016700014961C930E9313970E9420198AED91E003
:10168000EDB7FEB7928381830BE917E014830383E0
:101690000E94201984EE91E0ADB7BEB712969C93DC
:1016A0008E9311970B5F1F4F14961C930E931397F5
:1016B0000E9420198DEE91E0EDB7FEB792838183F1
:1016C0000B5F1F4F148303830E94201987EF91E063
:1016D000ADB7BEB712969C938E931197095F1F4FBB
:1016E00014961C930E931397015110400E942019D9
:1016F0000F900F900F900F90C80147960E942D24D5
:1017000000D000D020E032E0EDB7FEB73283218375
:10171000948383830E9420190F900F900F900F9055
:10172000C8014C960E942D2400D000D02AE032E05F
:10173000ADB7BEB712963C932E93119714969C9317
:101740008E9313970E94201988E192E0EDB7FEB7BF
:10175000928381838091C7079091C8079483838384
:101760000E9420190F900F900F900F901F910F91D2
:101770000895AF92BF92CF92DF92EF92FF920F93B4
:101780001F93DF93CF93CDB7DEB76D970FB6F89465
:10179000DEBF0FBECDBF182F00D081E292E0ADB703
:1017A000BEB712969C938E9311970E9420190F90AA
:1017B0000F90112369F088E292E00E941B1980E5E6
:1017C00093EC20E931E0F9013197F1F70197D9F76E
:1017D0000E94BE1884E392E00E941B193AE5E32EB2
:1017E000F12C012D112D20E9A22E21E0B22E9FE334
:1017F000C92E92E0D92E25C088EE93E0F5013197ED
:10180000F1F70197D9F700D000D000D0EDB7FEB7BF
:10181000D282C182ADB7BEB71396ED92FD920D9301
:101820001C9316970E9420190894E108F1080109F9
:101830001109EDB7FEB736960FB6F894FEBF0FBE8E
:10184000EDBF8EEE97E062E472E00E94752400978F
:1018500029F4E114F1040105110571F600D000D05E
:1018600086E492E0ADB7BEB712969C938E93119723
:101870008EEEC82E87E0D82E1496DC92CE92139767
:101880000E9420190F900F900F900F90E114F10417
:101890000105110511F410E0CBC0C6016BE472E044
:1018A0000E947524DE011996FC01369684E10190B0
:1018B0000D928150E1F7EDB7FEB73E970FB6F89461
:1018C000FEBF0FBEEDBF319681E592E0ADB7BEB76A
:1018D00012969C938E931197809193078283138223
:1018E000809194078483158280919507868317825F
:1018F000809197078087118680919607828713864B
:101900008091980790919907958784870E94201964
:1019100089859A859A838983EDB7FEB73E960FB67F
:10192000F894FEBF0FBEEDBF8E010F5F1F4FC801C1
:101930000E942D24809393070E94C8078C859D8563
:101940009A838983C8010E942D24809394070E9462
:10195000DA078F8598899A838983C8010E942D248C
:10196000809395070E94EC078A899B899A838983D3
:10197000C8010E942D24809397070E94A4078D8997
:101980009E899A838983C8010E942D24809396079B
:101990000E94B607888D998DAA8DBB8D8C839D83FF
:1019A000AE83BF83CE0104960E942D2480939807B6
:1019B000909399070E948E070E940007182F0E949B
:1019C0002507082F0E944A07F82E0E94DB06E82E02
:1019D0000E94B606D82E0E94A6062DB73EB72E50FE
:1019E00030400FB6F8943EBF0FBE2DBFEDB7FEB727
:1019F00031962EE632E0ADB7BEB712963C932E93E9
:101A000011971283138204831582F6821782E0866F
:101A10001186D2861386848715860E94201911E0CC
:101A2000EDB7FEB73E960FB6F894FEBF0FBEEDBF02
:101A30000E94BE18812F6D960FB6F894DEBF0FBEC0
:101A4000CDBFCF91DF911F910F91FF90EF90DF906D
:101A5000CF90BF90AF900895CF92DF92EF92FF9218
:101A60000F931F93DF93CF93CDB7DEB7CF5AD040FC
:101A70000FB6F894DEBF0FBECDBF882329F08EE2EB
:101A800080939D078093A2078BE997E00E94CA0983
:101A900080EA97E00E94CA0985EA97E00E94CA0995
:101AA0008CEA97E00E94CA0982EB97E00E94CA097B
:101AB00087EB97E00E94CA094AE1C42ED12CCC0ED4
:101AC000DD1EC6016EE872E00E945F24C60162EA74
:101AD00072E00E945424C60162EB72E00E9454241A
:101AE000C6010E941B198AE891E064E170E00E943F
:101AF0005519882309F4C5C000D087EB92E0EDB7F3
:101B0000FEB7928381830E9420190F900F90C60127
:101B100061EC72E00E945F24C60162EE72E00E94F6
:101B20005424C6016DEB77E00E945424C6016BEE8D
:101B300072E00E945424C60162EC77E00E945424B3
:101B4000C60164EF72E00E945424C6016BE977E09D
:101B50000E945424C6016DEF72E00E945424C60115
:101B600060EA77E00E945424C60166E073E00E94B8
:101B70005424C60165EA77E00E945424C6016FE050
:101B800073E00E945424C6016CEA77E00E9454245A
:101B9000C60168E173E00E945424C60162EB77E05D
:101BA0000E945424C60161E273E00E945424C601DD
:101BB00067EB77E00E945424C6016AE273E00E945A
:101BC0005424F60101900020E9F73197CF018C19D8
:101BD0009D097E010894E11CF11CB7014AE050E028
:101BE0000E948F248E010A5F1F4FC8016DE273E0CF
:101BF0000E945F24C801B7010E945424C8010E94BA
:101C00001B1989E393E064E170E00E945519882371
:101C1000B1F0C6010E941B198BE393E062E370E010
:101C20000E945519882321F482E493E00E941B1935
:101C3000809162008F7E8093620081E04DC0809130
:101C40006200806180936200809162008D7F80934A
:101C5000620088EE93E020E931E0F9013197F1F775
:101C60000197D9F78091620082608093620080E3DF
:101C700095E720E931E0F9013197F1F70197D9F7BC
:101C800021C0809162008061809362008091620037
:101C90008D7F8093620088EE93E020E931E0F901C6
:101CA0003197F1F70197D9F78091620082608093B4
:101CB000620080E395E720E931E0F9013197F1F71F
:101CC0000197D9F78091C9079091CA07019690931F
:101CD000CA078093C90780E0C155DF4F0FB6F8945B
:101CE000DEBF0FBECDBFCF91DF911F910F91FF904F
:101CF000EF90DF90CF9008950E945B1480E40E94E3
:101D0000331484E00E943D148CE00E943D1484E072
:101D10000E943D148CE00E943D1484E00E943D141A
:101D20008EE00E943D148EE00E943D1484E00E94EB
:101D30003D148BE10E943D1483E10E943D148BE130
:101D40000E943D1483E10E943D148BE10E943D14EA
:101D500081E10E943D1481E10E943D148BE10E94CB
:101D60003D1484E00E943D148EE00E943D148EE0FC
:101D70000E943D148FE10E943D148FE10E943D14AA
:101D80008FE10E943D148EE00E943D1484E00E9489
:101D90003D148BE10E943D1481E10E943D1481E1DC
:101DA0000E943D1480E00E943D1480E00E943D149A
:101DB00080E00E943D1481E10E943D148BE10E946D
:101DC0003D1486E00E943D1489E00E943D1489E0A4
:101DD0000E943D1486E00E943D1480E00E943D1464
:101DE00080E00E943D1480E00E943D1480E00E944B
:101DF0003D1484E00E943D1485E10E943D148EE074
:101E00000E943D148FE10E943D148EE00E943D141B
:101E100085E10E943D1484E00E943D1480E00E9410
:101E20003D148EE00E943D1484E00E943D1484E045
:101E30000E943D1485E10E943D148FE10E943D14F3
:101E40008FE10E943D1481E10E943D148FE10E94C8
:101E50003D1480E10E943D148CE10E943D1484E118
:101E60000E943D1480E00E943D148AE10E943D14CE
:101E700085E10E943D148FE10E943D1485E10E949E
:101E80003D1480E80E9433140895EF92FF921F934F
:101E9000CF93DF938FE0809315070E94881587B753
:101EA000806487BF10E05EE4E52E53E0F52EC0E9C4
:101EB000D1E010932F071093300710933107109340
:101EC000320700D000D0EDB7FEB73196ADB7BEB740
:101ED0001296FC92EE921197128313820E9420199F
:101EE00088E893E10F900F900F900F90FE013197CB
:101EF000F1F70197D9F71F5F1A30D8F210E0D9CF68
:101F0000CF92DF92EF92FF920F931F93CF93DF93C5
:101F1000AB98AC98AD98809162008F7B8093620003
:101F200080E197E220E931E0F9013197F1F701977B
:101F3000D9F7C0E0D0E000EE1BEAC035D10518F4B7
:101F4000CE01BE0103C0CE0160E570E040E050E08C
:101F50000E94F014C8010197F1F72196CA3FD105FC
:101F600061F780E197E220E931E0F9013197F1F77B
:101F70000197D9F7AE9A88EB9BE020E931E0F901AF
:101F80003197F1F70197D9F7AB9A88EB9BE020E9FD
:101F900031E0F9013197F1F70197D9F7AC9A88EB65
:101FA0009BE020E931E0F9013197F1F70197D9F78A
:101FB000AF9A88EB9BE020E931E0F9013197F1F726
:101FC0000197D9F7AD9A88EB9BE020E931E0F90160
:101FD0003197F1F70197D9F780916200806480937F
:101FE000620088EB9BE020E931E0F9013197F1F7DD
:101FF0000197D9F787B7806487BF80E197E220E92E
:1020000031E0F9013197F1F70197D9F773E3D72E52
:1020100060E4C62EC0E0DDE7AE9885B3805885BB8E
:1020200085B38C2585BB0E94192469E070E00E946D
:10203000442280932F070E94192469E070E00E94D7
:102040004422809330070E94192469E070E00E94C6
:102050004422809331070E94192469E070E00E94B5
:102060004422809332070E9419248C010E94192473
:102070007C010E941924FC01C8016FEF70E00E94EE
:1020800044228C01C7016FEF70E00E9444229C0142
:10209000CF016FEF70E00E944422AC01C801B9018A
:1020A0000E94F0142D2D04C0CE010197F1F72150AC
:1020B0002223D1F783E0D81619F08EEFD80EACCFDB
:1020C00087B78F7B87BFAB98AC98AD988091620043
:1020D0008F7B80936200AF98AE9880E090E060E0E4
:1020E00070E040E050E00E94F01480E197E220E9C7
:1020F00031E0F9013197F1F70197D9F7DF91CF91ED
:102100001F910F91FF90EF90DF90CF9008958F92E5
:102110009F92AF92BF92CF92DF92EF92FF920F9376
:102120001F93DF93CF93CDB7DEB7E2970FB6F89446
:10213000DEBF0FBECDBF4C01D62EC72E8A017C015B
:10214000E40EF51ED7010D900020E9F71197AE19A6
:10215000BF095E010894A11CB11CC501B701AD0106
:102160000E946624ED2DFC2DDF010D900020E9F783
:102170001197AE1BBF0BC7016D2D7C2DAD010E94C9
:102180006624AD2DBC2DFD0101900020E9F73197AB
:10219000EA1BFB0B0E0F1F1FC401800F911FB5011F
:1021A0000E94542480E090E0E2960FB6F894DEBFDF
:1021B0000FBECDBFCF91DF911F910F91FF90EF9098
:1021C000DF90CF90BF90AF909F908F900895EF9247
:1021D000FF920F931F93DF93CF93CDB7DEB7F984B0
:1021E000EA84EF2DFE2DDF010D900020E9F7CD01EF
:1021F0008E1B9F0B0E94C322182F092F9E01255F63
:102200003F4F6F2D7E2DA9010E94B824812F902F62
:102210000E948314812F902F0E947023CF91DF9111
:102220001F910F91FF90EF900895CF92DF92EF9260
:10223000FF920F931F93CF93DF93BC01F7E5CF2E4F
:10224000F7E0DF2EF601B89683E1DF011D928A9553
:10225000E9F7E6016496DE0184E10D900192815078
:10226000E1F783E1FE0111928A95E9F7EBE6F7E0E9
:10227000DF01549784E10D9001928150E1F783E1F1
:10228000D6011D928A95E9F7DB010D900020E9F750
:102290001197A61BB70BC601AD010E944B2483E02A
:1022A00061E00E94471482E593E00E94831483E07A
:1022B00061E00E94471400D000D0E7E6EE2EE3E094
:1022C000FE2EEDB7FEB7F282E1820FE717E014832E
:1022D00003830E94E7100F900F900F900F9083E000
:1022E00062E00E94471482E593E00E94831483E039
:1022F00062E00E94471400D000D0ADB7BEB712967E
:10230000FC92EE9211970451104014961C930E9378
:1023100013970E94E7100F900F900F900F9083E09B
:1023200063E00E94471482E593E00E94831483E0F7
:1023300063E00E94471400D000D0EDB7FEB7F282F0
:10234000E182D482C3820E94E71028E833E10F9033
:102350000F900F900F9040E951E0CA010197F1F7FB
:1023600021503040D1F7DF91CF911F910F91FF9015
:10237000EF90DF90CF900895CF92DF92EF92FF928F
:102380000F931F936C017B0180E061E00E94471472
:1023900000D002E513E0EDB7FEB7128301830E947F
:1023A000E7100F900F9080E062E00E94471400D089
:1023B000EDB7FEB7128301830E94E7100F900F90D4
:1023C00080E063E00E94471400D0EDB7FEB71283AF
:1023D00001830E94E7100F900F9080E061E00E945F
:1023E000471400D08AE693E0EDB7FEB7928381836D
:1023F0000E94E71000D084E793E0EDB7FEB7928328
:1024000081838DE190E0E80EF91EF482E3820E9460
:10241000E7100F900F9088E793E0EDB7FEB7928337
:1024200081830E94E7100F900F9080E062E00E948D
:10243000471400D08BE793E0EDB7FEB7928381831A
:102440000E94E71000D005E813E0EDB7FEB7128355
:102450000183F60184859585EDB7FEB79483838368
:102460000E94E7100F900F900F900F9080E063E0B4
:102470000E94471400D089E893E0EDB7FEB792833D
:1024800081830E94E71000D0EDB7FEB7128301836D
:10249000F60186859785EDB7FEB7948383830E9406
:1024A000E7100F900F900F900F901F910F91FF90DA
:1024B000EF90DF90CF900895CF92DF92EF92FF924E
:1024C0000F931F93CF93DF937C01EB0180E061E0DA
:1024D0000E94471400D002E513E0EDB7FEB7128367
:1024E00001830E94E7100F900F9080E062E00E944D
:1024F000471400D0EDB7FEB7128301830E94E710A6
:102500000F900F9080E063E00E94471400D0EDB779
:10251000FEB7128301830E94E7100F900F9080E0B6
:1025200061E00E94471480E00E943D1400D000D07A
:10253000A4E7CA2EA3E0DA2EEDB7FEB7D282C1829D
:10254000F482E3820E94E7100F900F900F900F909B
:1025500084E00E943D1483E40E94631480E062E002
:102560000E94471481E00E943D1400D000D0EDB7D6
:10257000FEB7D282C1822196D483C3830E94E71022
:102580000F900F900F900F9084E00E943D1483E411
:102590000E9463148AE061E00E94471482E00E9476
:1025A0003D1400D000D002E913E0EDB7FEB712836E
:1025B000018385E090E0E80EF91EF482E3820E9438
:1025C000E7100F900F900F900F908AE062E00E944A
:1025D000471483E00E943D1400D000D0EDB7FEB751
:1025E000128301832596D483C3830E94E7100F9042
:1025F0000F900F900F9080E063E00E94471486E0F8
:102600000E943D1400D000D0EDB7FEB7D282C18247
:102610002596D483C3832B970E94E7100F900F90C9
:102620000F900F9088E063E00E94471487E00E94BB
:102630003D148AE063E00E94471485E00E943D1447
:102640008A899E012E5E3F4F8F3359F400D000D00F
:1026500088E993E0EDB7FEB79283818334832383C7
:102660000DC0C9010E942D2400D000D02FE933E015
:10267000EDB7FEB732832183948383830E94E710F2
:102680000F900F900F900F90CE0148960E942D242E
:102690008458934044F480E160E00E94471400D0E5
:1026A00086EA93E007C080E160E00E94471400D012
:1026B0008BEA93E0EDB7FEB7928381830E94E71027
:1026C0000F900F90DF91CF911F910F91FF90EF909E
:1026D000DF90CF9008950F931F93DF93CF93CDB7E3
:1026E000DEB7E2970FB6F894DEBF0FBECDBFF89409
:1026F00010921E0700D000ED17E0EDB7FEB7128371
:1027000001830E9420190F900F908091D00783328F
:1027100019F0803479F52AC0D8011196FD01019095
:102720000020E9F7E25DF7408E010F5F1F4FC801FF
:10273000BD01AF010E94662400D000D08FEA93E073
:10274000EDB7FEB792838183148303830E9420191F
:102750000F900F900F900F90C8010E9404198AE803
:1027600091E06EE170E00E9455190FC000D083EB3C
:1027700093E003C000D08AEB93E0EDB7FEB79283FD
:1027800081830E9420190F900F900E94C419DF9836
:102790007894E2960FB6F894DEBF0FBECDBFCF910E
:1027A000DF911F910F910895662311F0DE9A01C009
:1027B000DE98DD98D39AD09AD29AD19AD998DA989D
:1027C000D898DB9887FDD99A86FDDA9A85FDD89A44
:1027D00084FDDB9ADC9A00C0DC98D998DA98D89806
:1027E000DB9883FDD99A82FDDA9A81FDD89A80FD23
:1027F000DB9ADC9A00C0DC98DB9AD89ADA9AD99AEC
:102800000895882311F0DE9A01C0DE98DD9AD398EE
:10281000D098D298D198DC9A00C0CB9B02C080E1BE
:1028200001C080E0C8998062CA998064C9998068B3
:10283000DC9800C0DC9A00C0CB998160C8998260A6
:10284000CA998460C9998860DC98089580E00E94E4
:10285000011487FDFBCF88E090E00197F1F780E05D
:102860000E94011408951F93182F0E942614812F8F
:1028700060E00E94D4131F9108951F93182F0E94A7
:102880002614812F61E00E94D4131F9108956623BE
:1028900011F4805809C0613011F4805405C06230D1
:1028A00011F48C5601C08C520E94331408950E947A
:1028B000261490E0089581E00E943314089582E088
:1028C0000E94331408951F93182F0E942614982FE6
:1028D0001A3099F4843110F480E40BC080548431B0
:1028E00010F484E106C094519C3210F080E001C0E5
:1028F00084E580580E94331404C0812F61E00E9457
:10290000D4131F910895CF93DF93EC0102C00E946E
:10291000631489918823D9F7DF91CF910895CF93DC
:10292000DF93EC0102C00E94631489918823D9F7D8
:10293000DF91CF910895CF93DF93EC0102C00E9405
:102940006314FE01219684918823C9F7DF91CF910A
:1029500008951F93182FD69AD59AD49AD39AD09ABD
:10296000D29AD19A80E09AEF0197F1F7D89ADB9A40
:10297000DC9A00C0DC9880E09EE40197F1F7DC9AD5
:1029800000C0DC9880E091E0FC013197F1F7DC9A1F
:1029900000C0DC98FC013197F1F7DB98DC9A00C0AD
:1029A000DC980197F1F788E20E94331488E00E94D6
:1029B00033140E945B1486E00E943314812F0E941E
:1029C00033141F91089584B3886F84BBE1E6F0E06F
:1029D00080818064808384B3876084BB8F9A0895EC
:1029E00090937900809378007BBD6ABD59BD48BD46
:1029F00008958230D9F0833028F4882341F0813063
:102A0000B9F50CC08330E9F0843091F52CC0809189
:102A1000150783FF23C0AB9AAC9806C080911507B9
:102A200082FF1CC0AB98AC9AAD9807C08091150787
:102A300081FF14C0AB98AC98AD9A809162008F7BF7
:102A40000AC08091150780FF09C0AB98AC98AD987B
:102A5000809162008064809362000DC0AB98AC9856
:102A6000AD98AD9808C0AB98AC98AD98AD98089566
:102A7000843009F44CC0643061F1653050F4613049
:102A8000C9F06130A0F06230D1F0633009F03FC08E
:102A90001BC0673059F1683028F46530E9F06630C2
:102AA000B1F51FC0683041F1693089F52BC085B39D
:102AB000887F0DC085B38C7F85BBAA9A21C085B362
:102AC000897F85BBA89A1CC0A99885B3856085BB02
:102AD00017C085B3887F0DC085B38C7F85BBAA9A4C
:102AE00009C085B3897F85BBA89A04C0A99885B31E
:102AF000856085BB979A089585B38A7F85BBA99A1F
:102B000097980895A89885B3866085BB979808958F
:102B1000AB9AAC9AAD9AE2E6F0E080818064808363
:102B200087B7806487BFAF9AAE9A0895AB98AC9888
:102B3000AD98E2E6F0E080818F7B808387B78F7B62
:102B400087BFAF98AE980895FC0180818053809331
:102B50002F07818180538093300782818053809337
:102B600031078381805380933207662311F0AF9A37
:102B700001C0AF98442311F0AE9A0895AE9808951D
:102B8000813059F0813028F0823051F0833071F477
:102B90000AC082B3806682BB0895959A969808957C
:102BA0009598969A089582B38F7982BB0895AE98CE
:102BB000AF9880917800909179008AB59BB588B5DF
:102BC00099B50895EF92FF920F931F93CF93DF93E0
:102BD000AE98AF988091780090917900E82E8AB5F0
:102BE0009BB5F82E88B599B5082F8FE0809315070F
:102BF0001FEFC0E8DEE3E110EA94F110FA9401114E
:102C000001508E2D90E02F2D30E0402F50E090931A
:102C10007900809378003BBD2ABD59BD48BDCE01E7
:102C20000197F1F7812F69E10E943822992301F57C
:102C30000E94192469E070E00E94442280932F07CB
:102C40000E94192469E070E00E94442280933007BA
:102C50000E94192469E070E00E94442280933107A9
:102C60000E94192469E070E00E9444228093320798
:102C7000115009F0C0CF10927900109278001BBC5F
:102C80001ABC19BC18BC10921507AE98AF9880E416
:102C90009CE90197F1F7DF91CF911F910F91FF9080
:102CA000EF9008950F931F93CF93DF93EC01162FAE
:102CB000042F0E94292420E030E040E251E40E94E9
:102CC000AC02181634F48B818A831B831C828FE03C
:102CD0000AC08881803211F480E388838B818A83E3
:102CE0001B831C8287E08093150740E0011141E0BF
:102CF000CE0161E00E94A415DF91CF911F910F9149
:102D00000895C0988FEF0E947218C09A0895CF93CB
:102D1000DF93EC010E948116982F907486FF05C006
:102D2000209719F0869587708883892FDF91CF913E
:102D30000895C09881EE0E947218C09A0895C098B4
:102D400082EE0E947218C09A0895FF920F931F930B
:102D5000CF93DF93162F072FF42EC0988F718062C8
:102D60000E947218212F302FC901EC0110E004C01D
:102D700089910E9472181F5F1F15D0F3C09ADF91CE
:102D8000CF911F910F91FF9008951F93162FC09818
:102D90008F7180620E947218812F0E947218C09AEF
:102DA0001F9108950F931F93CF93DF938C01C098C9
:102DB00081E60E947218C0E0D0E08FEF0E94721886
:102DC000F801EC0FFD1F80832196C032D105A9F7D1
:102DD000C09A87E060E40E94C5160E94811685FFB4
:102DE00004C087E060E20E94C516DF91CF911F9179
:102DF0000F910895FF920F931F93CF93DF93162F98
:102E0000072FF42EC0988F710E947218212F302F37
:102E1000C901EC0110E005C08FEF0E947218899380
:102E20001F5F1F15C8F3C09ADF91CF911F910F91BB
:102E3000FF900895C0988F710E9472188FEF0E94C2
:102E40007218C09A089580E00E941A17682F6C606B
:102E500080E00E94C516089586E00E941A17682F28
:102E6000677D606286E00E94C516089586E00E9434
:102E70001A17682F666086E00E94C5160895949818
:102E800080E00E941A17682F6E7F80E00E94C516AE
:102E900080E00E941A17682F626080E00E94C516C9
:102EA00087E060E70E94C5160E94991688E592E0C7
:102EB0000197F1F70895DC01149620E030E0FB0162
:102EC000E20FF31F8C9180832F5F3F4F11972530C6
:102ED0003105A9F708950F931F93DF93CF9300D087
:102EE00000D00F92CDB7DEB7AC01A0E1B7E0FC0196
:102EF00085E001900D928150E1F7CA018E010F5FCC
:102F00001F4FB8010E945B178AE0B80145E00E949C
:102F1000A51680E1B80145E00E94A5160F900F901C
:102F20000F900F900F90CF91DF911F910F91089507
:102F30000F931F93DF93CF9300D000D00F92CDB7A4
:102F4000DEB78823A1F4ABE0B7E0FB0185E0019098
:102F50000D928150E1F7CB018E010F5F1F4FB80139
:102F60000E945B178AE0B80145E00E94A5160F9009
:102F70000F900F900F900F90CF91DF911F910F91B5
:102F8000089580E06BE077E00E94981780E00E944F
:102F90001A17682F616080E00E94C51680E00E94C9
:102FA0001A17682F626080E00E94C51687E060E70C
:102FB0000E94C5160E949F160E949916949A88E551
:102FC00092E00197F1F708950F931F93CF93DF934A
:102FD0008C010E943F17C09880EA0E947218C0E0DE
:102FE000D0E0F801EC0FFD1F80810E94721821963D
:102FF000C032D105B1F7C09A949A80E58A95F1F76D
:10300000949815E3812F8A95F1F70E9481168073B9
:10301000C9F30E948116082F85E06CE40E94C51652
:1030200080E00E941A17682F6D7F80E00E94C5160D
:103030000E94C11710E085E0169507958A95E1F783
:10304000802F8170DF91CF911F910F910895B89AD1
:103050008C9A0E9467189498C09A80E29EE4019727
:10306000F1F70E9436170E942C170E94231784E064
:1030700067E40E94C5168CE160E00E94C51685E0F9
:103080006CE40E94C51681E160E20E94C51682E0F0
:1030900060E00E94C51682E00E941A17682F6160E6
:1030A00082E00E94C51681E00E941A17682F6160B5
:1030B00081E00E94C51680E06BE077E00E949817DF
:1030C00080E197E00E946B170E94C117089587B3B3
:1030D000807F87BB87B3876087BB82E58DB981E03E
:1030E0008EB908958FB9779BFECF8FB108959093D5
:1030F000900089B988E98AB986E08093950008959F
:10310000909398008093990088E980939A0086E0D4
:1031100080939D0008955F9BFECF8CB108958091B0
:103120009B0087FFFCCF80919C0008955D9BFECFA4
:103130008CB90895982F80919B0085FFFCCF9093C8
:103140009C000895AC0120E030E070E00CC0FA0172
:10315000E20FF31FE08180919B0085FFFCCFE0939D
:103160009C002F5F3F4F261737078CF380919B0001
:1031700085FFFCCF80E280939C00089580E090E082
:10318000FC01E251F84F1082019621E0823C920747
:10319000B9F710921D0710921C0708955D9BFECF92
:1031A0008DE08CB95D9BFECF8AE08CB908955D9B64
:1031B000FECF81E48CB95D9BFECF84E58CB90E9483
:1031C000CE180895AC01DC010D900020E9F71197AD
:1031D000A81BB90B20E030E00CC0FA01E20FF31F8E
:1031E000E08180919B0085FFFCCFE0939C002F5FE6
:1031F0003F4F2A173B078CF380919B0085FFFCCF44
:1032000080E280939C000895DC010D900020E9F796
:103210001197A81BB90B20E030E009C0FC01E20FB8
:10322000F31FE0815D9BFECFECB92F5F3F4F2A1764
:103230003B07A4F308950E9404190E94CE18089534
:10324000EF92FF920F931F93DF93CF93CDB7DEB72B
:1032500019850A85E12FF02FDF010D900020E9F795
:10326000CD018E1B9F0B0E94C322F82EE92E9E01DA
:10327000255F3F4F612F702FA9010E94B8248091D4
:103280009B0085FFFCCF8DE080939C008F2D9E2DB1
:103290000E94E2188F2D9E2D0E947023CF91DF9106
:1032A0001F910F91FF90EF900895AF92BF92CF9230
:1032B000DF92EF92FF920F931F93DF93CF930F92C2
:1032C000CDB7DEB77C018B01198290E9A92E91E080
:1032D000B92E8FEBC82E83E0D82E17C088EE93E06E
:1032E000F5013197F1F70197D9F700D000D0EDB78C
:1032F000FEB7D282C182148303830E942019015039
:1033000010400F900F900F900F908EEE97E0B70146
:103310000E947524009719F401151105F9F600D0E3
:1033200000D082EC93E0EDB7FEB7928381838EEEFE
:1033300097E0948383830E94201980E090E00F90AF
:103340000F900F900F90FC01E251F84F1082019600
:10335000F1E0823C9F07B9F710921D0710921C07FD
:10336000101611061CF481E0898301C0198289813D
:103370000F90CF91DF911F910F91FF90EF90DF9011
:10338000CF90BF90AF9008958EE1E0EDF7E0DF01C0
:103390001D928A95E9F710921B0710921A0708955B
:1033A0001F920F920FB60F9211248F9381E080939A
:1033B00020078F910F900FBE0F901F9018951F92AE
:1033C0000F920FB60F9211248F9389B78F7D89BF0B
:1033D000F89481E08093290780932C0710922507A9
:1033E00078948F910F900FBE0F901F9018951F9299
:1033F0000F920FB60F9211248F9389B78F7B89BFDD
:10340000F89481E080932A0780932C071092250777
:1034100078948F910F900FBE0F901F9018951F9268
:103420000F920FB60F9211242F933F934F935F93F8
:103430006F937F938F939F93AF93BF93EF93FF937C
:1034400000D087EC93E0EDB7FEB7928381830E94B2
:1034500020198BB380588BBB0F900F90FF91EF9189
:10346000BF91AF919F918F917F916F915F914F919C
:103470003F912F910F900FBE0F901F9018951F92A4
:103480000F920FB60F9211242F933F934F935F9398
:103490006F937F938F939F93AF93BF93EF93FF931C
:1034A000F89481E080932B0700D08DEC93E0EDB78A
:1034B000FEB7928381830E9420198091180781BFF3
:1034C00078940F900F90FF91EF91BF91AF919F91E2
:1034D0008F917F916F915F914F913F912F910F90BD
:1034E0000FBE0F901F9018951F920F920FB60F925C
:1034F00011242F933F934F935F936F937F938F93F9
:103500009F93AF93BF93EF93FF93F8948BB380583F
:103510008BBB8091270790912807039750F48091E7
:1035200027079091280701969093280780932707F3
:1035300004C01092280710922707809127079091C6
:103540002807E0912707F0912807E15DF84F608197
:103550000E94F9147894FF91EF91BF91AF919F91E0
:103560008F917F916F915F914F913F912F910F902C
:103570000FBE0F901F9018951F920F920FB60F92CB
:1035800011242F933F934F935F936F937F938F9368
:103590009F93AF93BF93EF93FF93F8940E948B1880
:1035A000882341F08A3021F481E080931F0702C014
:1035B0008D3009F48FE5E0911C07F0911D07E25171
:1035C000F84F808380911C0790911D07019690937E
:1035D0001D0780931C077894FF91EF91BF91AF91E5
:1035E0009F918F917F916F915F914F913F912F911B
:1035F0000F900FBE0F901F9018951F920F920FB64D
:103600000F9211242F933F934F935F936F937F9368
:103610008F939F93AF93BF93EF93FF93F894DF9AA9
:103620000E948F18982F8A3019F481E080931E072A
:10363000E0911A07F0911B07E053F84F90838091B7
:103640001A0790911B07019690931B0780931A0706
:103650007894FF91EF91BF91AF919F918F917F915E
:103660006F915F914F913F912F910F900FBE0F90EF
:103670001F9018951F920F920FB60F9211242F933F
:103680003F934F935F936F937F938F939F93AF93EA
:10369000BF93EF93FF93F89481E080932D071092EE
:1036A0004E078EE497E00E948716882321F080EB76
:1036B00099E00E94D2167894FF91EF91BF91AF915B
:1036C0009F918F917F916F915F914F913F912F913A
:1036D0000F900FBE0F901F9018952F923F924F9210
:1036E0005F926F927F928F929F92AF92BF92CF9292
:1036F000DF92EF92FF920F931F93DF93CF93CDB79B
:10370000DEB7A8970FB6F894DEBF0FBECDBF1092FC
:10371000CA071092C9071092CC071092CB070E94DB
:103720008D09809162008D7F8093620088EE93E026
:1037300020E931E0F9013197F1F70197D9F780914C
:10374000620082608093620088EE93E020E931E0BD
:10375000F9013197F1F70197D9F7DF9A89E190E004
:103760000E94771800D086ED93E0ADB7BEB71296F1
:103770009C938E9311970E9420190F900F908CE0CC
:103780000E94A9140E947C0E0E945B140E945F1488
:1037900083E060E00E94471400D089EE93E0EDB72B
:1037A000FEB7928381830E94E7100F900F900E94D2
:1037B000B6098091180781BF00D087EF93E0ADB7BD
:1037C000BEB712969C938E9311970E9420190F906A
:1037D0000F908FEF93E00E941511789400D088E04D
:1037E00094E0EDB7FEB7928381830E9420190F9079
:1037F0000F9082E194E00E9415118EE194E00E9406
:1038000015118091620080618093620088EB9BE0DB
:1038100020E931E0F9013197F1F70197D9F780916B
:10382000620081608093620088EB9BE020E931E0D8
:10383000F9013197F1F70197D9F7809162008F7EF6
:1038400080936200809162008E7F809362000E946C
:10385000AF098FEF90E060E070E040E050E00E9440
:10386000F01480ED97E020E931E0F9013197F1F7AC
:103870000197D9F780E090E06FEF70E040E050E012
:103880000E94F01480ED97E020E931E0F9013197D2
:10389000F1F70197D9F780E090E060E070E04FEF3A
:1038A00050E00E94F01480ED97E020E931E0F9014A
:1038B0003197F1F70197D9F780E090E060E070E090
:1038C00040E050E00E94F0140E94FE07882309F4B3
:1038D0004AC000D087E294E0ADB7BEB712969C9381
:1038E0008E9311970E9420190F900F9087E394E018
:1038F0000E9415110E940007182F0E942507082F0B
:103900000E944A07F82E0E94DB06E82E0E94B606A7
:10391000D82E0E94A606EDB7FEB73E970FB6F894D4
:10392000FEBF0FBEEDBF319626E434E0ADB7BEB7A3
:1039300012963C932E93119712831382048315825F
:10394000F6821782E0861186D286138684871586D2
:103950000E942019EDB7FEB73E960FB6F894FEBF51
:103960000FBEEDBF11C000D087E694E0ADB7BEB783
:1039700012969C938E9311970E9420190F900F908E
:1039800083E794E00E94151100D08EE794E0EDB734
:10399000FEB7928381830E9420190F900F9082E0DE
:1039A00062E00E94471489E894E00E9415110E9489
:1039B000350A882379F189E994E00E9415118FE98D
:1039C00094E00E94151181E00E94B90B882391F0C8
:1039D00000D08FEA94E0ADB7BEB712969C938E9359
:1039E00011970E9420190F900F9089E994E00E948E
:1039F000151122C000D08EEB94E0EDB7FEB7928394
:103A000081830E9420190F900F9080ED94E00E9416
:103A100015110DC089ED94E00E9415118091C90720
:103A20009091CA0701969093CA078093C907809125
:103A300062008061809362000E949B0982EE94E0A4
:103A40000E9415118FEF90E0909385008093840081
:103A50000E94E3140E9427180E94671880E2E0EB9E
:103A6000F9E0DF011D928A95E9F700D08BEE94E032
:103A7000EDB7FEB7928381830E9420190F900F90BB
:103A80008AEF94E00E94151189B7806E89BF8AB7CA
:103A90008C6B8ABF80E090E060E070E040E050E036
:103AA0000E94F01480E00E94C01500D087E095E0ED
:103AB000ADB7BEB712969C938E9311970E942019B2
:103AC0000F900F9080E295E00E9415110E94D70997
:103AD00000D08AE295E0EDB7FEB7928381830E9421
:103AE00020190F900F9089E395E00E941511CE01E7
:103AF0000A96BE01625F7F4F0E94120900D08DE3DB
:103B000095E0ADB7BEB712969C938E9311970E9425
:103B100020190F900F908CE495E00E9415110D9BD9
:103B200042C00E945B1400D000D087E595E0EDB75D
:103B3000FEB7928381838AE595E0948383830E9414
:103B4000E7100F900F9089E695E0ADB7BEB71296DB
:103B50009C938E9311970E94201981E080932E07E9
:103B60000F900F9089E190E00E94801824B700D058
:103B700000D0EDB7FEB7319687E795E0ADB7BEB799
:103B800012969C938E931197228313820E94201980
:103B90000F900F900F900F9080911E078823E1F3F4
:103BA0000E946B13F9CF80E29FE3A0E2BFE3809312
:103BB0009B0790939C07A0939D07B0939E078093CB
:103BC000A0079093A107A093A207B093A307A5EA2B
:103BD000B7E0E3E8F5E086E001900D928150E1F76F
:103BE000ACEAB7E0EAE8F5E085E001900D9281509B
:103BF000E1F7A7EBB7E0EAE8F5E085E001900D9288
:103C00008150E1F781E390E3A0E3B0E38093B20752
:103C10009093B307A093B407B093B5078091620067
:103C200081608093620080E995E00E941511AA24CA
:103C300033241EA2B1E0BDA31CA21BA22224239404
:103C400033E3632E712C812C912CBAA3CC24DD2478
:103C5000760119A218A2BB24B394FE017E96F8A7A0
:103C6000EFA38BB380588BBB80911F078823D1F0C3
:103C700000D000D0EFE9F5E0ADB7BEB71296FC93E7
:103C8000EE9311972EEE37E014963C932E931397F4
:103C90000E94201910921F070F900F900F900F9005
:103CA0000E94BE1880912107813031F0813008F4E4
:103CB000DDC38230B1F6B9C380912307823009F4A5
:103CC0002BC2833030F4882309F43AC1813049F69D
:103CD00041C2843009F4E3C0843018F0853009F61D
:103CE0002BC13DE13A1508F4AA2488EE93E0E0E9FF
:103CF000F1E03197F1F70197D1F7A39480912C0768
:103D0000882331F010922C0782E080932107A9CFFD
:103D10008AA1882309F598A1992379F080918400DC
:103D200090918500883C910510F018A21BC08091ED
:103D3000840090918500059611C080918400909137
:103D40008500069718F4A1E0A8A30CC08091840018
:103D500090918500059702C08FEF90E090938500C9
:103D600080938400B2E0AB1611F484E05BC3E5E01D
:103D7000AE1619F41092230774CFFAE0AF1661F46F
:103D800082E080932307222009F06BCF0894611C06
:103D9000711C811C911C65CF2FE0A21659F439A12A
:103DA0003F5F39A3383209F05CCF85E08093230769
:103DB00019A257CF84E1A81609F053CF029B15C072
:103DC00000D0E4EAF5E0ADB7BEB71296FC93EE93EF
:103DD00011970E9420198091180781BF22242394F3
:103DE000F1E0FAA30F900F903BC02AA1222341F4E7
:103DF0003CA1332389F42224CC24DD24760130C075
:103E00008CA1882349F495E1C916D104E104F10499
:103E100030F011BE1AA203C0CC24DD247601089430
:103E2000C11CD11CE11CF11C00D000D000D0EDEA77
:103E3000F5E0ADB7BEB71296FC93EE9311971396CB
:103E4000CD92DD92ED92FC9216970E9420192224C9
:103E5000EDB7FEB736960FB6F894FEBF0FBEEDBFB6
:103E6000F3E36F1671048104910410F0222019F419
:103E70002CA1222351F00E9488151092170710924E
:103E8000160766247724430104C03DA1332309F4B7
:103E9000E8CE81E0809323078DA31CA2E2CE80E0D0
:103EA00060E00E94471400D0E9EBF5E0ADB7BEB783
:103EB0001296FC93EE9311970E94E7100F900F90CB
:103EC00083E060E00E94471483E997E00E94140AAF
:103ED00010919607809197070E94DB052DB73EB79A
:103EE0002A5030400FB6F8943EBF0FBE2DBFEDB73D
:103EF000FEB731962EEC35E0ADB7BEB712963C93C7
:103F00002E93119712831382958384838091930754
:103F10008683178280919407808711860E94E7101C
:103F200083E0809323078DB79EB70A960FB6F89467
:103F30009EBF0FBE8DBF95CE832D0E942C0D71C2EA
:103F400080912D07882399F010922D070E94760A00
:103F500080E2A0EBB9E01D928A95E9F780916200BA
:103F60008E7F80936200332433941EA254C033208A
:103F700009F451C0BEA1BB3008F44AC080E29FE3FF
:103F8000A0E2BFE380939B0790939C07A0939D07BB
:103F9000B0939E078093A0079093A107A093A207D8
:103FA000B093A307A5EAB7E0E3E8F5E086E0019067
:103FB0000D928150E1F7ACEAB7E0EAE8F5E085E080
:103FC00001900D928150E1F7A7EBB7E0EAE8F5E048
:103FD00085E001900D928150E1F781E390E3A0E349
:103FE000B0E38093B2079093B307A093B407B09364
:103FF000B507809162008160809362008091CB0759
:104000009091CC0701969093CC078093CB073324F3
:10401000EEA1EF5FEEA3CE010A96BE01625F7F4F75
:104020000E9412096A857B858C859D8543E021E08D
:104030000DEB17E00E94A2226E857F858889998901
:1040400043E021E002EC17E00E94A22287E00E94F8
:10405000DF099093C8078093C7078630910548F41D
:1040600080E00E94C01586E48093180726E0B22EF7
:1040700018C08035910528F481E00E94C0158EEBB0
:104080000CC08639910528F482E00E94C0158CEDA1
:1040900004C083E00E94C0158FEF80931807BB24F3
:1040A000B39400D000D0EDB7FEB7319620EE35E0E6
:1040B000ADB7BEB712963C932E931197B28213827E
:1040C0000E9420190F900F900F900F903AA1332368
:1040D00019F08091180781BF87EB97E00E942D248B
:1040E000ADE088349A070CF09CC102970CF499C19A
:1040F00084EB90E060E070E040E050E00E94F0145B
:1041000000D02EEE35E0EDB7FEB7328321830E945A
:1041100020190F900F9085C1332029F08EE28093F3
:104120009D078093A2073BA1332339F48DEB97E0E1
:104130006AE977E00E945C1206C08DEB97E06AE9BD
:1041400077E00E94BC110E94030B83E08093230759
:104150001BA287CD87B7806487BF80911607909197
:1041600017078230910509F4D6C08330910530F4E9
:10417000009781F0019709F054C1B5C084309105D2
:1041800009F409C18430910508F4E6C0059709F0E7
:1041900048C11DC10E94E2158FEF90E06B2D70E0C9
:1041A0000E94442280E090E040E050E00E94F01441
:1041B00083E997E00E94140A8091930790E0BE0182
:1041C0006F5F7F4F4AE050E00E948F2480919307F9
:1041D0008A3020F489818A8380E3898380919407DF
:1041E00090E0BE016C5F7F4F4AE050E00E948F2458
:1041F000809194078A3020F48C818D8380E38C83B6
:104200008091950790E0BE01695F7F4F4AE050E0E2
:104210000E948F24809195078A3020F48F818887AF
:1042200080E38F8399812A813C814D815F816885FC
:1042300088E78A8B8B8B8C8B9D8B2E8B8F8B388F0B
:10424000498F8A8F5B8F6C8F8D8F8E8F8F8F8E01B2
:104250000E5E1F4F9EE0492E86E0582E40921507B5
:10426000D8018C91883719F08093D40902C05092FC
:104270001507F8018181883719F08093D50905C0A9
:10428000809115078B7F80931507D80112968C912A
:10429000883719F08093D60905C0809115078D7F66
:1042A000809315071092D7091092D80984ED99E0F0
:1042B00060E040E00E94A41588EB9BE0E0E9F1E0BB
:1042C0003197F1F70197D1F70F5F1F4FEFA1F8A5D5
:1042D0000E171F0709F0C2CF81E090E090931707F7
:1042E00080931607BECC0E94E2158FEF90E06B2DF5
:1042F00070E00E944422AB0180E090E060E070E05A
:104300000E94F0148DEB97E067E340E00E945216A4
:1043100082E090E01CC00E94E2158FEF90E06B2DD0
:1043200070E00E944422AB0180E090E060E070E029
:104330000E94F01482EC97E066E340E00E9452167F
:10434000332019F083E090E002C085E090E0909384
:1043500017078093160765C00E94E2158FEF90E063
:104360006B2D70E00E9444229B0188EC90E06B2D45
:1043700070E00E944422AB0180E090E0B9010E940D
:10438000F0148BE997E067E340919A070E94521678
:1043900084E090E0DCCF0E94E2158FEF90E06B2D7F
:1043A00070E00E9444229B0188EC90E06B2D70E04D
:1043B0000E944422AB0180E090E0B9010E94F01419
:1043C00080EA97E066E340E00E945216BECF0E946A
:1043D000E21587EB97E00E942D24FDE088349F07CB
:1043E00054F4029744F084EB90E06B2D70E00E944F
:1043F0004422CB0105C026E0B21629F480E090E00B
:1044000060E070E004C081E490E06CE070E040E0C7
:1044100050E00E94F0140E9496151DA26624772495
:10442000430183E0809323071CCC809125078823D8
:1044300009F017CC80912907882351F010922907A1
:1044400088B7806288BF89B7806289BF31E03BA3AB
:1044500080912A07882351F010922A0788B7806438
:1044600088BF89B7806489BF81E08CA381E04DCC8F
:10447000991B79E004C0991F961708F0961B881FB6
:104480007A95C9F78095089597FB092E07260AD0DB
:1044900077FD04D00CD006D000201AF470956195F9
:1044A0007F4F0895F6F7909581959F4F0895AA1B29
:1044B000BB1B51E107C0AA1FBB1FA617B70710F00F
:1044C000A61BB70B881F991F5A95A9F78095909541
:1044D000BC01CD0108952F923F924F925F926F924F
:1044E0007F928F929F92AF92BF92CF92DF92EF9284
:1044F000FF920F931F93CF93DF93CDB7DEB7CA1B05
:10450000DB0B0FB6F894DEBF0FBECDBF09942A882F
:10451000398848885F846E847D848C849B84AA84D7
:10452000B984C884DF80EE80FD800C811B81AA8164
:10453000B981CE0FD11D0FB6F894DEBF0FBECDBF2F
:10454000ED010895EF92FF920F931F93F22FF02E3B
:1045500047FD02C0E4E001C0E4E1242F332727FD3A
:10456000309537FF03C0309521953F4F4F2D512F88
:104570000F2FEE2E0E94B1268F2D912F1F910F919C
:10458000FF90EF900895CF93DF93BC0182309105A7
:1045900010F462E070E0A091DB09B091DC09ED015C
:1045A000E0E0F0E040E050E021C08881998186178A
:1045B000970769F48A819B81309719F093838283EE
:1045C00004C09093DC098093DB09FE0134C06817B6
:1045D000790738F44115510519F08417950708F447
:1045E000AC01FE018A819B819C01E9012097E9F6DB
:1045F00041155105A9F1CA01861B970B049708F4D0
:10460000BA01E0E0F0E02AC08D919C9111978417E7
:104610009507F9F46417750781F412968D919C91B2
:104620001397309719F09383828304C09093DC0929
:104630008093DB09FD0132964FC0CA01861B970BA0
:10464000FD01E80FF91F6193719302978D939C937D
:1046500043C0FD01828193819C01D9011097A1F68D
:104660008091D9099091DA09892B41F48091020750
:10467000909103079093DA098093D9094091040738
:10468000509105074115510541F44DB75EB7809132
:10469000000790910107481B590B2091D9093091CF
:1046A000DA0924173507B0F4CA01821B930B861769
:1046B000970780F0AB014E5F5F4F8417950750F06E
:1046C000420F531F5093DA094093D909F9016193BE
:1046D000719302C0E0E0F0E0CF01DF91CF91089547
:1046E000CF93DF93009709F450C0EC0122971B820F
:1046F0001A82A091DB09B091DC09109709F140E022
:1047000050E0AC17BD0708F1BB83AA83FE012191DD
:104710003191E20FF31FAE17BF0779F48D919C9191
:104720001197280F391F2E5F3F4F39832883129628
:104730008D919C9113979B838A834115510571F448
:10474000D093DC09C093DB0920C012968D919C9117
:104750001397AD01009711F0DC01D3CFFA01D38399
:10476000C28321913191E20FF31FCE17DF0769F465
:1047700088819981280F391F2E5F3F4FFA013183BD
:1047800020838A819B8193838283DF91CF910895D7
:10479000A0E0B0E0EEECF3E20C947322EC01A88010
:1047A000B980CA80DB80A114B104C104D10441F4F2
:1047B00084E2A82E89EDB82E8BE5C82E87E0D82E8E
:1047C000C601B5012DE133EF41E050E00E94192C04
:1047D00027EA31E440E050E00E94FA2B7B018C0193
:1047E000C601B5012DE133EF41E050E00E94192CE4
:1047F000CA01B9012CEE34EF4FEF5FEF0E94FA2BA4
:104800006E0D7F1D801F911F97FF04C06150704087
:1048100080409048688379838A839B839B013F779C
:10482000C901CDB7DEB7EAE00C948F220E94C823FD
:10483000089586E097E00E94C8230895A0E0B0E0C4
:104840008093060790930707A0930807B093090782
:104850000895662777270C941328FC018827992749
:10486000E89421912032E9F3293010F02E30C8F37A
:104870002B3241F02D3239F4689404C00E94B024E8
:10488000820F911D219120532A30C0F31EF4909580
:1048900081959F4F0895FB01DC0102C001900D92AC
:1048A00041505040D8F70895FB01DC010D900020E5
:1048B000E9F7119701900D920020E1F70895FB01AF
:1048C000DC0101900D920020E1F70895FB01DC016D
:1048D0004150504048F001900D920020C9F701C0AE
:1048E0001D9241505040E0F70895FB01519155232E
:1048F000A9F0BF01DC014D9145174111E1F759F4D1
:10490000CD010190002049F04D9140154111C9F3AE
:10491000FB014111EFCF81E090E001970895FB0189
:104920009F01E8944230C4F04532B4F44A3029F48F
:1049300097FB1EF4909581959F4F642F77270E94D7
:104940005722805D8A330CF0895D8193CB010097FB
:10495000A1F716F45DE251931082C9010C94812AEB
:104960007AE0979F902D879F802D910D11240895B7
:10497000AEE0B0E0EEEBF4E20C9479228C0186E03C
:104980008C831A8309838FEF9FE79E838D83CE01EB
:1049900001960E94D424EF81F885E00FF11F108268
:1049A0002E96E4E00C949522ABE0B0E0EAEDF4E260
:1049B0000C946B223C012B015A01FC0117821682D8
:1049C000838181FD03C06FEF7FEFC6C19AE0892E1E
:1049D0001E010894211C311CF3012381F20123FDE7
:1049E000859123FF81912F01882309F4B2C185327B
:1049F00039F423FD859123FF81912F01853229F41C
:104A000090E0B3010E94912AE7CF982FFF24EE2473
:104A10009924FFE1FF15D0F09B3269F09C3228F415
:104A2000903259F0933291F40EC09D3249F0903398
:104A300069F441E024C052E0F52A84E0F82A28C055
:104A400098E0F92A25C0E0E1FE2A22C0F7FC29C03F
:104A5000892F80538A3070F4F6FE05C0989C902C04
:104A60001124980E15C0E89CE02C1124E80EF0E209
:104A7000FF2A0EC09E3229F4F6FC6BC140E4F42AF2
:104A800007C09C3619F450E8F52A02C0983649F45C
:104A9000F20123FD959123FF91912F01992309F0B4
:104AA000B8CF892F8554833018F08052833038F482
:104AB00044E050E0A40EB51E5FE359830FC0933667
:104AC00031F0933779F0933509F056C020C0F501E5
:104AD0008081898342E050E0A40EB51E610101E0AF
:104AE00010E012C0F501C080D180F6FC03C06FEF6A
:104AF0007FEF02C0692D70E042E050E0A40EB51EC9
:104B0000C6010E94762A8C015FE7F52214C0F501E8
:104B1000C080D180F6FC03C06FEF7FEF02C0692D2B
:104B200070E042E050E0A40EB51EC6010E946B2A60
:104B30008C0150E8F52AF3FE07C01AC080E290E02D
:104B4000B3010E94912AEA948E2D90E0081719076C
:104B5000A8F30EC0F601F7FC8591F7FE81916F0175
:104B600090E0B3010E94912AE110EA9401501040B4
:104B70000115110579F7EAC0943611F0993669F5F7
:104B8000F7FE08C0F501208131814281538184E024
:104B900090E00AC0F501808191819C01442737FD96
:104BA0004095542F82E090E0A80EB91E9FE6F922AE
:104BB00057FF09C050954095309521953F4F4F4F75
:104BC0005F4FE0E8FE2ACA01B901A1012AE030E006
:104BD0000E94BD2AD82ED21840C0953729F41F2D27
:104BE0001F7E2AE030E01DC01F2D197F9F3661F027
:104BF000903720F4983509F0ACC00FC0903739F0E9
:104C0000983709F0A6C004C028E030E00AC010615F
:104C100014FD146020E130E004C014FD166020E1B2
:104C200032E017FF08C0F5016081718182819381B4
:104C300044E050E008C0F50180819181BC0180E032
:104C400090E042E050E0A40EB51EA1010E94BD2AF2
:104C5000D82ED2188FE7F82EF122F6FE0BC05EEFA9
:104C6000F522D91438F4F4FE07C0F2FC05C08FEE2B
:104C7000F82202C01D2D01C0192DF4FE0DC0FE0149
:104C8000ED0DF11D8081803319F499EEF92208C0F1
:104C90001F5FF2FE05C003C08F2D867809F01F5FED
:104CA0000F2DF3FC14C0F0FE0FC01E1510F09D2C4C
:104CB0000BC09D2C9E0C911A1E2D06C080E290E028
:104CC000B3010E94912A1F5F1E15C0F304C01E1578
:104CD00010F4E11A01C0EE2404FF0FC080E390E05D
:104CE000B3010E94912A02FF1DC001FD03C088E7A5
:104CF00090E00EC088E590E00BC0802F867891F0A0
:104D000001FF02C08BE201C080E2F7FC8DE290E07F
:104D1000B3010E94912A06C080E390E0B3010E9493
:104D2000912A9A94D914C0F3DA94F101ED0DF11D92
:104D3000808190E0B3010E94912ADD20A9F706C08E
:104D400080E290E0B3010E94912AEA94EE20C1F73C
:104D500043CEF30166817781CB012B96E2E10C947F
:104D60008722A9E0B0E0E7EBF6E20C946F226A013B
:104D7000122FA02EBE2C2BE3201718F42CE3922E1A
:104D800002C0902E9394AE014F5F5F4F27E0092D34
:104D90000E947329BC018981E82EFF24C701897014
:104DA0009070019711F4ADE209C0B1FE02C0ABE210
:104DB00005C0B0FC02C0A0E001C0A0E2E3FE3BC021
:104DC000AA2311F423E001C024E0211710F020E011
:104DD00002C0121B212FEB2CB4FE02C0322F0AC0DE
:104DE000F601322F80E202C0819331503323E1F784
:104DF000C20ED11CAA2319F0F601A1936F01F6018E
:104E00003196E2FE05C09EE4D6019C9381E404C085
:104E10009EE6D6019C9381E611968C9391833296FF
:104E2000DF01832F90E202C09D9381508823E1F738
:104E3000E30FF11D40C0E2FE42C0AA2311F423E0BB
:104E400001C024E0211710F020E002C0121B212F26
:104E5000EB2CB4FE02C0922F0AC0F601922F80E222
:104E600002C0819391509923E1F7C20ED11CAA236D
:104E700019F0F601A1936F01F6013196E2FE08C028
:104E800089E4D6018C938EE411968C9386E407C056
:104E900089E6D6018C938EE611968C9386E6818303
:104EA0003296DF01892F20E202C02D9381508823A2
:104EB000E1F7E90FF11D10822EEF3FEFAFC016169C
:104EC00017061CF041E050E003C0AB014F5F5F4F9D
:104ED000AA2019F480E090E003C08A2D90E00196AA
:104EE00020E030E0AA2311F021E030E0240F351F4C
:104EF000280F391F812F90E02817390714F020E080
:104F000002C0121B212F4B2D50E0CA0180719070FE
:104F1000B4FC0DC0B3FC0BC0F601322F40E202C05E
:104F2000419331503323E1F7C20ED11C01C0322F1F
:104F3000AA2319F0F601A1936F01892B11F0132F09
:104F40000AC0F601132F80E302C081931150112390
:104F5000E1F7C30ED11C092D060FBA8090E1892E0E
:104F6000912C8E209F20E4FE04C0F1E3BF1609F4CB
:104F70000150101614F001E003C0093008F008E0F9
:104F80009B0177FF02C020E030E0CB010196821B3D
:104F9000930BFE013196E80FF91F8EE2F82E3B01CC
:104FA000601A71088A2D90E044275527481B590B39
:104FB0008FEF2F3F380719F4D601FD926D0162176C
:104FC00073072CF06216730614F4808101C080E32D
:104FD0002150304031962417350724F0D6018D93A7
:104FE0006D01E6CF2617370749F4B5E3BB1528F066
:104FF000BB1621F48114910409F481E3F601819335
:10500000D601812F90E202C09C9381501196882393
:10501000D9F7E10FF11D108220E030E0C901299697
:10502000EEE00C948B22A0E0B0E0E9E1F8E20C9411
:105030007122EC015B016115710519F0FB0191838F
:105040008083F9908F2D90E00E944B2A892BC9F71D
:10505000FDE2FF1621F4F990EE24E39405C02BE263
:10506000F21609F4F990EE248E0101501040C801A7
:105070006CE872E043E050E00E94532A892B01F56E
:105080008E010E5F1F4FC8016FE872E045E050E0EF
:105090000E94532A892B19F48E01095F1F4FA11416
:1050A000B10419F0F50111830083E0FC04C070E045
:1050B00090E080E814C070E090E080E86FEF08C1F5
:1050C000C80164E972E043E050E00E94532A892B52
:1050D00069F4A114B10429F470E090E080EC6FE76A
:1050E000F7C02296F501D183C083F6CF8824992496
:1050F00040E050E060E070E0EF2DE053EA30A0F5D2
:10510000F2E0EF2A8E2D90E09C0128703070E2FED4
:1051100006C0232B79F50894811C911C2BC0232BEE
:1051200019F0089481089108DB01CA0112E0880F88
:10513000991FAA1FBB1F1A95D1F7480F591F6A1F45
:105140007B1F440F551F661F771F4E0F511D611D9A
:10515000711D483929E9520729E9620729E17207D7
:1051600048F084E0E82A06C0EE3F31F4E3FC39C0A1
:1051700098E0E92AF990C0CFE53311F0E53189F5DF
:1051800029912D3219F4E0E1EE2A05C02B3219F0F5
:1051900081E090E003C0299182E090E0E22FE053AB
:1051A000EA3018F0C81BD90B1CC020E030E0FCE04E
:1051B00020383F075CF4C901880F991F880F991F99
:1051C000280F391F220F331F2E0F311DE991E05395
:1051D000EA3068F3E4FE03C0309521953F4F820E1C
:1051E000931ECE2CDD24E1FE07C0A114B10421F0F2
:1051F0002197F501D183C083CB01BA010E94DC0263
:105200007B018C01F3E0CF22DD2423E0C216D10420
:1052100021F417FB109517F9109557016801C80183
:10522000B70120E030E040E050E00E941B2B8823D3
:1052300009F44AC097FE0DC02BEAE22E22E0F22EBE
:105240009094819491089394C0E2D0E000E010E043
:1052500012C093ECE92E92E0F92EF6CFF7012591DA
:10526000359145915491C601B5010E94432B5B01D4
:105270006C018C1A9D0A8C169D0684F7D595C795EE
:105280000F5F1F4F0630110529F08CEF9FEFE80EDE
:10529000F91EF1CFC501D6017C018D018C2D880F3F
:1052A0008D2D881F8F3F51F0C601B50120E030E001
:1052B00040E050E00E941B2B882331F482E290E012
:1052C0009093DE098093DD097E2D9F2D802F612F25
:1052D000272F392F482F562FB901CA01CDB7DEB776
:1052E000ECE00C948D22283008F027E03327DA0117
:1052F000990F311D87FD916000966105710539F4A4
:1053000032602E5F3D9330E32A95E1F708959F3F89
:1053100030F080387105610509F03C5F3C5F3D93DA
:10532000913008F08068911DDF93CF931F930F9306
:10533000FF92EF92192F987F9695E92F9695969563
:10534000E90FFF27EF5DFC4F99273327EE24FF2459
:10535000A701E70105900894079428F4360FE71E8B
:10536000F81E491F511D660F771F881F991F06944D
:10537000A1F70590079428F4E70EF81E491F561F61
:10538000C11D770F881F991F661F0694A1F705900E
:10539000079428F4F80E491F561FC71FD11D880F08
:1053A000991F661F771F0694A1F70590079420F4B4
:1053B000490F561FC71FD81F990F661F771F881FD9
:1053C0000694A9F784911095177041F0D695C7956A
:1053D00057954795F794E7941A95C1F7E7ECF2E0F3
:1053E00068941590159135916591959105907FE29E
:1053F0007395E118F10A430B560BC90BD009C0F79E
:10540000E10CF11E431F561FC91FD01D7EF47033DF
:1054100011F48A95E6CFE894015030F0080F0AF4B1
:105420000027021708F4202F2395022F7A3328F043
:1054300079E37D932A95E9F710C07D932A9589F643
:10544000069497956795379517951794E118F10A83
:10545000430B560BC90BD00998F023957E91739599
:105460007A3308F070E37C932013B8F77E91706173
:105470007D9330F0839571E37D9370E32A95E1F796
:105480001124EF90FF900F911F91CF91DF919927F9
:1054900087FD90950895911159C1803219F0895076
:1054A0008550D0F70895FB01DC014150504088F051
:1054B0008D9181341CF08B350CF4805E65916134E4
:1054C0001CF06B350CF4605E861B611171F3990B57
:1054D0000895881BFCCFFC010590615070400110BD
:1054E000D8F7809590958E0F9F1F0895FC0161500D
:1054F000704001900110D8F7809590958E0F9F1FF6
:105500000895DC01FC01672F71917723E1F7329751
:1055100004C07C916D9370836291AE17BF07C8F38E
:1055200008950F931F93CF93DF938C01EB018B8131
:1055300081FF1BC082FF0DC02E813F818C819D8128
:105540002817390764F4E881F9810193F983E88326
:1055500006C0E885F985802F0995892B31F48E8165
:105560009F8101969F838E8302C00FEF1FEFC801BA
:10557000DF91CF911F910F910895FA01AA2728304A
:1055800051F1203181F1E8946F936E7F6E5F7F4F10
:105590008F4F9F4FAF4FB1E03ED0B4E03CD0670F8C
:1055A000781F891F9A1FA11D680F791F8A1F911DDF
:1055B000A11D6A0F711D811D911DA11D20D009F42F
:1055C00068943F912AE0269F11243019305D319371
:1055D000DEF6CF010895462F4770405D4193B3E05A
:1055E0000FD0C9F7F6CF462F4F70405D4A3318F001
:1055F000495D31FD4052419302D0A9F7EACFB4E0B2
:10560000A6959795879577956795BA95C9F7009769
:105610006105710508959B01AC010A2E069457950A
:10562000479537952795BA95C9F7620F731F841F61
:10563000951FA01D089503D008F481E00895990FE7
:105640000008550FAA0BE0E8FEEF16161706E8074C
:10565000F907C0F012161306E407F50798F0621B6D
:10566000730B840B950B39F40A2661F0232B242B42
:10567000252B21F408950A2609F4A140A6958FEF61
:10568000811D811D08950BD07BC06CD028F071D096
:1056900018F0952309F05DC062C01124A5C081D027
:1056A000A0F3959FD1F3950F50E0551F629FF00135
:1056B000729FBB27F00DB11D639FAA27F00DB11D8E
:1056C000AA1F649F6627B00DA11D661F829F222717
:1056D000B00DA11D621F739FB00DA11D621F839F9E
:1056E000A00D611D221F749F3327A00D611D231F74
:1056F000849F600D211D822F762F6A2F11249F57C2
:1057000050408AF0E1F088234AF0EE0FFF1FBB1FE4
:10571000661F771F881F91505040A9F79E3F510583
:1057200070F017C061C05F3FECF3983EDCF38695E4
:1057300077956795B795F795E7959F5FC1F7FE2B2E
:10574000880F911D9695879597F908959927882731
:10575000089597F99F6780E870E060E008959FEFF3
:1057600080EC089500240A941616170618060906F8
:10577000089500240A9412161306140605060895C7
:10578000092E0394000C11F4882352F0BB0F40F44F
:10579000BF2B11F460FF04C06F5F7F4F8F4F9F4F8F
:1057A000089557FD9058440F551F59F05F3F71F011
:1057B0004795880F97FB991F61F09F3F79F0879578
:1057C0000895121613061406551FF2CF4695F1DF01
:1057D00008C0161617061806991FF1CF8695710591
:1057E000610508940895E894BB2766277727CB01C5
:1057F00097F90895629FD001739FF001829FE00D99
:10580000F11D649FE00DF11D929FF00D839FF00D3F
:10581000749FF00D659FF00D9927729FB00DE11DEB
:10582000F91F639FB00DE11DF91FBD01CF011124C8
:10583000089597FB092E05260ED057FD04D014D0ED
:105840000AD0001C38F450954095309521953F4F73
:105850004F4F5F4F0895F6F790958095709561953D
:105860007F4F8F4F9F4F0895A1E21A2EAA1BBB1B9B
:10587000FD010DC0AA1FBB1FEE1FFF1FA217B3071C
:10588000E407F50720F0A21BB30BE40BF50B661F32
:10589000771F881F991F1A9469F7609570958095F6
:1058A00090959B01AC01BD01CF010895F894FFCF05
:1058B0004D6F6E005475650057656400546875003F
:1058C000467269005361740053756E004A616E0040
:1058D000466562004D617200417072004D61790051
:1058E0004A756E65004A756C7900417567005365AD
:1058F0007074004F6374004E6F7600446563000A55
:1059000049324320646F6E652C2000726561642CFF
:1059100020000A52414D2025640041542B43574A30
:1059200041503D2250616C486F6D655F31222C22E1
:10593000676572626963696322004F4B000A526FA8
:1059400075746572204F4B000A526F757465722032
:105950004572726F72000A4D53472074797065204A
:1059600031000A4D534720747970652032000A00D7
:105970000A7365713A202564000A74656D703A25D2
:1059800073000A68756D3A2573000A6574656D7059
:105990003A2573000A6568756D3A2573000A6570CB
:1059A0007265733A2573000A656C75783A25730041
:1059B0000A657261696E3A2564000A4578745F620F
:1059C0006174743A202564000A4C44523A202564DC
:1059D000000A4974696D650041542B4349504E5487
:1059E000503D320041542B4349504E54503F002506
:1059F0006400474D54000A2025730054696D653AD0
:105A0000000A54696D6520676F7421202564202584
:105A100064202564202564202564202564000A5420
:105A20002061667465722073796E632025643A255F
:105A3000643A2564202564202564202564004154AF
:105A40002B43495053544152543D22544350222C2D
:105A500022003138342E3130362E3135332E313468
:105A60003900222C3830000A57454220434F4E4E11
:105A700000474554202F7570646174653F6B6579EC
:105A80003D5050445946534A4730444357584A566C
:105A90003700266669656C64313D00266669656C71
:105AA00064323D00266669656C64333D0026666994
:105AB000656C64343D00266669656C64353D00267E
:105AC0006669656C64363D00266669656C64373DC1
:105AD00000266669656C64383D000D0A0041542B50
