:100000000C94E1010C94FE010C94241A0C94FE0152
:100010000C94FE010C94FE010C94C4190C94DC1990
:100020000C941D1B0C94FE010C94571A0C94FE01A9
:100030000C94FE010C94FE010C94FE010C94FE0144
:100040000C94FE010C94FE010C949F1A0C94FE017A
:100050000C94FE010C94FE010C94FE010C94FE0124
:100060000C94FE010C94FE010C94FE010C94FE0114
:100070000C94FE010C94FE010C94E01A0C94FE0109
:100080000C94B5190C94FE010C94FE0100000000C4
:100090000000000000000000000000000000000060
:1000A0000100010001000100010001000100010048
:1000B0000100010001000100010001000100020037
:1000C0000200020002000200020002000200020020
:1000D0000300030003000300030003000400040006
:1000E00004000400040005000500050005000600EA
:1000F00006000600070007000700080008000800C7
:10010000090009000A000A000B000B000C000C009B
:100110000D000D000E000F000F0010001100110067
:100120001200130014001500160017001800190023
:100130001A001B001C001D001F00200021002300CE
:1001400024002600270029002B002C002E00300060
:1001500032003400360038003A003C003E004000D7
:100160004300450047004A004C004F005100540036
:10017000570059005C005F006200640067006A007D
:100180006D0070007300760079007C007F008200B3
:10019000850088008B008E009100940097009A00E3
:1001A0009C009F00A200A500A700AA00AD00AF0020
:1001B000B200B400B700B900BB00BE00C000C2006E
:1001C000C400C600C800CA00CC00CE00D000D200D7
:1001D000D300D500D700D800DA00DB00DD00DE0058
:1001E000DF00E100E200E300E400E500E600E700F4
:1001F000E800E900EA00EB00EC00ED00ED00EE00A5
:10020000EF00EF00F000F100F100F200F200F30067
:10021000F300F400F400F500F500F600F600F60037
:10022000F700F700F700F800F800F800F900F9000F
:10023000F900F900FA00FA00FA00FA00FA00FB00EF
:10024000FB00FB00FB00FB00FB00FC00FC00FC00D3
:10025000FC00FC00FC00FC00FC00FC00FD00FD00BC
:10026000FD00FD00FD00FD00FD00FD00FD00FD00A6
:10027000FD00FD00FD00FD00FD00FE00FE00FE0093
:10028000FE00FE00FE00FE00FF00FF00494E464952
:100290004E4954594E414ECDCCCC3D0AD7233C1744
:1002A000B7D13877CC2B329595E6241FB14F0A0091
:1002B0000020410000C84200401C4620BCBE4CCA81
:1002C0001B0E5AAEC59D7400407A10F35A00A072FE
:1002D0004E18090010A5D4E80000E8764817000081
:1002E000E40B54020000CA9A3B000000E1F505004F
:1002F0000080969800000040420F000000A0860198
:10030000000000102700000000E803000000006467
:1003100000000000000A00000000000100000000D2
:10032000002C76D888DC674F0823DFC1DFAE59E1A7
:10033000B1B796E5E3E453C63AE651997696E8E616
:10034000C28426EB898C9B62ED407C6FFCEFBC9CE9
:100350009F40F2BAA56FA5F490055A2AF75C936BFB
:100360006CF9676DC11BFCE0E40D47FEF520E6B5B6
:1003700000D0ED902E0300943577050080841E0890
:100380000000204E0A000000C80C333333330F98AE
:100390006E12831141EF8D2114893BE65516CFFE75
:1003A000E6DB18D1844B381BF77C1D901DA4BBE401
:1003B00024203284725E228100C9F124ECA1E53D43
:1003C000270011241FBECFEFD0E1DEBFCDBF17E065
:1003D000A0E0B1E0ECE2F9E502C005900D92AE318B
:1003E000B107D9F719E0AEE1B7E001C01D92AE3D0B
:1003F000B107E1F70E94501B0C94942C0C94F41953
:10040000A8E1B0E0E6E0F2E00C94B12269837A83DF
:100410008B839C832D833E834F835887B9E0EB2EDB
:10042000F12CEC0EFD1ECE010196B7010E9479045D
:100430008E010F5E1F4FCE010596B8010E94790410
:100440002985223008F47EC03989323010F4B80191
:100450007CC08A859A8989278A87243011F02230C6
:1004600031F4231709F06EC06DEF75E06EC03430C3
:1004700039F41D861E861F86188A1C861B8604C0BA
:10048000323021F484E08987B7015FC02B853C8539
:100490008B899C89281B390B3C872B87ED84FE8434
:1004A0000F851889AD88BE88CF88D88CEA14FB04E4
:1004B0000C051D0540F4EE0CFF1C001F111F215000
:1004C00030403C872B8720E030E040E050E080E087
:1004D00090E0A0E0B0E460E070E0EA14FB040C05FA
:1004E0001D0540F0282B392B4A2B5B2BEA18FB0803
:1004F0000C091D09B695A79597958795EE0CFF1CDD
:10050000001F111F6F5F7F4F6F31710531F7DA01E7
:10051000C9018F779070A070B07080349105A105EB
:10052000B10561F427FD0AC0E114F10401051105CC
:1005300029F0205C3F4F4F4F5F4F20782D873E873B
:100540004F87588BBE01675F7F4FCB010E94A4038A
:100550006896EAE00C94CD22A8E1B0E0E2EBF2E08C
:100560000C94B52269837A838B839C832D833E838D
:100570004F83588789E0E82EF12CEC0EFD1ECE014A
:100580000196B7010E9479048E010F5E1F4FCE01C4
:100590000596B8010E9479048985823040F08989E6
:1005A000823028F0C701B8010E94F10401C08FEF2A
:1005B0006896E6E00C94D122A8E0B0E0E2EEF2E02A
:1005C0000C94B1227B018C016115710581059105A7
:1005D00019F482E0898360C083E089838EE1C82EAC
:1005E000D12CDC82CB82ED82FE820F831887C8017A
:1005F000B7010E945503FC013197F7FF3BC022274A
:1006000033272E1B3F0B57016801022E04C0D694DE
:10061000C794B794A7940A94D2F740E050E060E002
:1006200070E081E090E0A0E0B0E004C0880F991F86
:10063000AA1FBB1F2A95D2F70197A109B1098E21E4
:100640009F21A023B1230097A105B10521F041E02E
:1006500050E060E070E04A295B296C297D294D83D8
:100660005E836F8378878EE190E08E1B9F0B9C8367
:100670008B8312C0309781F00E2E04C0EE0CFF1C4D
:10068000001F111F0A94D2F7ED82FE820F83188794
:10069000CE1ADF0ADC82CB821A82CE0101960E943A
:1006A000A4032896EAE00C94CD22EF92FF920F93D8
:1006B0001F937B018C0180E0E81680E0F80681E062
:1006C000080780E0180788F48FEFE816F1040105A9
:1006D000110531F028F088E090E0A0E0B0E017C00C
:1006E00080E090E0A0E0B0E012C080E0E81680E09A
:1006F000F80680E0080781E0180728F088E190E01C
:10070000A0E0B0E004C080E190E0A0E0B0E020E232
:1007100030E040E050E0281B390B4A0B5B0B04C073
:1007200016950795F794E7948A95D2F7F701EB5F52
:10073000F94F8081281B310941095109C9011F91D5
:100740000F91FF90EF900895DF92EF92FF920F9339
:100750001F93FC01E480F58006811781D1808081A0
:10076000823048F480E090E0A0E1B0E0E82AF92A85
:100770000A2B1B2BA5C0843009F49FC0823021F4C2
:10078000EE24FF24870105C0E114F10401051105E1
:1007900019F4E0E0F0E096C0628173819FEF623867
:1007A00079070CF05BC022E83FEF261B370B2A319C
:1007B00031052CF020E030E040E050E02AC0B801E4
:1007C000A701022E04C076956795579547950A9420
:1007D000D2F781E090E0A0E0B0E004C0880F991F5C
:1007E000AA1FBB1F2A95D2F70197A109B1098E2133
:1007F0009F21A023B1230097A105B10521F081E03D
:1008000090E0A0E0B0E09A01AB01282B392B4A2BF5
:100810005B2BDA01C9018F779070A070B0708034C3
:100820009105A105B10539F427FF09C0205C3F4FB0
:100830004F4F5F4F04C0215C3F4F4F4F5F4FE0E091
:10084000F0E02030A0E03A07A0E04A07A0E45A0711
:1008500010F0E1E0F0E079018A0127C0603871050D
:1008600064F5FB01E158FF4FD801C7018F77907005
:10087000A070B07080349105A105B10539F4E7FE90
:100880000DC080E490E0A0E0B0E004C08FE390E011
:10089000A0E0B0E0E80EF91E0A1F1B1F17FF05C0FD
:1008A00016950795F794E794319687E01695079586
:1008B000F794E7948A95D1F705C0EE24FF248701C9
:1008C000EFEFF0E06E2F679566276795902F9F7783
:1008D000D794DD24D7948E2F8695492F462B582FF9
:1008E0005D29B701CA011F910F91FF90EF90DF9032
:1008F0000895FC01DB01408151812281622F6F77D5
:1009000070E0221F2227221F9381892F880F822BBC
:10091000282F30E0991F9927991F11969C931197C2
:1009200021153105A9F5411551056105710511F430
:1009300082E037C082E89FEF13969C938E931297C4
:100940009A01AB0167E0220F331F441F551F6A95C0
:10095000D1F783E08C930DC0220F331F441F551F26
:1009600012968D919C911397019713969C938E9359
:100970001297203080E0380780E0480780E458076D
:1009800058F314962D933D934D935C9317970895C8
:100990002F3F310579F4411551056105710519F4B1
:1009A00084E08C93089564FF03C081E08C9312C0AF
:1009B0001C9210C02F57304013963C932E931297E1
:1009C00083E08C9387E0440F551F661F771F8A953D
:1009D000D1F7706414964D935D936D937C93179744
:1009E00008951F93DC01FB019C91923008F447C0ED
:1009F0008081823008F443C0943051F411961C91E8
:100A0000843099F58181682F70E0611B71093FC0C6
:100A1000843021F0923031F48230B9F18181882321
:100A200089F12DC011961C9111978230F1F08181CE
:100A30001817D9F412962D913C91139782819381C6
:100A40008217930794F028173907BCF014968D91FC
:100A50009D910D90BC91A02D2481358146815781B7
:100A6000281739074A075B0718F4112341F00AC019
:100A700082179307A407B50740F4112319F061E02A
:100A800070E005C06FEF7FEF02C060E070E0CB0167
:100A90001F91089582E080937000E1E7F0E080818B
:100AA00083608083E4E7F0E0808184608083089540
:100AB000E4E7F0E080818B7F8083089584EA80936F
:100AC00074008091740087FFFCCF089584E98093BF
:100AD00074008091740084FDFCCF089580937300AE
:100AE00084E8809374008091740087FFFCCF80912C
:100AF0007100887F883159F080917100887F883239
:100B000031F08091710090E0887F803409F491E0A9
:100B1000892F0895FC01662321F080917400806480
:100B200003C0809174008F7B809374008091740067
:100B30008068809374008091740087FFFCCF80915F
:100B40007100887F883539F080917100887F803509
:100B500011F080E0089580917300808381E0089512
:100B60008430E1F0853038F4823091F0833098F4AD
:100B7000813059F407C08630B9F0863090F0873064
:100B800021F415C020E031E014C020E030E011C0B5
:100B900024E031E00EC028E031E00BC02CE031E071
:100BA00008C020E131E005C024E131E002C028E1C5
:100BB00031E0C9010895863091F1873070F48330B7
:100BC00029F1843028F48130C1F08230C9F41BC08F
:100BD0008430F9F08530A1F41FC0893049F18A30A2
:100BE00028F48730F9F0883059F41FC08B3031F188
:100BF0008B3008F18C3021F424C02CE131E023C08B
:100C000020E030E020C020E231E01DC024E231E0ED
:100C10001AC028E231E017C02CE231E014C020E312
:100C200031E011C025E331E00EC02AE331E00BC012
:100C30002EE331E008C023E431E005C027E431E0D1
:100C400002C02BE431E0C9010895DF92EF92FF92D8
:100C50000F931F93DF93CF930F92CDB7DEB78C0125
:100C600080E07E010894E11CF11CB7010E94760926
:100C7000882309F44FC0F80113868DE4828780E24F
:100C800080878981282F2F70205D278390E08077CF
:100C9000907064E0959587956A95E1F7805D86830D
:100CA0005AE3D52ED58281E0B7010E9476098823C8
:100CB00089F18981282F2F70205DF801248390E02D
:100CC0008077907044E0959587954A95E1F7805D2F
:100CD0008383D28282E0B7010E9476098823D1F013
:100CE0002981822F8F70805DF801818330E0C901F6
:100CF0008071907034E0959587953A95E1F7805D25
:100D0000808325FF02C080E502C081E4F80181876D
:100D100081E001C080E00F90CF91DF911F910F9192
:100D2000FF90EF90DF900895DF93CF930F92CDB7B0
:100D3000DEB782E0BE016F5F7F4F0E947609898136
:100D4000829582700F90CF91DF910895DF93CF93BA
:100D50000F92CDB7DEB786E0BE016F5F7F4F0E9476
:100D6000760989810F90CF91DF910895DF93CF931A
:100D70000F92CDB7DEB785E0BE016F5F7F4F0E9457
:100D800076098981282F30E020713070F4E03595A4
:100D90002795FA95E1F7A901E3E0440F551FEA957D
:100DA000E1F7220F331F420F531F8F70840F0F90F4
:100DB000CF91DF910895DF93CF930F92CDB7DEB738
:100DC00084E0BE016F5F7F4F0E9476098981282FE2
:100DD00030E02073307094E0359527959A95E1F7CF
:100DE000A901B3E0440F551FBA95E1F7220F331F55
:100DF000420F531F8F70840F0F90CF91DF91089592
:100E0000DF93CF930F92CDB7DEB782E0BE016F5F65
:100E10007F4F0E9476098981282F30E02072307040
:100E2000E4E035952795EA95E1F7A90173E0440FD1
:100E3000551F7A95E1F7220F331F420F531F8F7012
:100E4000840F0F90CF91DF910895DF93CF930F928E
:100E5000CDB7DEB781E0BE016F5F7F4F0E9476099C
:100E60008981282F30E020773070B4E035952795C0
:100E7000BA95E1F7A901A3E0440F551FAA95E1F740
:100E8000220F331F420F531F8F70840F0F90CF918B
:100E9000DF910895DF93CF930F92CDB7DEB780E057
:100EA000BE016F5F7F4F0E9476098981282F30E055
:100EB0002077307074E0359527957A95E1F7A90190
:100EC00063E0440F551F6A95E1F7220F331F420F6D
:100ED000531F8F70840F0F90CF91DF9108951F9350
:100EE000DF93CF930F92CDB7DEB7182F82E0BE010C
:100EF0006F5F7F4F0E9476098981112311F0806214
:100F000001C08F7D898382E069810E945909811126
:100F100081E00F90CF91DF911F910895282F6AE013
:100F20000E947622482F50E0E4E0440F551FEA95D6
:100F3000E1F7822F0E947622942B86E0692F0E948F
:100F40005909811181E00895382F6AE00E947622C4
:100F5000282F22952071832F0E947622292B85E04D
:100F6000622F0E945909811181E00895382F6AE0AB
:100F70000E947622282F22952073832F0E947622AA
:100F8000292B84E0622F0E945909811181E0089584
:100F9000382F6AE00E947622282F22952072832F14
:100FA0000E947622292B82E0622F0E94590981112A
:100FB00081E00895382F6AE00E947622282F22953A
:100FC0002077832F0E947622292B81E0622F0E94B6
:100FD0005909811181E00895382F6AE00E94762234
:100FE000282F22952077832F0E947622292B80E0BC
:100FF000622F0E945909811181E008950F931F9378
:10100000DF93CF930F92CDB7DEB70E944A0500D091
:101010008FE491E0EDB7FEB7928381830E940519BA
:101020000F900F9080E08E010F5F1F4FB8010E945C
:101030007609882361F100D08BE591E0EDB7FEB72A
:10104000928381830E94051969816F7769830F906C
:101050000F9080E00E9459098823C9F000D082E6F1
:1010600091E0EDB7FEB7928381830E9405190F903E
:101070000F9082E0B8010E947609882341F06981CF
:1010800082E00E945909882319F081E001C080E0C4
:101090000F90CF91DF911F910F910895CF92DF9222
:1010A000EF92FF920F931F93DF93CF9300D000D066
:1010B0000F92CDB7DEB77C016B01FE01319685E062
:1010C000DF011D928A95E9F7129A1A9A88EE93E049
:1010D00020E931E0F9013197F1F70197D9F71A9832
:1010E00080ED97E00197F1F71A9A129885ED8A95AD
:1010F000F1F70A9998C020E431E0C9010197F1F7AE
:101100000A9B91C0C9010197F1F7FE01319650EA9F
:10111000A1E0B0E0BE016A5F7F4F2AC00196893C22
:10112000910519F480C080E090E00A9BF7CF852FED
:101130008A95F1F70A9B08C0CD01022E02C0880FE4
:10114000991F0A94E2F7482B80E090E005C00196D1
:10115000893C910509F467C00A99F9CF21503040C4
:101160008FEF2F3F3807F9F64193E617F70721F085
:1011700040E027E030E0D7CF129A1A9A88EE93E049
:1011800020E931E0F9013197F1F70197D9F7198199
:101190000A812B816C81802F810F820F860F9D81A8
:1011A000891709F040C0922F80E070E0682B792BFE
:1011B00077FF12C07F7780E090E00E94DC0220E0A1
:1011C00030E040E251EC0E940002D7016D937D9324
:1011D0008D939C9313970FC080E090E00E94DC02F7
:1011E00020E030E040E251E40E940002F701608319
:1011F000718382839383712F60E0202F30E0622B14
:10120000732B80E090E00E94DC0220E030E040E2BE
:1012100051E40E940002D6016D937D938D939C93BF
:10122000139780E001C08FEF0F900F900F900F90F9
:101230000F90CF91DF911F910F91FF90EF90DF9072
:10124000CF9008950E944E080895DF93CF9300D069
:1012500000D0CDB7DEB7BC0180E090E0A0E0B0E008
:1012600089839A83AB83BC83CE0101960E944E088A
:101270000F900F900F900F90CF91DF910895DF9313
:10128000CF9300D000D0CDB7DEB720E030E040E013
:1012900050E029833A834B835C83BE016F5F7F4FAD
:1012A0000E944E080F900F900F900F90CF91DF91FA
:1012B00008950F931F93182F062F0E945E0580ED4F
:1012C0000E946E05882371F0812F0E946E0588238D
:1012D00049F0802F0E946E05882321F00E94660548
:1012E00081E001C080E01F910F9108951F93CF937B
:1012F000DF93182FEB010E945E0580ED0E946E05C2
:101300008823B1F0812F0E946E05882389F00E9406
:101310005E0581ED0E946E05882351F0CE0160E0EC
:101320000E948A05882321F00E94660581E001C0A1
:1013300080E0DF91CF911F910895D79A149A87B3D7
:10134000806F87BB81B3806681BBE1E6F0E080817E
:1013500083618083089585B5846085BD85E591E0CE
:101360009093810080938000EBE8F0E080818362BD
:101370008083EAE8F0E080818C6080838FB5896AA1
:101380008FBD8EB58A608EBD83B7856083BF12BE68
:101390000895FC0120E090E03AE007C0939F802D83
:1013A000112491919053980F2F5F2617B8F3892F2E
:1013B0000895DC01FC0105C08C93803209F0119680
:1013C000319680818823C1F71C92089587B1806689
:1013D00087B986B1836086B9379A089597B1907FAF
:1013E000982B97B9369A3699FECF369A3699FECF12
:1013F00085B190E00895DF93CF9300D0CDB7DEB7ED
:101400008091D8099091D909009711F09C0102C0F0
:101410002EED39E000D000D088E691E0EDB7FEB7C0
:1014200092838183CE010196821B930B94838383E5
:101430000E9405190F900F900F900F900F900F9032
:10144000CF91DF9108950F931F938C010E944A075B
:10145000F80182830E942507F80181830E9400071A
:10146000F80180830E94DB06F80183830E94B606A0
:10147000F80184830E94A60690E04496F8019683C2
:1014800085831F910F9108950F931F93DF93CF933F
:10149000CDB7DEB7E2970FB6F894DEBF0FBECDBF73
:1014A0008E010F5F1F4FC80160E771E00E949D240D
:1014B000C8010E94001980E991E06AE570E00E948D
:1014C0003A19882359F000D083E991E0EDB7FEB7CF
:1014D000928381830E94051981E00AC000D08EE9C1
:1014E00091E0EDB7FEB7928381830E94051980E0F9
:1014F0000F900F90E2960FB6F894DEBF0FBECDBFEF
:10150000CF91DF911F910F910895A7E3B7E0EFEA24
:10151000F9E080E201900D928150E1F78091380767
:10152000809399078091390790913A07A0913B07E2
:10153000B0913C0780939A0790939B07A0939C07D8
:10154000B0939D0780913D0790913E07A0913F0782
:10155000B091400780939F079093A007A093A107A5
:10156000B093A207A4EAB7E0E1E4F7E086E00190D7
:101570000D928150E1F78091A8078093A9078EE230
:101580008093A8071092AA07ABEAB7E0E7E4F7E078
:1015900085E001900D928150E1F780914C07909188
:1015A0004D07A0914E07B0914F078093B1079093DC
:1015B000B207A093B307B093B407A6EBB7E0E0E59A
:1015C000F7E085E001900D928150E1F781E0089508
:1015D0000F931F9300D08CEA91E0ADB7BEB712967F
:1015E0009C938E9311970E94051900D0EDB7FEB71A
:1015F00031968EEA91E0ADB7BEB712969C938E936A
:10160000119780913707828313820E94051987EB17
:1016100091E0EDB7FEB7928381830CEB17E0148362
:1016200003830E94051980EC91E0ADB7BEB7129616
:101630009C938E9311970B5F1F4F14961C930E93E0
:1016400013970E94051988EC91E0EDB7FEB79283DD
:1016500081830AE917E0148303830E94051982ED50
:1016600091E0ADB7BEB712969C938E9311970B5F26
:101670001F4F14961C930E9313970E9405198BED20
:1016800091E0EDB7FEB7928381830B5F1F4F148308
:1016900003830E94051985EE91E0ADB7BEB712969F
:1016A0009C938E931197095F1F4F14961C930E9372
:1016B0001397015110400E9405190F900F900F9041
:1016C0000F90C80147960E946B2400D000D02EEEE8
:1016D00031E0EDB7FEB732832183948383830E9488
:1016E00005190F900F900F900F90C8014C960E9413
:1016F0006B2400D000D028EF31E0ADB7BEB7129612
:101700003C932E93119714969C938E9313970E945B
:10171000051986E092E0EDB7FEB792838183809150
:10172000C6079091C707948383830E9405190F9081
:101730000F900F900F901F910F910895AF92BF924D
:10174000CF92DF92EF92FF920F931F93DF93CF938D
:10175000CDB7DEB76D970FB6F894DEBF0FBECDBF25
:10176000182F00D08FE092E0ADB7BEB712969C93D1
:101770008E9311970E9405190F900F90112369F015
:1017800086E192E00E94001980E593EC20E931E0C7
:10179000F9013197F1F70197D9F70E94A31882E276
:1017A00092E00E9400193AE5E32EF12C012D112D53
:1017B00020E9A22E21E0B22E9DE2C92E92E0D92E80
:1017C00025C088EE93E0F5013197F1F70197D9F73D
:1017D00000D000D000D0EDB7FEB7D282C182ADB745
:1017E000BEB71396ED92FD920D931C9316970E942F
:1017F00005190894E108F10801091109EDB7FEB7D0
:1018000036960FB6F894FEBF0FBEEDBF8DEE97E093
:1018100060E372E00E94B324009729F4E114F1041C
:101820000105110571F600D000D084E392E0ADB758
:10183000BEB712969C938E9311978DEEC82E87E0BB
:10184000D82E1496DC92CE9213970E9405190F9011
:101850000F900F900F90E114F1040105110511F4A0
:1018600010E0CBC0C60169E372E00E94B324DE0140
:101870001996FC01369684E101900D928150E1F7B2
:10188000EDB7FEB73E970FB6F894FEBF0FBEEDBFA3
:1018900031968FE392E0ADB7BEB712969C938E93CC
:1018A000119780919207828313828091930784839A
:1018B000158280919407868317828091960780878E
:1018C0001186809195078287138680919707909162
:1018D0009807958784870E94051989859A859A8338
:1018E0008983EDB7FEB73E960FB6F894FEBF0FBEE4
:1018F000EDBF8E010F5F1F4FC8010E946B248093C4
:1019000092070E94C8078C859D859A838983C801A8
:101910000E946B24809393070E94DA078F85988931
:101920009A838983C8010E946B24809394070E9444
:10193000EC078A899B899A838983C8010E946B245A
:10194000809396070E94A4078D899E899A83898334
:10195000C8010E946B24809395070E94B607888D6A
:10196000998DAA8DBB8D8C839D83AE83BF83CE0161
:1019700004960E946B2480939707909398070E9487
:101980008E070E940007182F0E942507082F0E942B
:101990004A07F82E0E94DB06E82E0E94B606D82ED3
:1019A0000E94A6062DB73EB72E5030400FB6F894D1
:1019B0003EBF0FBE2DBFEDB7FEB731962CE532E02E
:1019C000ADB7BEB712963C932E9311971283138234
:1019D00004831582F6821782E0861186D2861386EA
:1019E000848715860E94051911E0EDB7FEB73E9673
:1019F0000FB6F894FEBF0FBEEDBF0E94A318812F53
:101A00006D960FB6F894DEBF0FBECDBFCF91DF91BC
:101A10001F910F91FF90EF90DF90CF90BF90AF900C
:101A20000895CF92DF92EF92FF920F931F93DF936F
:101A3000CF93CDB7DEB7CF5AD0400FB6F894DEBF04
:101A40000FBECDBF882329F08EE280939C07809340
:101A5000A1078AE997E00E94D9098FE997E00E94DF
:101A6000D90984EA97E00E94D9098BEA97E00E949D
:101A7000D90981EB97E00E94D90986EB97E00E9493
:101A8000D9094AE1C42ED12CCC0EDD1EC6016CE76B
:101A900072E00E949D24C60160E972E00E949224D7
:101AA000C60160EA72E00E949224C6010E940019F9
:101AB00080E991E064E170E00E943A19882309F41A
:101AC000C5C000D085EA92E0EDB7FEB7928381836E
:101AD0000E9405190F900F90C6016FEA72E00E94F4
:101AE0009D24C60160ED72E00E949224C6016CEB59
:101AF00077E00E949224C60169ED72E00E94922470
:101B0000C60161EC77E00E949224C60162EE72E0A9
:101B10000E949224C6016AE977E00E949224C601DD
:101B20006BEE72E00E949224C6016FE977E00E949A
:101B30009224C60164EF72E00E949224C60164EA16
:101B400077E00E949224C6016DEF72E00E94922419
:101B5000C6016BEA77E00E949224C60166E073E05A
:101B60000E949224C60161EB77E00E949224C60194
:101B70006FE073E00E949224C60166EB77E00E945A
:101B80009224C60168E173E00E949224F60101905C
:101B90000020E9F73197CF018C199D097E01089447
:101BA000E11CF11CB7014AE050E00E94CD248E01F7
:101BB0000A5F1F4FC8016BE173E00E949D24C801BA
:101BC000B7010E949224C8010E94001987E293E0A5
:101BD00064E170E00E943A198823B1F0C6010E94C6
:101BE000001989E293E062E370E00E943A198823C9
:101BF00021F480E393E00E940019809162008F7EBF
:101C00008093620081E04DC080916200806180938A
:101C10006200809162008D7F8093620088EE93E085
:101C200020E931E0F9013197F1F70197D9F7809177
:101C3000620082608093620080E395E720E931E0F2
:101C4000F9013197F1F70197D9F721C0809162002E
:101C5000806180936200809162008D7F809362003A
:101C600088EE93E020E931E0F9013197F1F701972F
:101C7000D9F78091620082608093620080E395E7EB
:101C800020E931E0F9013197F1F70197D9F7809117
:101C9000C8079091C90701969093C9078093C80718
:101CA00080E0C155DF4F0FB6F894DEBF0FBECDBF49
:101CB000CF91DF911F910F91FF90EF90DF90CF9028
:101CC00008950E94401480E40E94181484E00E9449
:101CD00022148CE00E94221484E00E9422148CE0E2
:101CE0000E94221484E00E9422148EE00E9422149A
:101CF0008EE00E94221484E00E9422148BE10E9454
:101D0000221483E10E9422148BE10E94221483E1B9
:101D10000E9422148BE10E94221481E10E9422146D
:101D200081E10E9422148BE10E94221484E00E942F
:101D300022148EE00E9422148EE00E9422148FE171
:101D40000E9422148FE10E9422148FE10E9422142B
:101D50008EE00E94221484E00E9422148BE10E94F3
:101D6000221481E10E94221481E10E94221480E069
:101D70000E94221480E00E94221480E00E9422141B
:101D800081E10E9422148BE10E94221486E00E94CD
:101D9000221489E00E94221489E00E94221486E025
:101DA0000E94221480E00E94221480E00E942214EB
:101DB00080E00E94221480E00E94221484E00E94AD
:101DC000221485E10E9422148EE00E9422148FE1E9
:101DD0000E9422148EE00E94221485E10E942214A7
:101DE00084E00E94221480E00E9422148EE00E946F
:101DF000221484E00E94221484E00E94221485E1CF
:101E00000E9422148FE10E9422148FE10E9422146A
:101E100081E10E9422148FE10E94221480E10E943D
:101E200022148CE10E94221484E10E94221480E09A
:101E30000E9422148AE10E94221485E10E94221449
:101E40008FE10E94221485E10E94221480E80E9402
:101E500018140895EF92FF921F93CF93DF938FE0B2
:101E600080931A070E946D1587B7806487BF10E0C2
:101E70005CE3E52E53E0F52EC0E9D1E01093330783
:101E800010933407109335071093360700D000D015
:101E9000EDB7FEB73196ADB7BEB71296FC92EE9293
:101EA0001197128313820E94051988E893E10F901D
:101EB0000F900F900F90FE013197F1F70197D9F72E
:101EC0001F5F1A30D8F210E0D9CFCF92DF92EF9295
:101ED000FF920F931F93CF93DF93AB98AC98AD987D
:101EE000809162008F7B8093620080E197E220E91D
:101EF00031E0F9013197F1F70197D9F7C0E0D0E06F
:101F000000EE1BEAC035D10518F4CE01BE0103C0B6
:101F1000CE0160E570E040E050E00E94D514C801B9
:101F20000197F1F72196CA3FD10561F780E197E269
:101F300020E931E0F9013197F1F70197D9F7AE9A2D
:101F400088EB9BE020E931E0F9013197F1F7019747
:101F5000D9F7AB9A88EB9BE020E931E0F9013197A2
:101F6000F1F70197D9F7AC9A88EB9BE020E931E0D3
:101F7000F9013197F1F70197D9F7AF9A88EB9BE018
:101F800020E931E0F9013197F1F70197D9F7AD9ADE
:101F900088EB9BE020E931E0F9013197F1F70197F7
:101FA000D9F78091620080648093620088EB9BE0A7
:101FB00020E931E0F9013197F1F70197D9F787B7B7
:101FC000806487BF80E197E220E931E0F901319731
:101FD000F1F70197D9F773E3D72E60E4C62EC0E07E
:101FE000DDE7AE9885B3805885BB85B38C2585BB6E
:101FF0000E94572469E070E00E9482228093330798
:102000000E94572469E070E00E9482228093340786
:102010000E94572469E070E00E9482228093350775
:102020000E94572469E070E00E9482228093360764
:102030000E9457248C010E9457247C010E9457243F
:10204000FC01C8016FEF70E00E9482228C01C70181
:102050006FEF70E00E9482229C01CF016FEF70E071
:102060000E948222AC01C801B9010E94D5142D2D15
:1020700004C0CE010197F1F721502223D1F783E06C
:10208000D81619F08EEFD80EACCF87B78F7B87BFED
:10209000AB98AC98AD98809162008F7B8093620082
:1020A000AF98AE9880E090E060E070E040E050E0F3
:1020B0000E94D51480E197E220E931E0F9013197DF
:1020C000F1F70197D9F7DF91CF911F910F91FF9011
:1020D000EF90DF90CF9008958F929F92AF92BF9232
:1020E000CF92DF92EF92FF920F931F93DF93CF93E4
:1020F000CDB7DEB7E2970FB6F894DEBF0FBECDBF07
:102100004C01D62EC72E8A017C01E40EF51ED701A4
:102110000D900020E9F71197AE19BF095E010894F0
:10212000A11CB11CC501B701AD010E94A424ED2D75
:10213000FC2DDF010D900020E9F71197AE1BBF0BBE
:10214000C7016D2D7C2DAD010E94A424AD2DBC2DA9
:10215000FD0101900020E9F73197EA1BFB0B0E0F00
:102160001F1FC401800F911FB5010E94922480E0BF
:1021700090E0E2960FB6F894DEBF0FBECDBFCF91D0
:10218000DF911F910F91FF90EF90DF90CF90BF9064
:10219000AF909F908F900895EF92FF920F931F93AF
:1021A000DF93CF93CDB7DEB7F984EA84EF2DFE2D10
:1021B000DF010D900020E9F7CD018E1B9F0B0E94DF
:1021C0000123182F092F9E01255F3F4F6F2D7E2D74
:1021D000A9010E94F624812F902F0E946814812F5C
:1021E000902F0E94AE23CF91DF911F910F91FF900E
:1021F000EF900895CF92DF92EF92FF920F931F938B
:10220000CF93DF93BC01F6E5CF2EF7E0DF2EF6018A
:10221000B89683E1DF011D928A95E9F7E60164969D
:10222000DE0184E10D9001928150E1F783E1FE012E
:1022300011928A95E9F7EAE6F7E0DF01549784E125
:102240000D9001928150E1F783E1D6011D928A95AC
:10225000E9F7DB010D900020E9F71197A61BB70BFA
:10226000C601AD010E94892483E061E00E942C1424
:1022700080E493E00E94681483E061E00E942C14E3
:1022800000D000D0E5E5EE2EE3E0FE2EEDB7FEB780
:10229000F282E1820EE717E0148303830E94CC10E0
:1022A0000F900F900F900F9083E062E00E942C142B
:1022B00080E493E00E94681483E062E00E942C14A2
:1022C00000D000D0ADB7BEB71296FC92EE92119737
:1022D0000451104014961C930E9313970E94CC1037
:1022E0000F900F900F900F9083E063E00E942C14EA
:1022F00080E493E00E94681483E063E00E942C1461
:1023000000D000D0EDB7FEB7F282E182D482C38262
:102310000E94CC1028E833E10F900F900F900F909F
:1023200040E951E0CA010197F1F721503040D1F75F
:10233000DF91CF911F910F91FF90EF90DF90CF90A1
:102340000895CF92DF92EF92FF920F931F936C014B
:102350007B0180E061E00E942C1400D000E413E0D7
:10236000EDB7FEB7128301830E94CC100F900F903F
:1023700080E062E00E942C1400D0EDB7FEB712831B
:1023800001830E94CC100F900F9080E063E00E94C8
:102390002C1400D0EDB7FEB7128301830E94CC103D
:1023A0000F900F9080E061E00E942C1400D088E52F
:1023B00093E0EDB7FEB7928381830E94CC1000D0EA
:1023C00082E693E0EDB7FEB7928381838DE190E0E2
:1023D000E80EF91EF482E3820E94CC100F900F9059
:1023E00086E693E0EDB7FEB7928381830E94CC101E
:1023F0000F900F9080E062E00E942C1400D089E6DC
:1024000093E0EDB7FEB7928381830E94CC1000D099
:1024100003E713E0EDB7FEB712830183F60184856D
:102420009585EDB7FEB7948383830E94CC100F90FF
:102430000F900F900F9080E063E00E942C1400D06A
:1024400087E793E0EDB7FEB7928381830E94CC10BB
:1024500000D0EDB7FEB712830183F601868597851C
:10246000EDB7FEB7948383830E94CC100F900F903A
:102470000F900F901F910F91FF90EF90DF90CF90F2
:102480000895CF92DF92EF92FF920F931F93CF9315
:10249000DF937C01EB0180E061E00E942C1400D00E
:1024A00000E413E0EDB7FEB7128301830E94CC1065
:1024B0000F900F9080E062E00E942C1400D0EDB7E6
:1024C000FEB7128301830E94CC100F900F9080E022
:1024D00063E00E942C1400D0EDB7FEB71283018395
:1024E0000E94CC100F900F9080E061E00E942C14AD
:1024F00080E00E94221400D000D0A2E6CA2EA3E001
:10250000DA2EEDB7FEB7D282C182F482E3820E9456
:10251000CC100F900F900F900F9084E00E94221427
:1025200083E40E94481480E062E00E942C1481E061
:102530000E94221400D000D0EDB7FEB7D282C18233
:102540002196D483C3830E94CC100F900F900F90DC
:102550000F9084E00E94221483E40E9448148AE0D1
:1025600061E00E942C1482E00E94221400D000D06E
:1025700000E813E0EDB7FEB71283018385E090E039
:10258000E80EF91EF482E3820E94CC100F900F90A7
:102590000F900F908AE062E00E942C1483E00E946A
:1025A000221400D000D0EDB7FEB712830183259628
:1025B000D483C3830E94CC100F900F900F900F9084
:1025C00080E063E00E942C1486E00E94221400D078
:1025D00000D0EDB7FEB7D282C1822596D483C383E3
:1025E0002B970E94CC100F900F900F900F9088E0C7
:1025F00063E00E942C1487E00E9422148AE063E0CA
:102600000E942C1485E00E9422148A899E012E5E6D
:102610003F4F8F3359F400D000D086E893E0EDB7F8
:10262000FEB792838183348323830DC0C9010E9446
:102630006B2400D000D02DE833E0EDB7FEB7328335
:102640002183948383830E94CC100F900F900F906E
:102650000F90CE0148960E946B248458934044F416
:1026600080E160E00E942C1400D084E993E007C070
:1026700080E160E00E942C1400D089E993E0EDB77E
:10268000FEB7928381830E94CC100F900F90DF9150
:10269000CF911F910F91FF90EF90DF90CF90089511
:1026A0000F931F93DF93CF93CDB7DEB7E2970FB6AB
:1026B000F894DEBF0FBECDBFF8941092220700D071
:1026C0000FEC17E0EDB7FEB7128301830E940519E6
:1026D0000F900F908091CF07833219F0803479F5F5
:1026E0002AC0D8011196FD0101900020E9F7E15DB3
:1026F000F7408E010F5F1F4FC801BD01AF010E945F
:10270000A42400D000D08DE993E0EDB7FEB792830A
:102710008183148303830E9405190F900F900F90FB
:102720000F90C8010E94E91880E991E06EE170E025
:102730000E943A190FC000D081EA93E003C000D094
:1027400088EA93E0EDB7FEB7928381830E94051972
:102750000F900F900E94A919DF987894E2960FB617
:10276000F894DEBF0FBECDBFCF91DF911F910F91C7
:102770000895662311F0DE9A01C0DE98DD98D39AA1
:10278000D09AD29AD19AD998DA98D898DB9887FDBE
:10279000D99A86FDDA9A85FDD89A84FDDB9ADC9A6F
:1027A00000C0DC98D998DA98D898DB9883FDD99A3C
:1027B00082FDDA9A81FDD89A80FDDB9ADC9A00C00E
:1027C000DC98DB9AD89ADA9AD99A0895882311F07E
:1027D000DE9A01C0DE98DD9AD398D098D298D1982D
:1027E000DC9A00C0CB9B02C080E101C080E0C899A8
:1027F0008062CA998064C9998068DC9800C0DC9ABC
:1028000000C0CB998160C8998260CA998460C999D7
:102810008860DC98089580E00E94E61387FDFBCF76
:1028200088E090E00197F1F780E00E94E6130895B8
:102830001F93182F0E940B14812F60E00E94B91380
:102840001F9108951F93182F0E940B14812F61E090
:102850000E94B9131F910895662311F4805809C08E
:10286000613011F4805405C0623011F48C5601C0FF
:102870008C520E94181408950E940B1490E0089541
:1028800081E00E941814089582E00E9418140895AF
:102890001F93182F0E940B14982F1A3099F484312B
:1028A00010F480E40BC08054843110F484E106C03D
:1028B00094519C3210F080E001C084E580580E9461
:1028C000181404C0812F61E00E94B9131F9108956C
:1028D000CF93DF93EC0102C00E94481489918823B2
:1028E000D9F7DF91CF910895CF93DF93EC0102C028
:1028F0000E94481489918823D9F7DF91CF910895D8
:10290000CF93DF93EC0102C00E944814FE01219690
:1029100084918823C9F7DF91CF9108951F93182FD1
:10292000D69AD59AD49AD39AD09AD29AD19A80E04C
:102930009AEF0197F1F7D89ADB9ADC9A00C0DC98FD
:1029400080E09EE40197F1F7DC9A00C0DC9880E01B
:1029500091E0FC013197F1F7DC9A00C0DC98FC01B2
:102960003197F1F7DB98DC9A00C0DC980197F1F71A
:1029700088E20E94181488E00E9418140E944014F3
:1029800086E00E941814812F0E9418141F91089548
:1029900084B3886F84BBE1E6F0E08081806480834B
:1029A00084B3876084BB8F9A089590937900809355
:1029B00078007BBD6ABD59BD48BD08958230D9F00D
:1029C000833028F4882341F08130B9F50CC083307E
:1029D000E9F0843091F52CC080911A0783FF23C061
:1029E000AB9AAC9806C080911A0782FF1CC0AB98C6
:1029F000AC9AAD9807C080911A0781FF14C0AB98BC
:102A0000AC98AD9A809162008F7B0AC080911A07C2
:102A100080FF09C0AB98AC98AD988091620080644B
:102A2000809362000DC0AB98AC98AD98AD9808C08B
:102A3000AB98AC98AD98AD980895843009F44CC02B
:102A4000643061F1653050F46130C9F06130A0F05C
:102A50006230D1F0633009F03FC01BC0673059F1DC
:102A6000683028F46530E9F06630B1F51FC0683091
:102A700041F1693089F52BC085B3887F0DC085B3DE
:102A80008C7F85BBAA9A21C085B3897F85BBA89A14
:102A90001CC0A99885B3856085BB17C085B3887FA6
:102AA0000DC085B38C7F85BBAA9A09C085B3897F89
:102AB00085BBA89A04C0A99885B3856085BB979A01
:102AC000089585B38A7F85BBA99A97980895A89899
:102AD00085B3866085BB97980895AB9AAC9AAD9AFA
:102AE000E2E6F0E080818064808387B7806487BFFE
:102AF000AF9AAE9A0895AB98AC98AD98E2E6F0E044
:102B000080818F7B808387B78F7B87BFAF98AE989C
:102B10000895FC0180818053809333078181805325
:102B2000809334078281805380933507838180535B
:102B300080933607662311F0AF9A01C0AF98442303
:102B400011F0AE9A0895AE980895813059F0813011
:102B500028F0823051F0833071F40AC082B380666D
:102B600082BB0895959A969808959598969A089597
:102B700082B38F7982BB0895AE98AF988091780028
:102B8000909179008AB59BB588B599B50895EF9273
:102B9000FF920F931F93CF93DF93AE98AF988091DE
:102BA000780090917900E82E8AB59BB5F82E88B50B
:102BB00099B5082F8FE080931A071FEFC0E8DEE376
:102BC000E110EA94F110FA94011101508E2D90E079
:102BD0002F2D30E0402F50E09093790080937800C3
:102BE0003BBD2ABD59BD48BDCE010197F1F7812FEC
:102BF00069E10E947622992301F50E94572469E039
:102C000070E00E948222809333070E94572469E07B
:102C100070E00E948222809334070E94572469E06A
:102C200070E00E948222809335070E94572469E059
:102C300070E00E94822280933607115009F0C0CFC5
:102C400010927900109278001BBC1ABC19BC18BCF9
:102C500010921A07AE98AF9880E49CE90197F1F7BB
:102C6000DF91CF911F910F91FF90EF9008950F93F7
:102C70001F93CF93DF93EC01162F042F0E9467243C
:102C800020E030E040E251E40E94AC02181634F437
:102C90008B818A831B831C828FE00AC088818032EB
:102CA00011F480E388838B818A831B831C8287E0F5
:102CB00080931A0740E0011141E0CE0161E00E94DB
:102CC0008915DF91CF911F910F910895C0988FEFD3
:102CD0000E945718C09A0895CF93DF93EC010E9489
:102CE0006616982F907486FF05C0209719F0869578
:102CF00087708883892FDF91CF910895C09881EEE6
:102D00000E945718C09A0895C09882EE0E945718E2
:102D1000C09A0895FF920F931F93CF93DF93162FBE
:102D2000072FF42EC0988F7180620E945718212FB0
:102D3000302FC901EC0110E004C089910E9457189E
:102D40001F5F1F15D0F3C09ADF91CF911F910F9194
:102D5000FF9008951F93162FC0988F7180620E9474
:102D60005718812F0E945718C09A1F9108950F93EA
:102D70001F93CF93DF938C01C09881E60E94571870
:102D8000C0E0D0E08FEF0E945718F801EC0FFD1F54
:102D900080832196C032D105A9F7C09A87E060E40C
:102DA0000E94AA160E94661685FF04C087E060E2B2
:102DB0000E94AA16DF91CF911F910F910895FF9263
:102DC0000F931F93CF93DF93162F072FF42EC098E6
:102DD0008F710E945718212F302FC901EC0110E08C
:102DE00005C08FEF0E94571889931F5F1F15C8F306
:102DF000C09ADF91CF911F910F91FF900895C098D5
:102E00008F710E9457188FEF0E945718C09A08952B
:102E100080E00E94FF16682F6C6080E00E94AA1676
:102E2000089586E00E94FF16682F677D606286E045
:102E30000E94AA16089586E00E94FF16682F666019
:102E400086E00E94AA160895949880E00E94FF16DA
:102E5000682F6E7F80E00E94AA1680E00E94FF1615
:102E6000682F626080E00E94AA1687E060E70E94F7
:102E7000AA160E947E1688E592E00197F1F7089560
:102E8000DC01149620E030E0FB01E20FF31F8C918F
:102E900080832F5F3F4F119725303105A9F70895A3
:102EA0000F931F93DF93CF9300D000D00F92CDB735
:102EB000DEB7AC01A5E1B7E0FC0185E001900D9221
:102EC0008150E1F7CA018E010F5F1F4FB8010E94C8
:102ED00040178AE0B80145E00E948A1680E1B801F7
:102EE00045E00E948A160F900F900F900F900F9060
:102EF000CF91DF911F910F9108950F931F93DF934F
:102F0000CF9300D000D00F92CDB7DEB78823A1F4C5
:102F1000A0E1B7E0FB0185E001900D928150E1F75F
:102F2000CB018E010F5F1F4FB8010E9440178AE04E
:102F3000B80145E00E948A160F900F900F900F90F5
:102F40000F90CF91DF911F910F91089580E060E184
:102F500077E00E947D1780E00E94FF16682F616075
:102F600080E00E94AA1680E00E94FF16682F62602F
:102F700080E00E94AA1687E060E70E94AA160E94DD
:102F800084160E947E16949A88E592E00197F1F7E4
:102F900008950F931F93CF93DF938C010E94241702
:102FA000C09880EA0E945718C0E0D0E0F801EC0F0A
:102FB000FD1F80810E9457182196C032D105B1F7BC
:102FC000C09A949A80E58A95F1F7949815E3812F39
:102FD0008A95F1F70E9466168073C9F30E946616FF
:102FE000082F85E06CE40E94AA1680E00E94FF167C
:102FF000682F6D7F80E00E94AA160E94A61710E03D
:1030000085E0169507958A95E1F7802F8170DF910D
:10301000CF911F910F910895B89A8C9A0E944C18E5
:103020009498C09A80E29EE40197F1F70E941B17E2
:103030000E9411170E94081784E067E40E94AA16F4
:103040008CE160E00E94AA1685E06CE40E94AA165A
:1030500081E160E20E94AA1682E060E00E94AA1666
:1030600082E00E94FF16682F616082E00E94AA162B
:1030700081E00E94FF16682F616081E00E94AA161D
:1030800080E060E177E00E947D1785E197E00E9493
:1030900050170E94A617089587B3807F87BB87B318
:1030A000876087BB82E58DB981E08EB908958FB9BD
:1030B000779BFECF8FB108959093900089B988E9EE
:1030C0008AB986E080939500089590939800809344
:1030D000990080E980939A0086E080939D0008958E
:1030E0005F9BFECF8CB1089580919B0087FFFCCF42
:1030F00080919C0008955D9BFECF8CB90895982F18
:1031000080919B0085FFFCCF90939C000895AC01BB
:1031100020E030E070E00CC0FA01E20FF31FE08124
:1031200080919B0085FFFCCFE0939C002F5F3F4F79
:10313000261737078CF380919B0085FFFCCF80E238
:1031400080939C00089580E090E0FC01E351F84FEB
:103150001082019621E0823C9207B9F71092210774
:103160001092200708955D9BFECF8DE08CB95D9B8A
:10317000FECF8AE08CB908955D9BFECF81E48CB9C7
:103180005D9BFECF84E58CB90E94B3180895AC0115
:10319000DC010D900020E9F71197A81BB90B20E086
:1031A00030E00CC0FA01E20FF31FE08180919B0038
:1031B00085FFFCCFE0939C002F5F3F4F2A173B0712
:1031C0008CF380919B0085FFFCCF80E280939C0074
:1031D0000895DC010D900020E9F71197A81BB90BA9
:1031E00020E030E009C0FC01E20FF31FE0815D9BAD
:1031F000FECFECB92F5F3F4F2A173B07A4F308958A
:103200000E94E9180E94B3180895EF92FF920F935D
:103210001F93DF93CF93CDB7DEB719850A85E12FD2
:10322000F02FDF010D900020E9F7CD018E1B9F0BE1
:103230000E940123F82EE92E9E01255F3F4F612F4A
:10324000702FA9010E94F62480919B0085FFFCCF7E
:103250008DE080939C008F2D9E2D0E94C7188F2D8E
:103260009E2D0E94AE23CF91DF911F910F91FF9071
:10327000EF900895AF92BF92CF92DF92EF92FF92BC
:103280000F931F93DF93CF930F92CDB7DEB77C01DF
:103290008B01198290E9A92E91E0B92E8DEAC82EF2
:1032A00083E0D82E17C088EE93E0F5013197F1F74F
:1032B0000197D9F700D000D0EDB7FEB7D282C18216
:1032C000148303830E940519015010400F900F9042
:1032D0000F900F908DEE97E0B7010E94B3240097F6
:1032E00019F401151105F9F600D000D080EB93E038
:1032F000EDB7FEB7928381838DEE97E0948383834D
:103300000E94051980E090E00F900F900F900F90B1
:10331000FC01E351F84F10820196F1E0823C9F07D7
:10332000B9F71092210710922007101611061CF40D
:1033300081E0898301C0198289810F90CF91DF914B
:103340001F910F91FF90EF90DF90CF90BF90AF90C3
:1033500008958EE1EFECF7E0DF011D928A95E9F721
:1033600010921F0710921E0708951F920F920FB61A
:103370000F9211248F9381E0809324078F910F90F7
:103380000FBE0F901F9018951F920F920FB60F92BD
:1033900011248F9389B78F7D89BFF89481E0809342
:1033A0002D07809330071092290778948F910F9002
:1033B0000FBE0F901F9018951F920F920FB60F928D
:1033C00011248F9389B78F7B89BFF89481E0809314
:1033D0002E07809330071092290778948F910F90D1
:1033E0000FBE0F901F9018951F920F920FB60F925D
:1033F00011242F933F934F935F936F937F938F93FA
:103400009F93AF93BF93EF93FF9300D085EB93E02F
:10341000EDB7FEB7928381830E9405198BB3805864
:103420008BBB0F900F90FF91EF91BF91AF919F9148
:103430008F917F916F915F914F913F912F910F905D
:103440000FBE0F901F9018951F920F920FB60F92FC
:1034500011242F933F934F935F936F937F938F9399
:103460009F93AF93BF93EF93FF93F89481E0809382
:103470002F0700D08BEB93E0EDB7FEB792838183EB
:103480000E940519C49A78940F900F90FF91EF91C4
:10349000BF91AF919F918F917F916F915F914F916C
:1034A0003F912F910F900FBE0F901F9018951F9274
:1034B0000F920FB60F9211242F933F934F935F9368
:1034C0006F937F938F939F93AF93BF93EF93FF93EC
:1034D000F8948BB380588BBB80912B0790912C076D
:1034E000039750F480912B0790912C0701969093AD
:1034F0002C0780932B0704C010922C0710922B07E7
:1035000080912B0790912C07E0912B07F0912C07CD
:10351000ED5CF84F60810E94DE147894FF91EF918A
:10352000BF91AF919F918F917F916F915F914F91DB
:103530003F912F910F900FBE0F901F9018951F92E3
:103540000F920FB60F9211242F933F934F935F93D7
:103550006F937F938F939F93AF93BF93EF93FF935B
:10356000F8940E947018882341F08A3021F481E099
:103570008093230702C08D3009F48FE5E091200786
:10358000F0912107E351F84F8083809120079091BB
:103590002107019690932107809320077894FF914B
:1035A000EF91BF91AF919F918F917F916F915F91BB
:1035B0004F913F912F910F900FBE0F901F90189534
:1035C0001F920F920FB60F9211242F933F934F9398
:1035D0005F936F937F938F939F93AF93BF93EF937B
:1035E000FF93F894DF9A0E947418982F8A3019F488
:1035F00081E080932207E0911E07F0911F07E153BD
:10360000F84F908380911E0790911F070196909329
:103610001F0780931E077894FF91EF91BF91AF91A0
:103620009F918F917F916F915F914F913F912F91DA
:103630000F900FBE0F901F9018951F920F920FB60C
:103640000F9211242F933F934F935F936F937F9328
:103650008F939F93AF93BF93EF93FF93F89481E081
:10366000809331071092550785E597E00E946C160C
:10367000882321F08FEA99E00E94B7167894FF9191
:10368000EF91BF91AF919F918F917F916F915F91DA
:103690004F913F912F910F900FBE0F901F90189553
:1036A0002F923F924F925F926F927F928F929F9252
:1036B000AF92BF92CF92DF92EF92FF920F931F9340
:1036C000DF93CF93CDB7DEB7A8970FB6F894DEBFE0
:1036D0000FBECDBF1092C9071092C8071092CB073A
:1036E0001092CA070E949D09809162008D7F80938D
:1036F000620088EE93E020E931E0F9013197F1F7BB
:103700000197D9F78091620082608093620088EE11
:1037100093E020E931E0F9013197F1F70197D9F70A
:10372000DF9A89E190E00E945C1889E190E00E94B4
:10373000651824B700D000D0EDB7FEB7319684EC01
:1037400093E0ADB7BEB712969C938E9311972283E8
:1037500013820E9405190F900F900F900F9004B6DE
:1037600000FE0BC000D080ED93E0EDB7FEB7928372
:1037700081830E9405190F900F9004B601FE0DC0C1
:1037800000D084ED93E0ADB7BEB712969C938E93B4
:1037900011970E9405190F900F9004B602FE0BC0FE
:1037A00000D089ED93E0EDB7FEB7928381830E944C
:1037B00005190F900F9004B603FE0DC000D08DEDDB
:1037C00093E0ADB7BEB712969C938E9311970E946B
:1037D00005190F900F9004B604FE0BC000D082EEC6
:1037E00093E0EDB7FEB7928381830E9405190F9095
:1037F0000F9014BE00D087EE93E0ADB7BEB712961F
:103800009C938E9311970E9405190F900F908CE056
:103810000E948E140E94610E0E9440140E94441463
:1038200083E060E00E942C1400D08AEF93E0EDB7B3
:10383000FEB7928381830E94CC10C49A88E094E002
:10384000ADB7BEB712969C938E9311970E9405193F
:103850000F900F9080E194E00E94FA10789400D0CD
:1038600089E194E0EDB7FEB7928381830E94051948
:103870000F900F9083E294E00E94FA108FE294E0A0
:103880000E94FA108091620080618093620088EB50
:103890009BE020E931E0F9013197F1F70197D9F781
:1038A0008091620081608093620088EB9BE020E958
:1038B00031E0F9013197F1F70197D9F78091620072
:1038C0008F7E80936200809162008E7F8093620081
:1038D0000E94FE07882309F44AC000D088E394E0E0
:1038E000ADB7BEB712969C938E9311970E9405199F
:1038F0000F900F9088E494E00E94FA100E94000755
:10390000182F0E942507082F0E944A07F82E0E94B0
:10391000DB06E82E0E94B606D82E0E94A606EDB75A
:10392000FEB73E970FB6F894FEBF0FBEEDBF3196BF
:1039300027E534E0ADB7BEB712963C932E931197AE
:103940001283138204831582F6821782E086118621
:10395000D2861386848715860E940519EDB7FEB7B7
:103960003E960FB6F894FEBF0FBEEDBF11C000D05B
:1039700088E794E0ADB7BEB712969C938E931197EB
:103980000E9405190F900F9084E894E00E94FA10AD
:1039900000D08FE894E0EDB7FEB7928381830E9458
:1039A00005190F900F9082E062E00E942C148AE9C2
:1039B00094E00E94FA100E94440A882329F08AEABF
:1039C00094E00E94FA1012C080EB94E00E94FA107A
:1039D0008091C8079091C90701969093C907809379
:1039E000C807809162008061809362000E94AB09E9
:1039F00089EB94E00E94FA108FEF90E0909385009D
:103A0000809384000E94C8148FEF90E060E070E023
:103A100040E050E00E94D51480ED97E020E931E0CD
:103A2000F9013197F1F70197D9F780E090E06FEF56
:103A300070E040E050E00E94D51480ED97E020E96E
:103A400031E0F9013197F1F70197D9F780E090E083
:103A500060E070E04FEF50E00E94D51480ED97E0F9
:103A600020E931E0F9013197F1F70197D9F780E0CA
:103A700090E060E070E040E050E00E94D5140E94C9
:103A80000C180E944C1880E2EFEAF9E0DF011D9269
:103A90008A95E9F700D082EC94E0EDB7FEB7928307
:103AA00081830E9405190F900F9081ED94E00E9490
:103AB000FA1089B7806E89BF8AB78C6B8ABF80E0A5
:103AC00090E060E070E040E050E00E94D51480E0BB
:103AD0000E94A51500D08EED94E0ADB7BEB712964A
:103AE0009C938E9311970E9405190F900F9087EF6A
:103AF00094E00E94FA100E94E60900D081E095E06F
:103B0000EDB7FEB7928381830E9405190F900F9045
:103B100080E195E00E94FA10CE010A96BE01625F34
:103B20007F4F0E94220900D084E195E0ADB7BEB777
:103B300012969C938E9311970E9405190F900F90E7
:103B400083E295E00E94FA100D9B77C00E9440141A
:103B500000D000D00EE215E0EDB7FEB7128301836E
:103B600081E395E0948383830E94CC100F900F90A3
:103B700080E495E0ADB7BEB712969C938E931197F3
:103B80000E94051981E0809332070F900F9080E02A
:103B900061E00E942C1400D000D0EDB7FEB7128374
:103BA00001838EE495E0948383830E94CC100F9070
:103BB0000F900F900F9081E00E949E0B8823B9F028
:103BC00000D08EE595E0ADB7BEB712969C938E936C
:103BD00011970E94051900D0EDB7FEB7128301833B
:103BE0008DE695E0948383830E94CC101BC000D0A7
:103BF00080E795E0ADB7BEB712969C938E93119770
:103C00000E94051900D0EDB7FEB71283018382E848
:103C100095E0948383830E94CC1080916200806140
:103C2000809362000F900F900F900F908091220769
:103C30008823E1F30E945013F9CF80E29FE3A0E2D2
:103C4000BFE380939A0790939B07A0939C07B09340
:103C50009D0780939F079093A007A093A107B0931F
:103C6000A207A4EAB7E0E8E8F5E086E001900D924B
:103C70008150E1F7ABEAB7E0EFE8F5E085E00190CD
:103C80000D928150E1F7A6EBB7E0EFE8F5E085E0B3
:103C900001900D928150E1F781E390E3A0E3B0E35E
:103CA0008093B1079093B207A093B307B093B40782
:103CB0008091620081608093620085E995E00E94B6
:103CC000FA10CC24DD24760119A218A2BB24B394E7
:103CD000AA2433241EA2F1E0FDA31CA21BA22224CD
:103CE000239433E3632E712C812C912CFAA39E0133
:103CF000225E3F4F38A72FA38BB380588BBB809198
:103D000023078823D1F000D000D0E4EAF5E0ADB776
:103D1000BEB71296FC93EE9311972DEE37E01496F2
:103D20003C932E9313970E940519109223070F902E
:103D30000F900F900F900E94A3188091250781305B
:103D400031F0813008F4D0C38230B1F6ACC31091A9
:103D50002707123009F41EC2133030F4112309F47E
:103D60003DC1113049F634C2143009F4E1C01430B9
:103D700018F0153009F629C13DE13A1508F4AA24D6
:103D800088EE93E0E0E9F1E03197F1F70197D1F7A0
:103D9000A39480913007882331F01092300782E09D
:103DA00080932507A9CF8AA1882309F598A1992393
:103DB00079F08091840090918500883C910510F005
:103DC00018A21BC08091840090918500059611C0B7
:103DD0008091840090918500069718F4A1E0A8A333
:103DE0000CC08091840090918500059702C08FEFF0
:103DF00090E09093850080938400B2E0AB1611F4BC
:103E000084E04EC3E5E0AE1619F41092270774CF94
:103E1000FAE0AF1661F482E080932707222009F0D0
:103E20006BCF0894611C711C811C911C65CF2FE025
:103E3000A21659F439A13F5F39A3383209F05CCF9B
:103E400085E08093270719A257CF84E1A81609F0CF
:103E500053CF029B13C000D0E9EAF5E0ADB7BEB77F
:103E60001296FC93EE9311970E940519C49A22248E
:103E70002394F1E0FAA30F900F903BC02AA12223D4
:103E800041F43CA1332389F4CC24DD24760122249F
:103E900030C08CA1882349F495E1C916D104E1040E
:103EA000F10430F0C4981AA203C0CC24DD247601BA
:103EB0000894C11CD11CE11CF11C00D000D000D022
:103EC000E2EBF5E0ADB7BEB71296FC93EE93119717
:103ED0001396CD92DD92ED92FC9216970E940519F1
:103EE0002224EDB7FEB736960FB6F894FEBF0FBE8C
:103EF000EDBFF3E36F1671048104910410F02220EA
:103F000019F42CA1222351F00E946D1510921C0768
:103F100010921B0766247724430104C03DA133237C
:103F200009F4EACE81E0809327078DA31CA2E4CE9A
:103F300080E060E00E942C1400D0EEEBF5E0ADB71D
:103F4000BEB71296FC93EE9311970E94CC100F907F
:103F50000F9083E060E00E942C1482E997E00E94B9
:103F6000230A10919507809196070E94DB052DB7D3
:103F70003EB72A5030400FB6F8943EBF0FBE2DBF5B
:103F8000EDB7FEB7319623ED35E0ADB7BEB712966B
:103F90003C932E931197128313829583848380918F
:103FA00092078683178280919307808711860E94EB
:103FB000CC1083E0809327078DB79EB70A960FB683
:103FC000F8949EBF0FBE8DBF97CE832D0E94110D1A
:103FD000882309F064C2109327078ECE80913107A1
:103FE000882399F0109231070E94850A80E2AFEA97
:103FF000B9E01D928A95E9F7809162008E7F8093E7
:104000006200332433941EA254C0332009F451C0FB
:10401000BEA1BB3008F44AC080E29FE3A0E2BFE348
:1040200080939A0790939B07A0939C07B0939D075A
:1040300080939F079093A007A093A107B093A20736
:10404000A4EAB7E0E8E8F5E086E001900D9281503F
:10405000E1F7ABEAB7E0EFE8F5E085E001900D921B
:104060008150E1F7A6EBB7E0EFE8F5E085E00190DD
:104070000D928150E1F781E390E3A0E3B0E38093F8
:10408000B1079093B207A093B307B093B4078091A0
:1040900062008160809362008091CA079091CB0793
:1040A00001969093CB078093CA073324EEA1EF5F6C
:1040B000EEA3CE010A96BE01625F7F4F0E942209E5
:1040C0006A857B858C859D8543E021E00CEB17E0BC
:1040D0000E94E0226E857F858889998943E021E0EE
:1040E00001EC17E00E94E02287E00E94EE09909325
:1040F000C7078093C6078630910530F480E00E94A0
:10410000A51526E0B22E0FC08035910510F481E090
:1041100006C08639910510F482E001C083E00E9458
:10412000A515BB24B39400D000D0EDB7FEB73196EF
:1041300025EE35E0ADB7BEB712963C932E9311979E
:10414000B28213820E9405190F900F900F900F906A
:1041500086EB97E00E946B243DE0883493070CF0D7
:104160009EC102970CF49BC184EB90E060E070E08C
:1041700040E050E00E94D51400D0E3EFF5E0ADB789
:10418000BEB71296FC93EE9311970E9405190F90FB
:104190000F9085C1332029F08EE280939C07809395
:1041A000A107FBA1FF2339F48CEB97E069E977E0E5
:1041B0000E94411206C08CEB97E069E977E00E940B
:1041C000A1110E94E80A83E0809327071BA294CDE7
:1041D00087B7806487BF80911B0790911C0782304E
:1041E000910509F4D6C08330910530F4009781F031
:1041F000019709F054C1B5C08430910509F409C193
:104200008430910508F4E6C0059709F048C11DC146
:104210000E94C7158FEF90E06B2D70E00E94822204
:1042200080E090E040E050E00E94D51482E997E001
:104230000E94230A8091920790E0BE016F5F7F4F3A
:104240004AE050E00E94CD24809192078A3020F409
:1042500089818A8380E389838091930790E0BE01FE
:104260006C5F7F4F4AE050E00E94CD24809193071D
:104270008A3020F48C818D8380E38C838091940735
:1042800090E0BE01695F7F4F4AE050E00E94CD247C
:10429000809194078A3020F48F81888780E38F8310
:1042A00099812A813C814D815F81688588E78A8B6D
:1042B0008B8B8C8B9D8B2E8B8F8B388F498F8A8F1E
:1042C0005B8F6C8F8D8F8E8F8F8F8E010E5E1F4F49
:1042D0009EE0492E86E0582E40921A07D8018C9114
:1042E000883719F08093D30902C050921A07F80159
:1042F0008181883719F08093D40905C080911A070D
:104300008B7F80931A07D80112968C91883719F009
:104310008093D50905C080911A078D7F80931A0775
:104320001092D6091092D70983ED99E060E040E041
:104330000E94891588EB9BE0E0E9F1E03197F1F705
:104340000197D1F70F5F1F4FEFA1F8A50E171F07B9
:1043500009F0C2CF81E090E090931C0780931B0787
:10436000CBCC0E94C7158FEF90E06B2D70E00E94C0
:104370008222AB0180E090E060E070E00E94D51402
:104380008CEB97E067E340E00E94371682E090E014
:104390001CC00E94C7158FEF90E06B2D70E00E944B
:1043A0008222AB0180E090E060E070E00E94D514D2
:1043B00081EC97E066E340E00E943716332019F065
:1043C00083E090E002C085E090E090931C0780932A
:1043D0001B0765C00E94C7158FEF90E06B2D70E042
:1043E0000E9482229B0188EC90E06B2D70E00E947D
:1043F0008222AB0180E090E0B9010E94D5148AE9E5
:1044000097E067E3409199070E94371684E090E0B7
:10441000DCCF0E94C7158FEF90E06B2D70E00E94FB
:1044200082229B0188EC90E06B2D70E00E9482223A
:10443000AB0180E090E0B9010E94D5148FE997E0CC
:1044400066E340E00E943716BECF0E94C71586EB98
:1044500097E00E946B24FDE088349F0754F4029794
:1044600044F084EB90E06B2D70E00E948222CB013F
:1044700005C026E0B21629F480E090E060E070E02C
:1044800004C081E490E06CE070E040E050E00E9405
:10449000D5140E947B151DA266247724430183E076
:1044A0008093270729CC80912907882309F024CC01
:1044B00080912D07882351F010922D0788B78062D4
:1044C00088BF89B7806289BF31E03BA380912E0706
:1044D000882351F010922E0788B7806488BF89B76F
:1044E000806489BF81E08CA381E05ACC991B79E07C
:1044F00004C0991F961708F0961B881F7A95C9F774
:104500008095089597FB092E07260AD077FD04D0E1
:104510000CD006D000201AF4709561957F4F089555
:10452000F6F7909581959F4F0895AA1BBB1B51E10B
:1045300007C0AA1FBB1FA617B70710F0A61BB70B13
:10454000881F991F5A95A9F780959095BC01CD01B8
:1045500008952F923F924F925F926F927F928F9227
:104560009F92AF92BF92CF92DF92EF92FF920F9302
:104570001F93CF93DF93CDB7DEB7CA1BDB0B0FB60C
:10458000F894DEBF0FBECDBF09942A8839884888C9
:104590005F846E847D848C849B84AA84B984C8845F
:1045A000DF80EE80FD800C811B81AA81B981CE0F56
:1045B000D11D0FB6F894DEBF0FBECDBFED0108953B
:1045C000EF92FF920F931F93F22FF02E47FD02C040
:1045D000E4E001C0E4E1242F332727FD309537FFC5
:1045E00003C0309521953F4F4F2D512F0F2FEE2EA9
:1045F0000E94EF268F2D912F1F910F91FF90EF902A
:104600000895CF93DF93BC018230910510F462E0EE
:1046100070E0A091DA09B091DB09ED01E0E0F0E093
:1046200040E050E021C0888199818617970769F49E
:104630008A819B81309719F09383828304C0909381
:10464000DB098093DA09FE0134C06817790738F472
:104650004115510519F08417950708F4AC01FE01C6
:104660008A819B819C01E9012097E9F6411551055A
:10467000A9F1CA01861B970B049708F4BA01E0E080
:10468000F0E02AC08D919C91119784179507F9F459
:104690006417750781F412968D919C91139730974A
:1046A00019F09383828304C09093DB098093DA0925
:1046B000FD0132964FC0CA01861B970BFD01E80F22
:1046C000F91F6193719302978D939C9343C0FD01F1
:1046D000828193819C01D9011097A1F68091D8091C
:1046E0009091D909892B41F480910707909108078F
:1046F0009093D9098093D8094091090750910A07EE
:104700004115510541F44DB75EB780910507909171
:104710000607481B590B2091D8093091D909241755
:104720003507B0F4CA01821B930B8617970780F0F8
:10473000AB014E5F5F4F8417950750F0420F531F38
:104740005093D9094093D809F9016193719302C03C
:10475000E0E0F0E0CF01DF91CF910895CF93DF93B8
:10476000009709F450C0EC0122971B821A82A09195
:10477000DA09B091DB09109709F140E050E0AC177D
:10478000BD0708F1BB83AA83FE0121913191E20F9D
:10479000F31FAE17BF0779F48D919C911197280FE5
:1047A000391F2E5F3F4F3983288312968D919C913C
:1047B00013979B838A834115510571F4D093DB09CC
:1047C000C093DA0920C012968D919C911397AD0188
:1047D000009711F0DC01D3CFFA01D383C28321917A
:1047E0003191E20FF31FCE17DF0769F488819981B9
:1047F000280F391F2E5F3F4FFA01318320838A81B2
:104800009B8193838283DF91CF910895A0E0B0E0F4
:10481000ECE0F4E20C94B122EC01A880B980CA80EB
:10482000DB80A114B104C104D10441F484E2A82EB8
:1048300089EDB82E8BE5C82E87E0D82EC601B501CC
:104840002DE133EF41E050E00E94572C27EA31E49C
:1048500040E050E00E94382C7B018C01C601B5017C
:104860002DE133EF41E050E00E94572CCA01B9011D
:104870002CEE34EF4FEF5FEF0E94382C6E0D7F1D52
:10488000801F911F97FF04C0615070408040904886
:10489000688379838A839B839B013F77C901CDB766
:1048A000DEB7EAE00C94CD220E94062408958BE046
:1048B00097E00E9406240895A0E0B0E080930B07E3
:1048C00090930C07A0930D07B0930E0708956627E9
:1048D00077270C945128FC0188279927E894219187
:1048E0002032E9F3293010F02E30C8F32B3241F09A
:1048F0002D3239F4689404C00E94EE24820F911D79
:10490000219120532A30C0F31EF4909581959F4F3A
:104910000895FB01DC0102C001900D92415050400E
:10492000D8F70895FB01DC010D900020E9F71197FD
:1049300001900D920020E1F70895FB01DC01019048
:104940000D920020E1F70895FB01DC014150504039
:1049500048F001900D920020C9F701C01D9241500E
:104960005040E0F70895FB0151915523A9F0BF0194
:10497000DC014D9145174111E1F759F4CD0101904A
:10498000002049F04D9140154111C9F3FB0141113F
:10499000EFCF81E090E001970895FB019F01E8943B
:1049A0004230C4F04532B4F44A3029F497FB1EF487
:1049B000909581959F4F642F77270E949522805D67
:1049C0008A330CF0895D8193CB010097A1F716F42F
:1049D0005DE251931082C9010C94BF2A7AE0979F3F
:1049E000902D879F802D910D11240895AEE0B0E0A9
:1049F000ECEFF4E20C94B7228C0186E08C831A83EE
:104A000009838FEF9FE79E838D83CE0101960E94DD
:104A10001225EF81F885E00FF11F10822E96E4E059
:104A20000C94D322ABE0B0E0E8E1F5E20C94A922CB
:104A30003C012B015A01FC0117821682838181FD02
:104A400003C06FEF7FEFC6C19AE0892E1E01089464
:104A5000211C311CF3012381F20123FD859123FFE9
:104A600081912F01882309F4B2C1853239F423FDE5
:104A7000859123FF81912F01853229F490E0B301C4
:104A80000E94CF2AE7CF982FFF24EE249924FFE13C
:104A9000FF15D0F09B3269F09C3228F4903259F027
:104AA000933291F40EC09D3249F0903369F441E0A5
:104AB00024C052E0F52A84E0F82A28C098E0F92AB8
:104AC00025C0E0E1FE2A22C0F7FC29C0892F8053CF
:104AD0008A3070F4F6FE05C0989C902C1124980E34
:104AE00015C0E89CE02C1124E80EF0E2FF2A0EC06D
:104AF0009E3229F4F6FC6BC140E4F42A07C09C36D0
:104B000019F450E8F52A02C0983649F4F20123FD61
:104B1000959123FF91912F01992309F0B8CF892F07
:104B20008554833018F08052833038F444E050E0EC
:104B3000A40EB51E5FE359830FC0933631F093374F
:104B400079F0933509F056C020C0F5018081898342
:104B500042E050E0A40EB51E610101E010E012C079
:104B6000F501C080D180F6FC03C06FEF7FEF02C07B
:104B7000692D70E042E050E0A40EB51EC6010E940F
:104B8000B42A8C015FE7F52214C0F501C080D18002
:104B9000F6FC03C06FEF7FEF02C0692D70E042E0CA
:104BA00050E0A40EB51EC6010E94A92A8C0150E84F
:104BB000F52AF3FE07C01AC080E290E0B3010E941C
:104BC000CF2AEA948E2D90E008171907A8F30EC09B
:104BD000F601F7FC8591F7FE81916F0190E0B3013A
:104BE0000E94CF2AE110EA940150104001151105EE
:104BF00079F7EAC0943611F0993669F5F7FE08C0E6
:104C0000F501208131814281538184E090E00AC026
:104C1000F501808191819C01442737FD4095542FF7
:104C200082E090E0A80EB91E9FE6F92257FF09C066
:104C300050954095309521953F4F4F4F5F4FE0E89D
:104C4000FE2ACA01B901A1012AE030E00E94FB2A34
:104C5000D82ED21840C0953729F41F2D1F7E2AE088
:104C600030E01DC01F2D197F9F3661F0903720F472
:104C7000983509F0ACC00FC0903739F0983709F07B
:104C8000A6C004C028E030E00AC0106114FD146022
:104C900020E130E004C014FD166020E132E017FF8F
:104CA00008C0F501608171818281938144E050E008
:104CB00008C0F50180819181BC0180E090E042E074
:104CC00050E0A40EB51EA1010E94FB2AD82ED218D6
:104CD0008FE7F82EF122F6FE0BC05EEFF522D91415
:104CE00038F4F4FE07C0F2FC05C08FEEF82202C0D3
:104CF0001D2D01C0192DF4FE0DC0FE01ED0DF11D9D
:104D00008081803319F499EEF92208C01F5FF2FE0A
:104D100005C003C08F2D867809F01F5F0F2DF3FCAF
:104D200014C0F0FE0FC01E1510F09D2C0BC09D2C62
:104D30009E0C911A1E2D06C080E290E0B3010E94E5
:104D4000CF2A1F5F1E15C0F304C01E1510F4E11A10
:104D500001C0EE2404FF0FC080E390E0B3010E9485
:104D6000CF2A02FF1DC001FD03C088E790E00EC0FE
:104D700088E590E00BC0802F867891F001FF02C09B
:104D80008BE201C080E2F7FC8DE290E0B3010E946B
:104D9000CF2A06C080E390E0B3010E94CF2A9A9404
:104DA000D914C0F3DA94F101ED0DF11D808190E08A
:104DB000B3010E94CF2ADD20A9F706C080E290E06F
:104DC000B3010E94CF2AEA94EE20C1F743CEF3014B
:104DD00066817781CB012B96E2E10C94C522A9E094
:104DE000B0E0E5EFF6E20C94AD226A01122FA02E9E
:104DF000BE2C2BE3201718F42CE3922E02C0902E29
:104E00009394AE014F5F5F4F27E0092D0E94B129B7
:104E1000BC018981E82EFF24C70189709070019739
:104E200011F4ADE209C0B1FE02C0ABE205C0B0FCB6
:104E300002C0A0E001C0A0E2E3FE3BC0AA2311F43F
:104E400023E001C024E0211710F020E002C0121B73
:104E5000212FEB2CB4FE02C0322F0AC0F601322FF4
:104E600080E202C0819331503323E1F7C20ED11C9E
:104E7000AA2319F0F601A1936F01F6013196E2FE23
:104E800005C09EE4D6019C9381E404C09EE6D60151
:104E90009C9381E611968C9391833296DF01832F48
:104EA00090E202C09D9381508823E1F7E30FF11D4A
:104EB00040C0E2FE42C0AA2311F423E001C024E076
:104EC000211710F020E002C0121B212FEB2CB4FEA2
:104ED00002C0922F0AC0F601922F80E202C0819395
:104EE00091509923E1F7C20ED11CAA2319F0F601C3
:104EF000A1936F01F6013196E2FE08C089E4D60164
:104F00008C938EE411968C9386E407C089E6D601D3
:104F10008C938EE611968C9386E681833296DF0120
:104F2000892F20E202C02D9381508823E1F7E90FF9
:104F3000F11D10822EEF3FEFAFC0161617061CF0C2
:104F400041E050E003C0AB014F5F5F4FAA2019F46E
:104F500080E090E003C08A2D90E0019620E030E0F0
:104F6000AA2311F021E030E0240F351F280F391F4C
:104F7000812F90E02817390714F020E002C0121B9F
:104F8000212F4B2D50E0CA0180719070B4FC0DC0F0
:104F9000B3FC0BC0F601322F40E202C04193315006
:104FA0003323E1F7C20ED11C01C0322FAA2319F01E
:104FB000F601A1936F01892B11F0132F0AC0F6019E
:104FC000132F80E302C0819311501123E1F7C30E28
:104FD000D11C092D060FBA8090E1892E912C8E20CC
:104FE0009F20E4FE04C0F1E3BF1609F4015010163F
:104FF00014F001E003C0093008F008E09B0177FFDE
:1050000002C020E030E0CB010196821B930BFE0131
:105010003196E80FF91F8EE2F82E3B01601A7108F5
:105020008A2D90E044275527481B590B8FEF2F3FBF
:10503000380719F4D601FD926D01621773072CF041
:105040006216730614F4808101C080E32150304061
:1050500031962417350724F0D6018D936D01E6CFE4
:105060002617370749F4B5E3BB1528F0BB1621F422
:105070008114910409F481E3F6018193D601812F13
:1050800090E202C09C93815011968823D9F7E10FDA
:10509000F11D108220E030E0C9012996EEE00C9469
:1050A000C922A0E0B0E0E7E5F8E20C94AF22EC0101
:1050B0005B016115710519F0FB0191838083F99003
:1050C0008F2D90E00E94892A892BC9F7FDE2FF16F7
:1050D00021F4F990EE24E39405C02BE2F21609F4D2
:1050E000F990EE248E0101501040C8016CE872E086
:1050F00043E050E00E94912A892B01F58E010E5F5A
:105100001F4FC8016FE872E045E050E00E94912A0D
:10511000892B19F48E01095F1F4FA114B10419F0F6
:10512000F50111830083E0FC04C070E090E080E8AA
:1051300014C070E090E080E86FEF08C1C80164E936
:1051400072E043E050E00E94912A892B69F4A11497
:10515000B10429F470E090E080EC6FE7F7C022968C
:10516000F501D183C083F6CF8824992440E050E034
:1051700060E070E0EF2DE053EA30A0F5F2E0EF2AB6
:105180008E2D90E09C0128703070E2FE06C0232B2B
:1051900079F50894811C911C2BC0232B19F00894DD
:1051A00081089108DB01CA0112E0880F991FAA1F2C
:1051B000BB1F1A95D1F7480F591F6A1F7B1F440F59
:1051C000551F661F771F4E0F511D611D711D4839F8
:1051D00029E9520729E9620729E1720748F084E0CA
:1051E000E82A06C0EE3F31F4E3FC39C098E0E92A32
:1051F000F990C0CFE53311F0E53189F529912D32D1
:1052000019F4E0E1EE2A05C02B3219F081E090E0BC
:1052100003C0299182E090E0E22FE053EA3018F0D9
:10522000C81BD90B1CC020E030E0FCE020383F0751
:105230005CF4C901880F991F880F991F280F391F27
:10524000220F331F2E0F311DE991E053EA3068F32E
:10525000E4FE03C0309521953F4F820E931ECE2C65
:10526000DD24E1FE07C0A114B10421F02197F5016E
:10527000D183C083CB01BA010E94DC027B018C0187
:10528000F3E0CF22DD2423E0C216D10421F417FB82
:10529000109517F9109557016801C801B70120E072
:1052A00030E040E050E00E94592B882309F44AC0C6
:1052B00097FE0DC02BEAE22E22E0F22E909481940C
:1052C00091089394C0E2D0E000E010E012C093ECAB
:1052D000E92E92E0F92EF6CFF7012591359145910F
:1052E0005491C601B5010E94812B5B016C018C1A9F
:1052F0009D0A8C169D0684F7D595C7950F5F1F4FA5
:105300000630110529F08CEF9FEFE80EF91EF1CF62
:10531000C501D6017C018D018C2D880F8D2D881F34
:105320008F3F51F0C601B50120E030E040E050E091
:105330000E94592B882331F482E290E09093DD099A
:105340008093DC097E2D9F2D802F612F272F392FF1
:10535000482F562FB901CA01CDB7DEB7ECE00C9447
:10536000CB22283008F027E03327DA01990F311DCE
:1053700087FD916000966105710539F432602E5FFA
:105380003D9330E32A95E1F708959F3F30F0803850
:105390007105610509F03C5F3C5F3D93913008F079
:1053A0008068911DDF93CF931F930F93FF92EF922D
:1053B000192F987F9695E92F96959695E90FFF27D7
:1053C000EF5DFC4F99273327EE24FF24A701E70167
:1053D00005900894079428F4360FE71EF81E491F1D
:1053E000511D660F771F881F991F0694A1F705901E
:1053F000079428F4E70EF81E491F561FC11D770FAA
:10540000881F991F661F0694A1F70590079428F43A
:10541000F80E491F561FC71FD11D880F991F661F01
:10542000771F0694A1F70590079420F4490F561FA3
:10543000C71FD81F990F661F771F881F0694A9F7EB
:1054400084911095177041F0D695C795579547955B
:10545000F794E7941A95C1F7E7ECF2E06894159099
:10546000159135916591959105907FE27395E118BD
:10547000F10A430B560BC90BD009C0F7E10CF11E22
:10548000431F561FC91FD01D7EF4703311F48A9537
:10549000E6CFE894015030F0080F0AF40027021715
:1054A00008F4202F2395022F7A3328F079E37D9397
:1054B0002A95E9F710C07D932A9589F60694979569
:1054C0006795379517951794E118F10A430B560B1A
:1054D000C90BD00998F023957E9173957A3308F023
:1054E00070E37C932013B8F77E9170617D9330F068
:1054F000839571E37D9370E32A95E1F71124EF9092
:10550000FF900F911F91CF91DF91992787FD909583
:105510000895911159C1803219F089508550D0F702
:105520000895FB01DC014150504088F08D91813499
:105530001CF08B350CF4805E659161341CF06B358A
:105540000CF4605E861B611171F3990B0895881B42
:10555000FCCFFC010590615070400110D8F7809598
:1055600090958E0F9F1F0895FC016150704001902F
:105570000110D8F7809590958E0F9F1F0895DC013C
:10558000FC01672F71917723E1F7329704C07C917A
:105590006D9370836291AE17BF07C8F308950F93A0
:1055A0001F93CF93DF938C01EB018B8181FF1BC095
:1055B00082FF0DC02E813F818C819D812817390784
:1055C00064F4E881F9810193F983E88306C0E885F2
:1055D000F985802F0995892B31F48E819F81019661
:1055E0009F838E8302C00FEF1FEFC801DF91CF9121
:1055F0001F910F910895FA01AA27283051F1203107
:1056000081F1E8946F936E7F6E5F7F4F8F4F9F4F56
:10561000AF4FB1E03ED0B4E03CD0670F781F891F98
:105620009A1FA11D680F791F8A1F911DA11D6A0F66
:10563000711D811D911DA11D20D009F468943F9119
:105640002AE0269F11243019305D3193DEF6CF0118
:105650000895462F4770405D4193B3E00FD0C9F7DE
:10566000F6CF462F4F70405D4A3318F0495D31FD4B
:105670004052419302D0A9F7EACFB4E0A69597959E
:10568000879577956795BA95C9F700976105710574
:1056900008959B01AC010A2E0694579547953795BE
:1056A0002795BA95C9F7620F731F841F951FA01D18
:1056B000089503D008F481E00895990F0008550F6C
:1056C000AA0BE0E8FEEF16161706E807F907C0F088
:1056D00012161306E407F50798F0621B730B840B90
:1056E000950B39F40A2661F0232B242B252B21F46A
:1056F00008950A2609F4A140A6958FEF811D811D0A
:1057000008950BD07BC06CD028F071D018F0952391
:1057100009F05DC062C01124A5C081D0A0F3959F9F
:10572000D1F3950F50E0551F629FF001729FBB2788
:10573000F00DB11D639FAA27F00DB11DAA1F649F34
:105740006627B00DA11D661F829F2227B00DA11DE7
:10575000621F739FB00DA11D621F839FA00D611D6D
:10576000221F749F3327A00D611D231F849F600D8E
:10577000211D822F762F6A2F11249F5750408AF0C7
:10578000E1F088234AF0EE0FFF1FBB1F661F771F53
:10579000881F91505040A9F79E3F510570F017C0E7
:1057A00061C05F3FECF3983EDCF386957795679593
:1057B000B795F795E7959F5FC1F7FE2B880F911D71
:1057C0009695879597F9089599278827089597F9C9
:1057D0009F6780E870E060E008959FEF80EC089597
:1057E00000240A94161617061806090608950024C0
:1057F0000A9412161306140605060895092E03943A
:10580000000C11F4882352F0BB0F40F4BF2B11F4AD
:1058100060FF04C06F5F7F4F8F4F9F4F089557FD0C
:105820009058440F551F59F05F3F71F04795880F0E
:1058300097FB991F61F09F3F79F0879508951216A5
:1058400013061406551FF2CF4695F1DF08C0161651
:1058500017061806991FF1CF869571056105089402
:105860000895E894BB2766277727CB0197F9089519
:10587000629FD001739FF001829FE00DF11D649F34
:10588000E00DF11D929FF00D839FF00D749FF00DC0
:10589000659FF00D9927729FB00DE11DF91F639F61
:1058A000B00DE11DF91FBD01CF011124089597FB33
:1058B000092E05260ED057FD04D014D00AD0001CA6
:1058C00038F450954095309521953F4F4F4F5F4F9D
:1058D0000895F6F790958095709561957F4F8F4F5D
:1058E0009F4F0895A1E21A2EAA1BBB1BFD010DC0FC
:1058F000AA1FBB1FEE1FFF1FA217B307E407F50780
:1059000020F0A21BB30BE40BF50B661F771F881F5B
:10591000991F1A9469F760957095809590959B01F1
:0C592000AC01BD01CF010895F894FFCF49
:10592C004D6F6E00547565005765640054687500C2
:10593C00467269005361740053756E004A616E00C3
:10594C00466562004D617200417072004D617900D4
:10595C004A756E65004A756C790041756700536530
:10596C007074004F6374004E6F7600446563000AD8
:10597C0049324320646F6E652C2000726561642C83
:10598C0020007772697465000A52414D202564002D
:10599C0041542B43574A41503D2250616C486F6D26
:1059AC00655F31222C22676572626963696322002C
:1059BC004F4B000A526F75746572204F4B000A52A0
:1059CC006F75746572204572726F72000A000A73EB
:1059DC0065713A202564000A74656D703A25730070
:1059EC000A68756D3A2573000A6574656D703A2501
:1059FC0073000A6568756D3A2573000A65707265E7
:105A0C00733A2573000A656C75783A2573000A653C
:105A1C007261696E3A2564000A4578745F6261743C
:105A2C00743A202564000A4C44523A202564000A3A
:105A3C004974696D650041542B4349504E54503D97
:105A4C00320041542B4349504E54503F00256400C2
:105A5C00474D54000A2025730054696D653A000ABD
:105A6C0054696D6520676F7421202564202564209E
:105A7C002564202564202564202564000A542061B7
:105A8C00667465722073796E632025643A25643AD6
:105A9C0025642025642025642025640041542B4373
:105AAC00495053544152543D22544350222C22000D
:105ABC003138342E3130362E3135332E31343900E5
:105ACC00222C3830000A57454220434F4E4E004797
